{"abi":[{"inputs":[{"internalType":"uint64","name":"subscriptionId","type":"uint64"},{"internalType":"address","name":"vrfCoordinator","type":"address"},{"internalType":"address","name":"link","type":"address"},{"internalType":"bytes32","name":"keyHash","type":"bytes32"},{"internalType":"uint256","name":"entranceFee","type":"uint256"}],"stateMutability":"nonpayable","type":"constructor","name":"constructor"},{"inputs":[],"name":"Game_SendMoreToEnterGame","type":"error"},{"inputs":[],"name":"Game_TransferFailed","type":"error"},{"inputs":[{"internalType":"address","name":"have","type":"address"},{"internalType":"address","name":"want","type":"address"}],"name":"OnlyCoordinatorCanFulfill","type":"error"},{"anonymous":false,"inputs":[{"indexed":true,"internalType":"address","name":"player","type":"address"}],"name":"GameEntry","type":"event"},{"anonymous":false,"inputs":[{"indexed":false,"internalType":"uint256[]","name":"randomWords","type":"uint256[]"}],"name":"ReturnedRandomness","type":"event"},{"inputs":[],"name":"enterGame","outputs":[],"stateMutability":"payable","type":"function"},{"inputs":[{"internalType":"uint256","name":"_hand","type":"uint256"}],"name":"pickType","outputs":[{"internalType":"uint256","name":"","type":"uint256"}],"stateMutability":"nonpayable","type":"function"},{"inputs":[{"internalType":"uint256","name":"requestId","type":"uint256"},{"internalType":"uint256[]","name":"randomWords","type":"uint256[]"}],"name":"rawFulfillRandomWords","outputs":[],"stateMutability":"nonpayable","type":"function"},{"inputs":[{"internalType":"uint256","name":"","type":"uint256"}],"name":"s_randomWords","outputs":[{"internalType":"uint256","name":"","type":"uint256"}],"stateMutability":"view","type":"function"},{"inputs":[],"name":"s_requestId","outputs":[{"internalType":"uint256","name":"","type":"uint256"}],"stateMutability":"view","type":"function"}],"bytecode":"610180604052620186a06101205260036101405260016101605234801561002557600080fd5b50604051610b5a380380610b5a833981016040819052610044916100a9565b6001600160a01b03938416608081905260a0529190921660c05261010091909152600280546001600160a01b031916331790556001600160401b0390911660e05260035561010d565b80516001600160a01b03811681146100a457600080fd5b919050565b600080600080600060a086880312156100c157600080fd5b85516001600160401b03811681146100d857600080fd5b94506100e66020870161008d565b93506100f46040870161008d565b6060870151608090970151959894975095949392505050565b60805160a05160c05160e051610100516101205161014051610160516109e5610175600039600061034c015260006102f8015260006103240152600061029f015260006102ce015260005050600061037301526000818160ec015261012e01526109e56000f3fe60806040526004361061004a5760003560e01c80631fe543e31461004f578063218bd57714610071578063e89e106a14610079578063f6eaffc8146100a1578063ffa3cf81146100c1575b600080fd5b34801561005b57600080fd5b5061006f61006a3660046107fc565b6100e1565b005b61006f61016d565b34801561008557600080fd5b5061008f60015481565b60405190815260200160405180910390f35b3480156100ad57600080fd5b5061008f6100bc3660046108c6565b610209565b3480156100cd57600080fd5b5061008f6100dc3660046108c6565b61022a565b336001600160a01b037f0000000000000000000000000000000000000000000000000000000000000000161461015f5760405163073e64fd60e21b81523360048201526001600160a01b037f000000000000000000000000000000000000000000000000000000000000000016602482015260440160405180910390fd5b6101698282610411565b5050565b6003543410156101905760405163fbbd461960e01b815260040160405180910390fd5b60048054600181019091557f8a35acfbc15ff81a39ae7d344fd709f28e8600b4aa8c65c6b64bfe7fe36bd19b0180546001600160a01b03191633908117909155600081815260076020526040808220349055517f4856b94bff5e849eded76094e0152efe4b93efd25a8d75e10a73557e9bf983aa9190a2565b6000818154811061021957600080fd5b600091825260209091200154905081565b6003543360009081526007602052604081205490911461024957600080fd5b600082600281111561025d5761025d6108df565b3360009081526006602052604090208054919250829160ff1916600183600281111561028b5761028b6108df565b02179055506040516305d3b1d360e41b81527f0000000000000000000000000000000000000000000000000000000000000000600482015267ffffffffffffffff7f000000000000000000000000000000000000000000000000000000000000000016602482015261ffff7f000000000000000000000000000000000000000000000000000000000000000016604482015263ffffffff7f0000000000000000000000000000000000000000000000000000000000000000811660648301527f00000000000000000000000000000000000000000000000000000000000000001660848201527f00000000000000000000000000000000000000000000000000000000000000006001600160a01b031690635d3b1d309060a4016020604051808303816000875af11580156103c4573d6000803e3d6000fd5b505050506040513d601f19601f820116820180604052508101906103e891906108f5565b6001819055600090815260086020526040902080546001600160a01b0319163317905550919050565b8051610424906000906020840190610786565b50600060036000808154811061043c5761043c61090e565b90600052602060002001546104519190610924565b6002811115610462576104626108df565b90507fefb16d61046900da527008568620fb9f8420e2f5ed4de3bfbded5035c9362b0e826040516104939190610946565b60405180910390a16000838152600860209081526040808320546001600160a01b03168352600690915281205460ff1660028111156104d4576104d46108df565b036105915760028160028111156104ed576104ed6108df565b0361059157600083815260086020526040812054600580546001600160a01b0319166001600160a01b03909216918217905560035461052c904761098a565b604051600081818185875af1925050503d8060008114610568576040519150601f19603f3d011682016040523d82523d6000602084013e61056d565b606091505b505090508061058f5760405163211c310560e01b815260040160405180910390fd5b505b60016000848152600860209081526040808320546001600160a01b03168352600690915290205460ff1660028111156105cc576105cc6108df565b036106895760008160028111156105e5576105e56108df565b0361068957600083815260086020526040812054600580546001600160a01b0319166001600160a01b039092169182179055600354610624904761098a565b604051600081818185875af1925050503d8060008114610660576040519150601f19603f3d011682016040523d82523d6000602084013e610665565b606091505b50509050806106875760405163211c310560e01b815260040160405180910390fd5b505b60026000848152600860209081526040808320546001600160a01b03168352600690915290205460ff1660028111156106c4576106c46108df565b036107815760018160028111156106dd576106dd6108df565b0361078157600083815260086020526040812054600580546001600160a01b0319166001600160a01b03909216918217905560035461071c904761098a565b604051600081818185875af1925050503d8060008114610758576040519150601f19603f3d011682016040523d82523d6000602084013e61075d565b606091505b505090508061077f5760405163211c310560e01b815260040160405180910390fd5b505b505050565b8280548282559060005260206000209081019282156107c1579160200282015b828111156107c15782518255916020019190600101906107a6565b506107cd9291506107d1565b5090565b5b808211156107cd57600081556001016107d2565b634e487b7160e01b600052604160045260246000fd5b6000806040838503121561080f57600080fd5b8235915060208084013567ffffffffffffffff8082111561082f57600080fd5b818601915086601f83011261084357600080fd5b813581811115610855576108556107e6565b8060051b604051601f19603f8301168101818110858211171561087a5761087a6107e6565b60405291825284820192508381018501918983111561089857600080fd5b938501935b828510156108b65784358452938501939285019261089d565b8096505050505050509250929050565b6000602082840312156108d857600080fd5b5035919050565b634e487b7160e01b600052602160045260246000fd5b60006020828403121561090757600080fd5b5051919050565b634e487b7160e01b600052603260045260246000fd5b60008261094157634e487b7160e01b600052601260045260246000fd5b500690565b6020808252825182820181905260009190848201906040850190845b8181101561097e57835183529284019291840191600101610962565b50909695505050505050565b6000828210156109aa57634e487b7160e01b600052601160045260246000fd5b50039056fea2646970667358221220ee00beee289b696ac860c6fb8711d9f101c24df815ef3b822df7358a5b8301b964736f6c634300080d0033","bytecodeSha1":"a7cdadcd7a978d804326594b9b9704832a679f5a","compiler":{"evm_version":"istanbul","optimizer":{"enabled":true,"runs":200},"version":"0.8.13+commit.abaa5c0e"},"contractName":"handGame","language":"Solidity","natspec":{"kind":"dev","methods":{"enterGame()":{"notice":"Requests randomness Assumes the subscription is funded sufficiently; \"Words\" refers to unit of data in Computer Science"}},"version":1},"opcodes":"PUSH1 0x80 PUSH1 0x40 MSTORE PUSH1 0x4 CALLDATASIZE LT PUSH2 0x4A JUMPI PUSH1 0x0 CALLDATALOAD PUSH1 0xE0 SHR DUP1 PUSH4 0x1FE543E3 EQ PUSH2 0x4F JUMPI DUP1 PUSH4 0x218BD577 EQ PUSH2 0x71 JUMPI DUP1 PUSH4 0xE89E106A EQ PUSH2 0x79 JUMPI DUP1 PUSH4 0xF6EAFFC8 EQ PUSH2 0xA1 JUMPI DUP1 PUSH4 0xFFA3CF81 EQ PUSH2 0xC1 JUMPI JUMPDEST PUSH1 0x0 DUP1 REVERT JUMPDEST CALLVALUE DUP1 ISZERO PUSH2 0x5B JUMPI PUSH1 0x0 DUP1 REVERT JUMPDEST POP PUSH2 0x6F PUSH2 0x6A CALLDATASIZE PUSH1 0x4 PUSH2 0x7FC JUMP JUMPDEST PUSH2 0xE1 JUMP JUMPDEST STOP JUMPDEST PUSH2 0x6F PUSH2 0x16D JUMP JUMPDEST CALLVALUE DUP1 ISZERO PUSH2 0x85 JUMPI PUSH1 0x0 DUP1 REVERT JUMPDEST POP PUSH2 0x8F PUSH1 0x1 SLOAD DUP2 JUMP JUMPDEST PUSH1 0x40 MLOAD SWAP1 DUP2 MSTORE PUSH1 0x20 ADD PUSH1 0x40 MLOAD DUP1 SWAP2 SUB SWAP1 RETURN JUMPDEST CALLVALUE DUP1 ISZERO PUSH2 0xAD JUMPI PUSH1 0x0 DUP1 REVERT JUMPDEST POP PUSH2 0x8F PUSH2 0xBC CALLDATASIZE PUSH1 0x4 PUSH2 0x8C6 JUMP JUMPDEST PUSH2 0x209 JUMP JUMPDEST CALLVALUE DUP1 ISZERO PUSH2 0xCD JUMPI PUSH1 0x0 DUP1 REVERT JUMPDEST POP PUSH2 0x8F PUSH2 0xDC CALLDATASIZE PUSH1 0x4 PUSH2 0x8C6 JUMP JUMPDEST PUSH2 0x22A JUMP JUMPDEST CALLER PUSH1 0x1 PUSH1 0x1 PUSH1 0xA0 SHL SUB PUSH32 0x0 AND EQ PUSH2 0x15F JUMPI PUSH1 0x40 MLOAD PUSH4 0x73E64FD PUSH1 0xE2 SHL DUP2 MSTORE CALLER PUSH1 0x4 DUP3 ADD MSTORE PUSH1 0x1 PUSH1 0x1 PUSH1 0xA0 SHL SUB PUSH32 0x0 AND PUSH1 0x24 DUP3 ADD MSTORE PUSH1 0x44 ADD PUSH1 0x40 MLOAD DUP1 SWAP2 SUB SWAP1 REVERT JUMPDEST PUSH2 0x169 DUP3 DUP3 PUSH2 0x411 JUMP JUMPDEST POP POP JUMP JUMPDEST PUSH1 0x3 SLOAD CALLVALUE LT ISZERO PUSH2 0x190 JUMPI PUSH1 0x40 MLOAD PUSH4 0xFBBD4619 PUSH1 0xE0 SHL DUP2 MSTORE PUSH1 0x4 ADD PUSH1 0x40 MLOAD DUP1 SWAP2 SUB SWAP1 REVERT JUMPDEST PUSH1 0x4 DUP1 SLOAD PUSH1 0x1 DUP2 ADD SWAP1 SWAP2 SSTORE PUSH32 0x8A35ACFBC15FF81A39AE7D344FD709F28E8600B4AA8C65C6B64BFE7FE36BD19B ADD DUP1 SLOAD PUSH1 0x1 PUSH1 0x1 PUSH1 0xA0 SHL SUB NOT AND CALLER SWAP1 DUP2 OR SWAP1 SWAP2 SSTORE PUSH1 0x0 DUP2 DUP2 MSTORE PUSH1 0x7 PUSH1 0x20 MSTORE PUSH1 0x40 DUP1 DUP3 KECCAK256 CALLVALUE SWAP1 SSTORE MLOAD PUSH32 0x4856B94BFF5E849EDED76094E0152EFE4B93EFD25A8D75E10A73557E9BF983AA SWAP2 SWAP1 LOG2 JUMP JUMPDEST PUSH1 0x0 DUP2 DUP2 SLOAD DUP2 LT PUSH2 0x219 JUMPI PUSH1 0x0 DUP1 REVERT JUMPDEST PUSH1 0x0 SWAP2 DUP3 MSTORE PUSH1 0x20 SWAP1 SWAP2 KECCAK256 ADD SLOAD SWAP1 POP DUP2 JUMP JUMPDEST PUSH1 0x3 SLOAD CALLER PUSH1 0x0 SWAP1 DUP2 MSTORE PUSH1 0x7 PUSH1 0x20 MSTORE PUSH1 0x40 DUP2 KECCAK256 SLOAD SWAP1 SWAP2 EQ PUSH2 0x249 JUMPI PUSH1 0x0 DUP1 REVERT JUMPDEST PUSH1 0x0 DUP3 PUSH1 0x2 DUP2 GT ISZERO PUSH2 0x25D JUMPI PUSH2 0x25D PUSH2 0x8DF JUMP JUMPDEST CALLER PUSH1 0x0 SWAP1 DUP2 MSTORE PUSH1 0x6 PUSH1 0x20 MSTORE PUSH1 0x40 SWAP1 KECCAK256 DUP1 SLOAD SWAP2 SWAP3 POP DUP3 SWAP2 PUSH1 0xFF NOT AND PUSH1 0x1 DUP4 PUSH1 0x2 DUP2 GT ISZERO PUSH2 0x28B JUMPI PUSH2 0x28B PUSH2 0x8DF JUMP JUMPDEST MUL OR SWAP1 SSTORE POP PUSH1 0x40 MLOAD PUSH4 0x5D3B1D3 PUSH1 0xE4 SHL DUP2 MSTORE PUSH32 0x0 PUSH1 0x4 DUP3 ADD MSTORE PUSH8 0xFFFFFFFFFFFFFFFF PUSH32 0x0 AND PUSH1 0x24 DUP3 ADD MSTORE PUSH2 0xFFFF PUSH32 0x0 AND PUSH1 0x44 DUP3 ADD MSTORE PUSH4 0xFFFFFFFF PUSH32 0x0 DUP2 AND PUSH1 0x64 DUP4 ADD MSTORE PUSH32 0x0 AND PUSH1 0x84 DUP3 ADD MSTORE PUSH32 0x0 PUSH1 0x1 PUSH1 0x1 PUSH1 0xA0 SHL SUB AND SWAP1 PUSH4 0x5D3B1D30 SWAP1 PUSH1 0xA4 ADD PUSH1 0x20 PUSH1 0x40 MLOAD DUP1 DUP4 SUB DUP2 PUSH1 0x0 DUP8 GAS CALL ISZERO DUP1 ISZERO PUSH2 0x3C4 JUMPI RETURNDATASIZE PUSH1 0x0 DUP1 RETURNDATACOPY RETURNDATASIZE PUSH1 0x0 REVERT JUMPDEST POP POP POP POP PUSH1 0x40 MLOAD RETURNDATASIZE PUSH1 0x1F NOT PUSH1 0x1F DUP3 ADD AND DUP3 ADD DUP1 PUSH1 0x40 MSTORE POP DUP2 ADD SWAP1 PUSH2 0x3E8 SWAP2 SWAP1 PUSH2 0x8F5 JUMP JUMPDEST PUSH1 0x1 DUP2 SWAP1 SSTORE PUSH1 0x0 SWAP1 DUP2 MSTORE PUSH1 0x8 PUSH1 0x20 MSTORE PUSH1 0x40 SWAP1 KECCAK256 DUP1 SLOAD PUSH1 0x1 PUSH1 0x1 PUSH1 0xA0 SHL SUB NOT AND CALLER OR SWAP1 SSTORE POP SWAP2 SWAP1 POP JUMP JUMPDEST DUP1 MLOAD PUSH2 0x424 SWAP1 PUSH1 0x0 SWAP1 PUSH1 0x20 DUP5 ADD SWAP1 PUSH2 0x786 JUMP JUMPDEST POP PUSH1 0x0 PUSH1 0x3 PUSH1 0x0 DUP1 DUP2 SLOAD DUP2 LT PUSH2 0x43C JUMPI PUSH2 0x43C PUSH2 0x90E JUMP JUMPDEST SWAP1 PUSH1 0x0 MSTORE PUSH1 0x20 PUSH1 0x0 KECCAK256 ADD SLOAD PUSH2 0x451 SWAP2 SWAP1 PUSH2 0x924 JUMP JUMPDEST PUSH1 0x2 DUP2 GT ISZERO PUSH2 0x462 JUMPI PUSH2 0x462 PUSH2 0x8DF JUMP JUMPDEST SWAP1 POP PUSH32 0xEFB16D61046900DA527008568620FB9F8420E2F5ED4DE3BFBDED5035C9362B0E DUP3 PUSH1 0x40 MLOAD PUSH2 0x493 SWAP2 SWAP1 PUSH2 0x946 JUMP JUMPDEST PUSH1 0x40 MLOAD DUP1 SWAP2 SUB SWAP1 LOG1 PUSH1 0x0 DUP4 DUP2 MSTORE PUSH1 0x8 PUSH1 0x20 SWAP1 DUP2 MSTORE PUSH1 0x40 DUP1 DUP4 KECCAK256 SLOAD PUSH1 0x1 PUSH1 0x1 PUSH1 0xA0 SHL SUB AND DUP4 MSTORE PUSH1 0x6 SWAP1 SWAP2 MSTORE DUP2 KECCAK256 SLOAD PUSH1 0xFF AND PUSH1 0x2 DUP2 GT ISZERO PUSH2 0x4D4 JUMPI PUSH2 0x4D4 PUSH2 0x8DF JUMP JUMPDEST SUB PUSH2 0x591 JUMPI PUSH1 0x2 DUP2 PUSH1 0x2 DUP2 GT ISZERO PUSH2 0x4ED JUMPI PUSH2 0x4ED PUSH2 0x8DF JUMP JUMPDEST SUB PUSH2 0x591 JUMPI PUSH1 0x0 DUP4 DUP2 MSTORE PUSH1 0x8 PUSH1 0x20 MSTORE PUSH1 0x40 DUP2 KECCAK256 SLOAD PUSH1 0x5 DUP1 SLOAD PUSH1 0x1 PUSH1 0x1 PUSH1 0xA0 SHL SUB NOT AND PUSH1 0x1 PUSH1 0x1 PUSH1 0xA0 SHL SUB SWAP1 SWAP3 AND SWAP2 DUP3 OR SWAP1 SSTORE PUSH1 0x3 SLOAD PUSH2 0x52C SWAP1 SELFBALANCE PUSH2 0x98A JUMP JUMPDEST PUSH1 0x40 MLOAD PUSH1 0x0 DUP2 DUP2 DUP2 DUP6 DUP8 GAS CALL SWAP3 POP POP POP RETURNDATASIZE DUP1 PUSH1 0x0 DUP2 EQ PUSH2 0x568 JUMPI PUSH1 0x40 MLOAD SWAP2 POP PUSH1 0x1F NOT PUSH1 0x3F RETURNDATASIZE ADD AND DUP3 ADD PUSH1 0x40 MSTORE RETURNDATASIZE DUP3 MSTORE RETURNDATASIZE PUSH1 0x0 PUSH1 0x20 DUP5 ADD RETURNDATACOPY PUSH2 0x56D JUMP JUMPDEST PUSH1 0x60 SWAP2 POP JUMPDEST POP POP SWAP1 POP DUP1 PUSH2 0x58F JUMPI PUSH1 0x40 MLOAD PUSH4 0x211C3105 PUSH1 0xE0 SHL DUP2 MSTORE PUSH1 0x4 ADD PUSH1 0x40 MLOAD DUP1 SWAP2 SUB SWAP1 REVERT JUMPDEST POP JUMPDEST PUSH1 0x1 PUSH1 0x0 DUP5 DUP2 MSTORE PUSH1 0x8 PUSH1 0x20 SWAP1 DUP2 MSTORE PUSH1 0x40 DUP1 DUP4 KECCAK256 SLOAD PUSH1 0x1 PUSH1 0x1 PUSH1 0xA0 SHL SUB AND DUP4 MSTORE PUSH1 0x6 SWAP1 SWAP2 MSTORE SWAP1 KECCAK256 SLOAD PUSH1 0xFF AND PUSH1 0x2 DUP2 GT ISZERO PUSH2 0x5CC JUMPI PUSH2 0x5CC PUSH2 0x8DF JUMP JUMPDEST SUB PUSH2 0x689 JUMPI PUSH1 0x0 DUP2 PUSH1 0x2 DUP2 GT ISZERO PUSH2 0x5E5 JUMPI PUSH2 0x5E5 PUSH2 0x8DF JUMP JUMPDEST SUB PUSH2 0x689 JUMPI PUSH1 0x0 DUP4 DUP2 MSTORE PUSH1 0x8 PUSH1 0x20 MSTORE PUSH1 0x40 DUP2 KECCAK256 SLOAD PUSH1 0x5 DUP1 SLOAD PUSH1 0x1 PUSH1 0x1 PUSH1 0xA0 SHL SUB NOT AND PUSH1 0x1 PUSH1 0x1 PUSH1 0xA0 SHL SUB SWAP1 SWAP3 AND SWAP2 DUP3 OR SWAP1 SSTORE PUSH1 0x3 SLOAD PUSH2 0x624 SWAP1 SELFBALANCE PUSH2 0x98A JUMP JUMPDEST PUSH1 0x40 MLOAD PUSH1 0x0 DUP2 DUP2 DUP2 DUP6 DUP8 GAS CALL SWAP3 POP POP POP RETURNDATASIZE DUP1 PUSH1 0x0 DUP2 EQ PUSH2 0x660 JUMPI PUSH1 0x40 MLOAD SWAP2 POP PUSH1 0x1F NOT PUSH1 0x3F RETURNDATASIZE ADD AND DUP3 ADD PUSH1 0x40 MSTORE RETURNDATASIZE DUP3 MSTORE RETURNDATASIZE PUSH1 0x0 PUSH1 0x20 DUP5 ADD RETURNDATACOPY PUSH2 0x665 JUMP JUMPDEST PUSH1 0x60 SWAP2 POP JUMPDEST POP POP SWAP1 POP DUP1 PUSH2 0x687 JUMPI PUSH1 0x40 MLOAD PUSH4 0x211C3105 PUSH1 0xE0 SHL DUP2 MSTORE PUSH1 0x4 ADD PUSH1 0x40 MLOAD DUP1 SWAP2 SUB SWAP1 REVERT JUMPDEST POP JUMPDEST PUSH1 0x2 PUSH1 0x0 DUP5 DUP2 MSTORE PUSH1 0x8 PUSH1 0x20 SWAP1 DUP2 MSTORE PUSH1 0x40 DUP1 DUP4 KECCAK256 SLOAD PUSH1 0x1 PUSH1 0x1 PUSH1 0xA0 SHL SUB AND DUP4 MSTORE PUSH1 0x6 SWAP1 SWAP2 MSTORE SWAP1 KECCAK256 SLOAD PUSH1 0xFF AND PUSH1 0x2 DUP2 GT ISZERO PUSH2 0x6C4 JUMPI PUSH2 0x6C4 PUSH2 0x8DF JUMP JUMPDEST SUB PUSH2 0x781 JUMPI PUSH1 0x1 DUP2 PUSH1 0x2 DUP2 GT ISZERO PUSH2 0x6DD JUMPI PUSH2 0x6DD PUSH2 0x8DF JUMP JUMPDEST SUB PUSH2 0x781 JUMPI PUSH1 0x0 DUP4 DUP2 MSTORE PUSH1 0x8 PUSH1 0x20 MSTORE PUSH1 0x40 DUP2 KECCAK256 SLOAD PUSH1 0x5 DUP1 SLOAD PUSH1 0x1 PUSH1 0x1 PUSH1 0xA0 SHL SUB NOT AND PUSH1 0x1 PUSH1 0x1 PUSH1 0xA0 SHL SUB SWAP1 SWAP3 AND SWAP2 DUP3 OR SWAP1 SSTORE PUSH1 0x3 SLOAD PUSH2 0x71C SWAP1 SELFBALANCE PUSH2 0x98A JUMP JUMPDEST PUSH1 0x40 MLOAD PUSH1 0x0 DUP2 DUP2 DUP2 DUP6 DUP8 GAS CALL SWAP3 POP POP POP RETURNDATASIZE DUP1 PUSH1 0x0 DUP2 EQ PUSH2 0x758 JUMPI PUSH1 0x40 MLOAD SWAP2 POP PUSH1 0x1F NOT PUSH1 0x3F RETURNDATASIZE ADD AND DUP3 ADD PUSH1 0x40 MSTORE RETURNDATASIZE DUP3 MSTORE RETURNDATASIZE PUSH1 0x0 PUSH1 0x20 DUP5 ADD RETURNDATACOPY PUSH2 0x75D JUMP JUMPDEST PUSH1 0x60 SWAP2 POP JUMPDEST POP POP SWAP1 POP DUP1 PUSH2 0x77F JUMPI PUSH1 0x40 MLOAD PUSH4 0x211C3105 PUSH1 0xE0 SHL DUP2 MSTORE PUSH1 0x4 ADD PUSH1 0x40 MLOAD DUP1 SWAP2 SUB SWAP1 REVERT JUMPDEST POP JUMPDEST POP POP POP JUMP JUMPDEST DUP3 DUP1 SLOAD DUP3 DUP3 SSTORE SWAP1 PUSH1 0x0 MSTORE PUSH1 0x20 PUSH1 0x0 KECCAK256 SWAP1 DUP2 ADD SWAP3 DUP3 ISZERO PUSH2 0x7C1 JUMPI SWAP2 PUSH1 0x20 MUL DUP3 ADD JUMPDEST DUP3 DUP2 GT ISZERO PUSH2 0x7C1 JUMPI DUP3 MLOAD DUP3 SSTORE SWAP2 PUSH1 0x20 ADD SWAP2 SWAP1 PUSH1 0x1 ADD SWAP1 PUSH2 0x7A6 JUMP JUMPDEST POP PUSH2 0x7CD SWAP3 SWAP2 POP PUSH2 0x7D1 JUMP JUMPDEST POP SWAP1 JUMP JUMPDEST JUMPDEST DUP1 DUP3 GT ISZERO PUSH2 0x7CD JUMPI PUSH1 0x0 DUP2 SSTORE PUSH1 0x1 ADD PUSH2 0x7D2 JUMP JUMPDEST PUSH4 0x4E487B71 PUSH1 0xE0 SHL PUSH1 0x0 MSTORE PUSH1 0x41 PUSH1 0x4 MSTORE PUSH1 0x24 PUSH1 0x0 REVERT JUMPDEST PUSH1 0x0 DUP1 PUSH1 0x40 DUP4 DUP6 SUB SLT ISZERO PUSH2 0x80F JUMPI PUSH1 0x0 DUP1 REVERT JUMPDEST DUP3 CALLDATALOAD SWAP2 POP PUSH1 0x20 DUP1 DUP5 ADD CALLDATALOAD PUSH8 0xFFFFFFFFFFFFFFFF DUP1 DUP3 GT ISZERO PUSH2 0x82F JUMPI PUSH1 0x0 DUP1 REVERT JUMPDEST DUP2 DUP7 ADD SWAP2 POP DUP7 PUSH1 0x1F DUP4 ADD SLT PUSH2 0x843 JUMPI PUSH1 0x0 DUP1 REVERT JUMPDEST DUP2 CALLDATALOAD DUP2 DUP2 GT ISZERO PUSH2 0x855 JUMPI PUSH2 0x855 PUSH2 0x7E6 JUMP JUMPDEST DUP1 PUSH1 0x5 SHL PUSH1 0x40 MLOAD PUSH1 0x1F NOT PUSH1 0x3F DUP4 ADD AND DUP2 ADD DUP2 DUP2 LT DUP6 DUP3 GT OR ISZERO PUSH2 0x87A JUMPI PUSH2 0x87A PUSH2 0x7E6 JUMP JUMPDEST PUSH1 0x40 MSTORE SWAP2 DUP3 MSTORE DUP5 DUP3 ADD SWAP3 POP DUP4 DUP2 ADD DUP6 ADD SWAP2 DUP10 DUP4 GT ISZERO PUSH2 0x898 JUMPI PUSH1 0x0 DUP1 REVERT JUMPDEST SWAP4 DUP6 ADD SWAP4 JUMPDEST DUP3 DUP6 LT ISZERO PUSH2 0x8B6 JUMPI DUP5 CALLDATALOAD DUP5 MSTORE SWAP4 DUP6 ADD SWAP4 SWAP3 DUP6 ADD SWAP3 PUSH2 0x89D JUMP JUMPDEST DUP1 SWAP7 POP POP POP POP POP POP POP SWAP3 POP SWAP3 SWAP1 POP JUMP JUMPDEST PUSH1 0x0 PUSH1 0x20 DUP3 DUP5 SUB SLT ISZERO PUSH2 0x8D8 JUMPI PUSH1 0x0 DUP1 REVERT JUMPDEST POP CALLDATALOAD SWAP2 SWAP1 POP JUMP JUMPDEST PUSH4 0x4E487B71 PUSH1 0xE0 SHL PUSH1 0x0 MSTORE PUSH1 0x21 PUSH1 0x4 MSTORE PUSH1 0x24 PUSH1 0x0 REVERT JUMPDEST PUSH1 0x0 PUSH1 0x20 DUP3 DUP5 SUB SLT ISZERO PUSH2 0x907 JUMPI PUSH1 0x0 DUP1 REVERT JUMPDEST POP MLOAD SWAP2 SWAP1 POP JUMP JUMPDEST PUSH4 0x4E487B71 PUSH1 0xE0 SHL PUSH1 0x0 MSTORE PUSH1 0x32 PUSH1 0x4 MSTORE PUSH1 0x24 PUSH1 0x0 REVERT JUMPDEST PUSH1 0x0 DUP3 PUSH2 0x941 JUMPI PUSH4 0x4E487B71 PUSH1 0xE0 SHL PUSH1 0x0 MSTORE PUSH1 0x12 PUSH1 0x4 MSTORE PUSH1 0x24 PUSH1 0x0 REVERT JUMPDEST POP MOD SWAP1 JUMP JUMPDEST PUSH1 0x20 DUP1 DUP3 MSTORE DUP3 MLOAD DUP3 DUP3 ADD DUP2 SWAP1 MSTORE PUSH1 0x0 SWAP2 SWAP1 DUP5 DUP3 ADD SWAP1 PUSH1 0x40 DUP6 ADD SWAP1 DUP5 JUMPDEST DUP2 DUP2 LT ISZERO PUSH2 0x97E JUMPI DUP4 MLOAD DUP4 MSTORE SWAP3 DUP5 ADD SWAP3 SWAP2 DUP5 ADD SWAP2 PUSH1 0x1 ADD PUSH2 0x962 JUMP JUMPDEST POP SWAP1 SWAP7 SWAP6 POP POP POP POP POP POP JUMP JUMPDEST PUSH1 0x0 DUP3 DUP3 LT ISZERO PUSH2 0x9AA JUMPI PUSH4 0x4E487B71 PUSH1 0xE0 SHL PUSH1 0x0 MSTORE PUSH1 0x11 PUSH1 0x4 MSTORE PUSH1 0x24 PUSH1 0x0 REVERT JUMPDEST POP SUB SWAP1 JUMP INVALID LOG2 PUSH5 0x6970667358 0x22 SLT KECCAK256 0xEE STOP 0xBE 0xEE 0x28 SWAP12 PUSH10 0x6AC860C6FB8711D9F101 0xC2 0x4D 0xF8 ISZERO 0xEF EXTCODESIZE DUP3 0x2D 0xF7 CALLDATALOAD DUP11 JUMPDEST DUP4 ADD 0xB9 PUSH5 0x736F6C6343 STOP ADDMOD 0xD STOP CALLER ","sha1":"e7f80c7920e976186272f6d35952b5ff0b5fb85d","source":"// SPDX-License-Identifier: MIT\n\npragma solidity ^0.8.7;\n\nimport \"@chainlink/contracts/src/v0.8/interfaces/LinkTokenInterface.sol\";\nimport \"@chainlink/contracts/src/v0.8/interfaces/VRFCoordinatorV2Interface.sol\";\nimport \"@chainlink/contracts/src/v0.8/VRFConsumerBaseV2.sol\";\n\nerror Game_SendMoreToEnterGame();\nerror Game_TransferFailed();\n\ncontract handGame is VRFConsumerBaseV2 {\n    //1. Player enters the game paying a fee\n    //2. Computer picks a random type out of 3 (Rock, paper or Scissor) using VRF\n    //3. Player picks a type\n    //4. Compare computer and player type and select winner based on Rock, paper, Scissor winning pairs\n\n    VRFCoordinatorV2Interface immutable COORDINATOR;\n    LinkTokenInterface immutable LINKTOKEN;\n\n    // Your subscription ID.\n    uint64 immutable s_subscriptionId;\n\n    // The gas lane to use, which specifies the maximum gas price to bump to.\n    // For a list of available gas lanes on each network,\n    // see https://docs.chain.link/docs/vrf-contracts/#configurations\n    bytes32 immutable s_keyHash;\n\n    // Depends on the number of requested values that you want sent to the\n    // fulfillRandomWords() function. Storing each word costs about 20,000 gas,\n    // so 100,000 is a safe default for this example contract. Test and adjust\n    // this limit based on the network that you select, the size of the request,\n    // and the processing of the callback request in the fulfillRandomWords()\n    // function.\n    uint32 immutable s_callbackGasLimit = 100000;\n\n    // The default is 3, but you can set this higher.\n    uint16 immutable s_requestConfirmations = 3;\n\n    // For this example, retrieve 2 random values in one request.\n    // Cannot exceed VRFCoordinatorV2.MAX_NUM_WORDS.\n    uint32 immutable s_numWords = 1;\n\n    uint256[] public s_randomWords;\n    uint256 public s_requestId;\n    address s_owner;\n\n    // Game variables\n\n    enum Hand {\n        ROCK,\n        PAPER,\n        SCISSORS\n    }\n    uint256 private i_entranceFee;\n    address payable[] private s_players;\n    address payable private winner;\n    mapping(address => Hand) private playerPick;\n    mapping(address => uint256) private addressToAmountFunded;\n    mapping(uint256 => address) private requestIdToPlayer;\n\n    // Events\n\n    event GameEntry(address indexed player);\n\n    event ReturnedRandomness(uint256[] randomWords);\n\n    constructor(\n        uint64 subscriptionId,\n        address vrfCoordinator,\n        address link,\n        bytes32 keyHash,\n        uint256 entranceFee\n    ) VRFConsumerBaseV2(vrfCoordinator) {\n        COORDINATOR = VRFCoordinatorV2Interface(vrfCoordinator);\n        LINKTOKEN = LinkTokenInterface(link);\n        s_keyHash = keyHash;\n        s_owner = msg.sender;\n        s_subscriptionId = subscriptionId;\n        i_entranceFee = entranceFee;\n    }\n\n    /**\n     * @notice Requests randomness\n     * Assumes the subscription is funded sufficiently; \"Words\" refers to unit of data in Computer Science\n     */\n\n    function enterGame() public payable {\n        if (msg.value < i_entranceFee) {\n            revert Game_SendMoreToEnterGame();\n        }\n        s_players.push(payable(msg.sender));\n        addressToAmountFunded[msg.sender] = msg.value;\n        emit GameEntry(msg.sender);\n    }\n\n    function pickType(uint256 _hand) external returns (uint256) {\n        require(addressToAmountFunded[msg.sender] == i_entranceFee);\n        Hand hand = Hand(_hand);\n        playerPick[msg.sender] = hand;\n        s_requestId = COORDINATOR.requestRandomWords(\n            s_keyHash,\n            s_subscriptionId,\n            s_requestConfirmations,\n            s_callbackGasLimit,\n            s_numWords\n        );\n        requestIdToPlayer[s_requestId] = msg.sender;\n    }\n\n    /**\n     * @notice Callback function used by VRF Coordinator\n     *\n     * @param requestId - id of the request\n     * @param randomWords - array of random results from VRF Coordinator\n     */\n    function fulfillRandomWords(uint256 requestId, uint256[] memory randomWords)\n        internal\n        override\n    {\n        s_randomWords = randomWords;\n        Hand computerHand = Hand(s_randomWords[0] % 3);\n\n        emit ReturnedRandomness(randomWords);\n\n        // Check who is the winner\n        // Rock wins scissors (1 wins 3)\n        // Paper wins rock (2 wins 1)\n        // Scissors wins paper (3 wins 2)\n\n        if (playerPick[requestIdToPlayer[requestId]] == Hand.ROCK) {\n            if (computerHand == Hand.SCISSORS) {\n                winner = payable(requestIdToPlayer[requestId]);\n                (bool success, ) = winner.call{\n                    value: address(this).balance - i_entranceFee\n                }(\"\");\n                // require(success, \"Transfer failed\");\n                if (!success) {\n                    revert Game_TransferFailed();\n                }\n            }\n        }\n        if (playerPick[requestIdToPlayer[requestId]] == Hand.PAPER) {\n            if (computerHand == Hand.ROCK) {\n                winner = payable(requestIdToPlayer[requestId]);\n                (bool success, ) = winner.call{\n                    value: address(this).balance - i_entranceFee\n                }(\"\");\n                // require(success, \"Transfer failed\");\n                if (!success) {\n                    revert Game_TransferFailed();\n                }\n            }\n        }\n        if (playerPick[requestIdToPlayer[requestId]] == Hand.SCISSORS) {\n            if (computerHand == Hand.PAPER) {\n                winner = payable(requestIdToPlayer[requestId]);\n                (bool success, ) = winner.call{\n                    value: address(this).balance - i_entranceFee\n                }(\"\");\n                // require(success, \"Transfer failed\");\n                if (!success) {\n                    revert Game_TransferFailed();\n                }\n            }\n        }\n    }\n\n    modifier onlyOwner() {\n        require(msg.sender == s_owner);\n        _;\n    }\n}\n","sourcePath":"contracts/handGame.sol","type":"contract","deployment":{"address":"0x402C45766Cc5F5c41Cc727805c487e058EfDD61C","chainid":"4","blockHeight":10742117}}