{"bytecode":"610180604052620186a06101205260036101405260016101605234801561002557600080fd5b50604051610b9f380380610b9f833981016040819052610044916100a9565b6001600160a01b03938416608081905260a0529190921660c05261010091909152600280546001600160a01b031916331790556001600160401b0390911660e05260035561010d565b80516001600160a01b03811681146100a457600080fd5b919050565b600080600080600060a086880312156100c157600080fd5b85516001600160401b03811681146100d857600080fd5b94506100e66020870161008d565b93506100f46040870161008d565b6060870151608090970151959894975095949392505050565b60805160a05160c05160e05161010051610120516101405161016051610a2961017660003960006103900152600061033c01526000610368015260006102e30152600061031201526000505060006103b701526000818161013001526101720152610a296000f3fe6080604052600436106100555760003560e01c80631fe543e31461005a578063218bd5771461007c578063dfbf53ae14610084578063e89e106a146100c1578063f6eaffc8146100e5578063ffa3cf8114610105575b600080fd5b34801561006657600080fd5b5061007a610075366004610840565b610125565b005b61007a6101b1565b34801561009057600080fd5b506005546100a4906001600160a01b031681565b6040516001600160a01b0390911681526020015b60405180910390f35b3480156100cd57600080fd5b506100d760015481565b6040519081526020016100b8565b3480156100f157600080fd5b506100d761010036600461090a565b61024d565b34801561011157600080fd5b506100d761012036600461090a565b61026e565b336001600160a01b037f000000000000000000000000000000000000000000000000000000000000000016146101a35760405163073e64fd60e21b81523360048201526001600160a01b037f000000000000000000000000000000000000000000000000000000000000000016602482015260440160405180910390fd5b6101ad8282610455565b5050565b6003543410156101d45760405163fbbd461960e01b815260040160405180910390fd5b60048054600181019091557f8a35acfbc15ff81a39ae7d344fd709f28e8600b4aa8c65c6b64bfe7fe36bd19b0180546001600160a01b03191633908117909155600081815260076020526040808220349055517f4856b94bff5e849eded76094e0152efe4b93efd25a8d75e10a73557e9bf983aa9190a2565b6000818154811061025d57600080fd5b600091825260209091200154905081565b6003543360009081526007602052604081205490911461028d57600080fd5b60008260028111156102a1576102a1610923565b3360009081526006602052604090208054919250829160ff191660018360028111156102cf576102cf610923565b02179055506040516305d3b1d360e41b81527f0000000000000000000000000000000000000000000000000000000000000000600482015267ffffffffffffffff7f000000000000000000000000000000000000000000000000000000000000000016602482015261ffff7f000000000000000000000000000000000000000000000000000000000000000016604482015263ffffffff7f0000000000000000000000000000000000000000000000000000000000000000811660648301527f00000000000000000000000000000000000000000000000000000000000000001660848201527f00000000000000000000000000000000000000000000000000000000000000006001600160a01b031690635d3b1d309060a4016020604051808303816000875af1158015610408573d6000803e3d6000fd5b505050506040513d601f19601f8201168201806040525081019061042c9190610939565b6001819055600090815260086020526040902080546001600160a01b0319163317905550919050565b80516104689060009060208401906107ca565b50600060036000808154811061048057610480610952565b90600052602060002001546104959190610968565b60028111156104a6576104a6610923565b90507fefb16d61046900da527008568620fb9f8420e2f5ed4de3bfbded5035c9362b0e826040516104d7919061098a565b60405180910390a16000838152600860209081526040808320546001600160a01b03168352600690915281205460ff16600281111561051857610518610923565b036105d557600281600281111561053157610531610923565b036105d557600083815260086020526040812054600580546001600160a01b0319166001600160a01b03909216918217905560035461057090476109ce565b604051600081818185875af1925050503d80600081146105ac576040519150601f19603f3d011682016040523d82523d6000602084013e6105b1565b606091505b50509050806105d35760405163211c310560e01b815260040160405180910390fd5b505b60016000848152600860209081526040808320546001600160a01b03168352600690915290205460ff16600281111561061057610610610923565b036106cd57600081600281111561062957610629610923565b036106cd57600083815260086020526040812054600580546001600160a01b0319166001600160a01b03909216918217905560035461066890476109ce565b604051600081818185875af1925050503d80600081146106a4576040519150601f19603f3d011682016040523d82523d6000602084013e6106a9565b606091505b50509050806106cb5760405163211c310560e01b815260040160405180910390fd5b505b60026000848152600860209081526040808320546001600160a01b03168352600690915290205460ff16600281111561070857610708610923565b036107c557600181600281111561072157610721610923565b036107c557600083815260086020526040812054600580546001600160a01b0319166001600160a01b03909216918217905560035461076090476109ce565b604051600081818185875af1925050503d806000811461079c576040519150601f19603f3d011682016040523d82523d6000602084013e6107a1565b606091505b50509050806107c35760405163211c310560e01b815260040160405180910390fd5b505b505050565b828054828255906000526020600020908101928215610805579160200282015b828111156108055782518255916020019190600101906107ea565b50610811929150610815565b5090565b5b808211156108115760008155600101610816565b634e487b7160e01b600052604160045260246000fd5b6000806040838503121561085357600080fd5b8235915060208084013567ffffffffffffffff8082111561087357600080fd5b818601915086601f83011261088757600080fd5b8135818111156108995761089961082a565b8060051b604051601f19603f830116810181811085821117156108be576108be61082a565b6040529182528482019250838101850191898311156108dc57600080fd5b938501935b828510156108fa578435845293850193928501926108e1565b8096505050505050509250929050565b60006020828403121561091c57600080fd5b5035919050565b634e487b7160e01b600052602160045260246000fd5b60006020828403121561094b57600080fd5b5051919050565b634e487b7160e01b600052603260045260246000fd5b60008261098557634e487b7160e01b600052601260045260246000fd5b500690565b6020808252825182820181905260009190848201906040850190845b818110156109c2578351835292840192918401916001016109a6565b50909695505050505050565b6000828210156109ee57634e487b7160e01b600052601160045260246000fd5b50039056fea2646970667358221220cfe210b9165eeb5f2f78ffa132b9389f1d76832f800b1799c331bbb2e7fa515e64736f6c634300080d0033","bytecodeSha1":"06e0c24d813b1f5368316967dec96fcfa8c9af70","type":"contract","abi":[{"inputs":[{"internalType":"uint64","name":"subscriptionId","type":"uint64"},{"internalType":"address","name":"vrfCoordinator","type":"address"},{"internalType":"address","name":"link","type":"address"},{"internalType":"bytes32","name":"keyHash","type":"bytes32"},{"internalType":"uint256","name":"entranceFee","type":"uint256"}],"stateMutability":"nonpayable","type":"constructor","name":"constructor"},{"inputs":[],"name":"Game_SendMoreToEnterGame","type":"error"},{"inputs":[],"name":"Game_TransferFailed","type":"error"},{"inputs":[{"internalType":"address","name":"have","type":"address"},{"internalType":"address","name":"want","type":"address"}],"name":"OnlyCoordinatorCanFulfill","type":"error"},{"anonymous":false,"inputs":[{"indexed":true,"internalType":"address","name":"player","type":"address"}],"name":"GameEntry","type":"event"},{"anonymous":false,"inputs":[{"indexed":false,"internalType":"uint256[]","name":"randomWords","type":"uint256[]"}],"name":"ReturnedRandomness","type":"event"},{"inputs":[],"name":"enterGame","outputs":[],"stateMutability":"payable","type":"function"},{"inputs":[{"internalType":"uint256","name":"_hand","type":"uint256"}],"name":"pickType","outputs":[{"internalType":"uint256","name":"","type":"uint256"}],"stateMutability":"nonpayable","type":"function"},{"inputs":[{"internalType":"uint256","name":"requestId","type":"uint256"},{"internalType":"uint256[]","name":"randomWords","type":"uint256[]"}],"name":"rawFulfillRandomWords","outputs":[],"stateMutability":"nonpayable","type":"function"},{"inputs":[{"internalType":"uint256","name":"","type":"uint256"}],"name":"s_randomWords","outputs":[{"internalType":"uint256","name":"","type":"uint256"}],"stateMutability":"view","type":"function"},{"inputs":[],"name":"s_requestId","outputs":[{"internalType":"uint256","name":"","type":"uint256"}],"stateMutability":"view","type":"function"},{"inputs":[],"name":"winner","outputs":[{"internalType":"address payable","name":"","type":"address"}],"stateMutability":"view","type":"function"}],"compiler":{"version":"0.8.13+commit.abaa5c0e","evm_version":"istanbul","optimizer":{"enabled":true,"runs":200}},"contractName":"handGame","language":"Solidity","natspec":{"methods":{"enterGame()":{"notice":"Requests randomness Assumes the subscription is funded sufficiently; \"Words\" refers to unit of data in Computer Science"}},"kind":"dev","version":1},"opcodes":"PUSH1 0x80 PUSH1 0x40 MSTORE PUSH1 0x4 CALLDATASIZE LT PUSH2 0x55 JUMPI PUSH1 0x0 CALLDATALOAD PUSH1 0xE0 SHR DUP1 PUSH4 0x1FE543E3 EQ PUSH2 0x5A JUMPI DUP1 PUSH4 0x218BD577 EQ PUSH2 0x7C JUMPI DUP1 PUSH4 0xDFBF53AE EQ PUSH2 0x84 JUMPI DUP1 PUSH4 0xE89E106A EQ PUSH2 0xC1 JUMPI DUP1 PUSH4 0xF6EAFFC8 EQ PUSH2 0xE5 JUMPI DUP1 PUSH4 0xFFA3CF81 EQ PUSH2 0x105 JUMPI JUMPDEST PUSH1 0x0 DUP1 REVERT JUMPDEST CALLVALUE DUP1 ISZERO PUSH2 0x66 JUMPI PUSH1 0x0 DUP1 REVERT JUMPDEST POP PUSH2 0x7A PUSH2 0x75 CALLDATASIZE PUSH1 0x4 PUSH2 0x840 JUMP JUMPDEST PUSH2 0x125 JUMP JUMPDEST STOP JUMPDEST PUSH2 0x7A PUSH2 0x1B1 JUMP JUMPDEST CALLVALUE DUP1 ISZERO PUSH2 0x90 JUMPI PUSH1 0x0 DUP1 REVERT JUMPDEST POP PUSH1 0x5 SLOAD PUSH2 0xA4 SWAP1 PUSH1 0x1 PUSH1 0x1 PUSH1 0xA0 SHL SUB AND DUP2 JUMP JUMPDEST PUSH1 0x40 MLOAD PUSH1 0x1 PUSH1 0x1 PUSH1 0xA0 SHL SUB SWAP1 SWAP2 AND DUP2 MSTORE PUSH1 0x20 ADD JUMPDEST PUSH1 0x40 MLOAD DUP1 SWAP2 SUB SWAP1 RETURN JUMPDEST CALLVALUE DUP1 ISZERO PUSH2 0xCD JUMPI PUSH1 0x0 DUP1 REVERT JUMPDEST POP PUSH2 0xD7 PUSH1 0x1 SLOAD DUP2 JUMP JUMPDEST PUSH1 0x40 MLOAD SWAP1 DUP2 MSTORE PUSH1 0x20 ADD PUSH2 0xB8 JUMP JUMPDEST CALLVALUE DUP1 ISZERO PUSH2 0xF1 JUMPI PUSH1 0x0 DUP1 REVERT JUMPDEST POP PUSH2 0xD7 PUSH2 0x100 CALLDATASIZE PUSH1 0x4 PUSH2 0x90A JUMP JUMPDEST PUSH2 0x24D JUMP JUMPDEST CALLVALUE DUP1 ISZERO PUSH2 0x111 JUMPI PUSH1 0x0 DUP1 REVERT JUMPDEST POP PUSH2 0xD7 PUSH2 0x120 CALLDATASIZE PUSH1 0x4 PUSH2 0x90A JUMP JUMPDEST PUSH2 0x26E JUMP JUMPDEST CALLER PUSH1 0x1 PUSH1 0x1 PUSH1 0xA0 SHL SUB PUSH32 0x0 AND EQ PUSH2 0x1A3 JUMPI PUSH1 0x40 MLOAD PUSH4 0x73E64FD PUSH1 0xE2 SHL DUP2 MSTORE CALLER PUSH1 0x4 DUP3 ADD MSTORE PUSH1 0x1 PUSH1 0x1 PUSH1 0xA0 SHL SUB PUSH32 0x0 AND PUSH1 0x24 DUP3 ADD MSTORE PUSH1 0x44 ADD PUSH1 0x40 MLOAD DUP1 SWAP2 SUB SWAP1 REVERT JUMPDEST PUSH2 0x1AD DUP3 DUP3 PUSH2 0x455 JUMP JUMPDEST POP POP JUMP JUMPDEST PUSH1 0x3 SLOAD CALLVALUE LT ISZERO PUSH2 0x1D4 JUMPI PUSH1 0x40 MLOAD PUSH4 0xFBBD4619 PUSH1 0xE0 SHL DUP2 MSTORE PUSH1 0x4 ADD PUSH1 0x40 MLOAD DUP1 SWAP2 SUB SWAP1 REVERT JUMPDEST PUSH1 0x4 DUP1 SLOAD PUSH1 0x1 DUP2 ADD SWAP1 SWAP2 SSTORE PUSH32 0x8A35ACFBC15FF81A39AE7D344FD709F28E8600B4AA8C65C6B64BFE7FE36BD19B ADD DUP1 SLOAD PUSH1 0x1 PUSH1 0x1 PUSH1 0xA0 SHL SUB NOT AND CALLER SWAP1 DUP2 OR SWAP1 SWAP2 SSTORE PUSH1 0x0 DUP2 DUP2 MSTORE PUSH1 0x7 PUSH1 0x20 MSTORE PUSH1 0x40 DUP1 DUP3 KECCAK256 CALLVALUE SWAP1 SSTORE MLOAD PUSH32 0x4856B94BFF5E849EDED76094E0152EFE4B93EFD25A8D75E10A73557E9BF983AA SWAP2 SWAP1 LOG2 JUMP JUMPDEST PUSH1 0x0 DUP2 DUP2 SLOAD DUP2 LT PUSH2 0x25D JUMPI PUSH1 0x0 DUP1 REVERT JUMPDEST PUSH1 0x0 SWAP2 DUP3 MSTORE PUSH1 0x20 SWAP1 SWAP2 KECCAK256 ADD SLOAD SWAP1 POP DUP2 JUMP JUMPDEST PUSH1 0x3 SLOAD CALLER PUSH1 0x0 SWAP1 DUP2 MSTORE PUSH1 0x7 PUSH1 0x20 MSTORE PUSH1 0x40 DUP2 KECCAK256 SLOAD SWAP1 SWAP2 EQ PUSH2 0x28D JUMPI PUSH1 0x0 DUP1 REVERT JUMPDEST PUSH1 0x0 DUP3 PUSH1 0x2 DUP2 GT ISZERO PUSH2 0x2A1 JUMPI PUSH2 0x2A1 PUSH2 0x923 JUMP JUMPDEST CALLER PUSH1 0x0 SWAP1 DUP2 MSTORE PUSH1 0x6 PUSH1 0x20 MSTORE PUSH1 0x40 SWAP1 KECCAK256 DUP1 SLOAD SWAP2 SWAP3 POP DUP3 SWAP2 PUSH1 0xFF NOT AND PUSH1 0x1 DUP4 PUSH1 0x2 DUP2 GT ISZERO PUSH2 0x2CF JUMPI PUSH2 0x2CF PUSH2 0x923 JUMP JUMPDEST MUL OR SWAP1 SSTORE POP PUSH1 0x40 MLOAD PUSH4 0x5D3B1D3 PUSH1 0xE4 SHL DUP2 MSTORE PUSH32 0x0 PUSH1 0x4 DUP3 ADD MSTORE PUSH8 0xFFFFFFFFFFFFFFFF PUSH32 0x0 AND PUSH1 0x24 DUP3 ADD MSTORE PUSH2 0xFFFF PUSH32 0x0 AND PUSH1 0x44 DUP3 ADD MSTORE PUSH4 0xFFFFFFFF PUSH32 0x0 DUP2 AND PUSH1 0x64 DUP4 ADD MSTORE PUSH32 0x0 AND PUSH1 0x84 DUP3 ADD MSTORE PUSH32 0x0 PUSH1 0x1 PUSH1 0x1 PUSH1 0xA0 SHL SUB AND SWAP1 PUSH4 0x5D3B1D30 SWAP1 PUSH1 0xA4 ADD PUSH1 0x20 PUSH1 0x40 MLOAD DUP1 DUP4 SUB DUP2 PUSH1 0x0 DUP8 GAS CALL ISZERO DUP1 ISZERO PUSH2 0x408 JUMPI RETURNDATASIZE PUSH1 0x0 DUP1 RETURNDATACOPY RETURNDATASIZE PUSH1 0x0 REVERT JUMPDEST POP POP POP POP PUSH1 0x40 MLOAD RETURNDATASIZE PUSH1 0x1F NOT PUSH1 0x1F DUP3 ADD AND DUP3 ADD DUP1 PUSH1 0x40 MSTORE POP DUP2 ADD SWAP1 PUSH2 0x42C SWAP2 SWAP1 PUSH2 0x939 JUMP JUMPDEST PUSH1 0x1 DUP2 SWAP1 SSTORE PUSH1 0x0 SWAP1 DUP2 MSTORE PUSH1 0x8 PUSH1 0x20 MSTORE PUSH1 0x40 SWAP1 KECCAK256 DUP1 SLOAD PUSH1 0x1 PUSH1 0x1 PUSH1 0xA0 SHL SUB NOT AND CALLER OR SWAP1 SSTORE POP SWAP2 SWAP1 POP JUMP JUMPDEST DUP1 MLOAD PUSH2 0x468 SWAP1 PUSH1 0x0 SWAP1 PUSH1 0x20 DUP5 ADD SWAP1 PUSH2 0x7CA JUMP JUMPDEST POP PUSH1 0x0 PUSH1 0x3 PUSH1 0x0 DUP1 DUP2 SLOAD DUP2 LT PUSH2 0x480 JUMPI PUSH2 0x480 PUSH2 0x952 JUMP JUMPDEST SWAP1 PUSH1 0x0 MSTORE PUSH1 0x20 PUSH1 0x0 KECCAK256 ADD SLOAD PUSH2 0x495 SWAP2 SWAP1 PUSH2 0x968 JUMP JUMPDEST PUSH1 0x2 DUP2 GT ISZERO PUSH2 0x4A6 JUMPI PUSH2 0x4A6 PUSH2 0x923 JUMP JUMPDEST SWAP1 POP PUSH32 0xEFB16D61046900DA527008568620FB9F8420E2F5ED4DE3BFBDED5035C9362B0E DUP3 PUSH1 0x40 MLOAD PUSH2 0x4D7 SWAP2 SWAP1 PUSH2 0x98A JUMP JUMPDEST PUSH1 0x40 MLOAD DUP1 SWAP2 SUB SWAP1 LOG1 PUSH1 0x0 DUP4 DUP2 MSTORE PUSH1 0x8 PUSH1 0x20 SWAP1 DUP2 MSTORE PUSH1 0x40 DUP1 DUP4 KECCAK256 SLOAD PUSH1 0x1 PUSH1 0x1 PUSH1 0xA0 SHL SUB AND DUP4 MSTORE PUSH1 0x6 SWAP1 SWAP2 MSTORE DUP2 KECCAK256 SLOAD PUSH1 0xFF AND PUSH1 0x2 DUP2 GT ISZERO PUSH2 0x518 JUMPI PUSH2 0x518 PUSH2 0x923 JUMP JUMPDEST SUB PUSH2 0x5D5 JUMPI PUSH1 0x2 DUP2 PUSH1 0x2 DUP2 GT ISZERO PUSH2 0x531 JUMPI PUSH2 0x531 PUSH2 0x923 JUMP JUMPDEST SUB PUSH2 0x5D5 JUMPI PUSH1 0x0 DUP4 DUP2 MSTORE PUSH1 0x8 PUSH1 0x20 MSTORE PUSH1 0x40 DUP2 KECCAK256 SLOAD PUSH1 0x5 DUP1 SLOAD PUSH1 0x1 PUSH1 0x1 PUSH1 0xA0 SHL SUB NOT AND PUSH1 0x1 PUSH1 0x1 PUSH1 0xA0 SHL SUB SWAP1 SWAP3 AND SWAP2 DUP3 OR SWAP1 SSTORE PUSH1 0x3 SLOAD PUSH2 0x570 SWAP1 SELFBALANCE PUSH2 0x9CE JUMP JUMPDEST PUSH1 0x40 MLOAD PUSH1 0x0 DUP2 DUP2 DUP2 DUP6 DUP8 GAS CALL SWAP3 POP POP POP RETURNDATASIZE DUP1 PUSH1 0x0 DUP2 EQ PUSH2 0x5AC JUMPI PUSH1 0x40 MLOAD SWAP2 POP PUSH1 0x1F NOT PUSH1 0x3F RETURNDATASIZE ADD AND DUP3 ADD PUSH1 0x40 MSTORE RETURNDATASIZE DUP3 MSTORE RETURNDATASIZE PUSH1 0x0 PUSH1 0x20 DUP5 ADD RETURNDATACOPY PUSH2 0x5B1 JUMP JUMPDEST PUSH1 0x60 SWAP2 POP JUMPDEST POP POP SWAP1 POP DUP1 PUSH2 0x5D3 JUMPI PUSH1 0x40 MLOAD PUSH4 0x211C3105 PUSH1 0xE0 SHL DUP2 MSTORE PUSH1 0x4 ADD PUSH1 0x40 MLOAD DUP1 SWAP2 SUB SWAP1 REVERT JUMPDEST POP JUMPDEST PUSH1 0x1 PUSH1 0x0 DUP5 DUP2 MSTORE PUSH1 0x8 PUSH1 0x20 SWAP1 DUP2 MSTORE PUSH1 0x40 DUP1 DUP4 KECCAK256 SLOAD PUSH1 0x1 PUSH1 0x1 PUSH1 0xA0 SHL SUB AND DUP4 MSTORE PUSH1 0x6 SWAP1 SWAP2 MSTORE SWAP1 KECCAK256 SLOAD PUSH1 0xFF AND PUSH1 0x2 DUP2 GT ISZERO PUSH2 0x610 JUMPI PUSH2 0x610 PUSH2 0x923 JUMP JUMPDEST SUB PUSH2 0x6CD JUMPI PUSH1 0x0 DUP2 PUSH1 0x2 DUP2 GT ISZERO PUSH2 0x629 JUMPI PUSH2 0x629 PUSH2 0x923 JUMP JUMPDEST SUB PUSH2 0x6CD JUMPI PUSH1 0x0 DUP4 DUP2 MSTORE PUSH1 0x8 PUSH1 0x20 MSTORE PUSH1 0x40 DUP2 KECCAK256 SLOAD PUSH1 0x5 DUP1 SLOAD PUSH1 0x1 PUSH1 0x1 PUSH1 0xA0 SHL SUB NOT AND PUSH1 0x1 PUSH1 0x1 PUSH1 0xA0 SHL SUB SWAP1 SWAP3 AND SWAP2 DUP3 OR SWAP1 SSTORE PUSH1 0x3 SLOAD PUSH2 0x668 SWAP1 SELFBALANCE PUSH2 0x9CE JUMP JUMPDEST PUSH1 0x40 MLOAD PUSH1 0x0 DUP2 DUP2 DUP2 DUP6 DUP8 GAS CALL SWAP3 POP POP POP RETURNDATASIZE DUP1 PUSH1 0x0 DUP2 EQ PUSH2 0x6A4 JUMPI PUSH1 0x40 MLOAD SWAP2 POP PUSH1 0x1F NOT PUSH1 0x3F RETURNDATASIZE ADD AND DUP3 ADD PUSH1 0x40 MSTORE RETURNDATASIZE DUP3 MSTORE RETURNDATASIZE PUSH1 0x0 PUSH1 0x20 DUP5 ADD RETURNDATACOPY PUSH2 0x6A9 JUMP JUMPDEST PUSH1 0x60 SWAP2 POP JUMPDEST POP POP SWAP1 POP DUP1 PUSH2 0x6CB JUMPI PUSH1 0x40 MLOAD PUSH4 0x211C3105 PUSH1 0xE0 SHL DUP2 MSTORE PUSH1 0x4 ADD PUSH1 0x40 MLOAD DUP1 SWAP2 SUB SWAP1 REVERT JUMPDEST POP JUMPDEST PUSH1 0x2 PUSH1 0x0 DUP5 DUP2 MSTORE PUSH1 0x8 PUSH1 0x20 SWAP1 DUP2 MSTORE PUSH1 0x40 DUP1 DUP4 KECCAK256 SLOAD PUSH1 0x1 PUSH1 0x1 PUSH1 0xA0 SHL SUB AND DUP4 MSTORE PUSH1 0x6 SWAP1 SWAP2 MSTORE SWAP1 KECCAK256 SLOAD PUSH1 0xFF AND PUSH1 0x2 DUP2 GT ISZERO PUSH2 0x708 JUMPI PUSH2 0x708 PUSH2 0x923 JUMP JUMPDEST SUB PUSH2 0x7C5 JUMPI PUSH1 0x1 DUP2 PUSH1 0x2 DUP2 GT ISZERO PUSH2 0x721 JUMPI PUSH2 0x721 PUSH2 0x923 JUMP JUMPDEST SUB PUSH2 0x7C5 JUMPI PUSH1 0x0 DUP4 DUP2 MSTORE PUSH1 0x8 PUSH1 0x20 MSTORE PUSH1 0x40 DUP2 KECCAK256 SLOAD PUSH1 0x5 DUP1 SLOAD PUSH1 0x1 PUSH1 0x1 PUSH1 0xA0 SHL SUB NOT AND PUSH1 0x1 PUSH1 0x1 PUSH1 0xA0 SHL SUB SWAP1 SWAP3 AND SWAP2 DUP3 OR SWAP1 SSTORE PUSH1 0x3 SLOAD PUSH2 0x760 SWAP1 SELFBALANCE PUSH2 0x9CE JUMP JUMPDEST PUSH1 0x40 MLOAD PUSH1 0x0 DUP2 DUP2 DUP2 DUP6 DUP8 GAS CALL SWAP3 POP POP POP RETURNDATASIZE DUP1 PUSH1 0x0 DUP2 EQ PUSH2 0x79C JUMPI PUSH1 0x40 MLOAD SWAP2 POP PUSH1 0x1F NOT PUSH1 0x3F RETURNDATASIZE ADD AND DUP3 ADD PUSH1 0x40 MSTORE RETURNDATASIZE DUP3 MSTORE RETURNDATASIZE PUSH1 0x0 PUSH1 0x20 DUP5 ADD RETURNDATACOPY PUSH2 0x7A1 JUMP JUMPDEST PUSH1 0x60 SWAP2 POP JUMPDEST POP POP SWAP1 POP DUP1 PUSH2 0x7C3 JUMPI PUSH1 0x40 MLOAD PUSH4 0x211C3105 PUSH1 0xE0 SHL DUP2 MSTORE PUSH1 0x4 ADD PUSH1 0x40 MLOAD DUP1 SWAP2 SUB SWAP1 REVERT JUMPDEST POP JUMPDEST POP POP POP JUMP JUMPDEST DUP3 DUP1 SLOAD DUP3 DUP3 SSTORE SWAP1 PUSH1 0x0 MSTORE PUSH1 0x20 PUSH1 0x0 KECCAK256 SWAP1 DUP2 ADD SWAP3 DUP3 ISZERO PUSH2 0x805 JUMPI SWAP2 PUSH1 0x20 MUL DUP3 ADD JUMPDEST DUP3 DUP2 GT ISZERO PUSH2 0x805 JUMPI DUP3 MLOAD DUP3 SSTORE SWAP2 PUSH1 0x20 ADD SWAP2 SWAP1 PUSH1 0x1 ADD SWAP1 PUSH2 0x7EA JUMP JUMPDEST POP PUSH2 0x811 SWAP3 SWAP2 POP PUSH2 0x815 JUMP JUMPDEST POP SWAP1 JUMP JUMPDEST JUMPDEST DUP1 DUP3 GT ISZERO PUSH2 0x811 JUMPI PUSH1 0x0 DUP2 SSTORE PUSH1 0x1 ADD PUSH2 0x816 JUMP JUMPDEST PUSH4 0x4E487B71 PUSH1 0xE0 SHL PUSH1 0x0 MSTORE PUSH1 0x41 PUSH1 0x4 MSTORE PUSH1 0x24 PUSH1 0x0 REVERT JUMPDEST PUSH1 0x0 DUP1 PUSH1 0x40 DUP4 DUP6 SUB SLT ISZERO PUSH2 0x853 JUMPI PUSH1 0x0 DUP1 REVERT JUMPDEST DUP3 CALLDATALOAD SWAP2 POP PUSH1 0x20 DUP1 DUP5 ADD CALLDATALOAD PUSH8 0xFFFFFFFFFFFFFFFF DUP1 DUP3 GT ISZERO PUSH2 0x873 JUMPI PUSH1 0x0 DUP1 REVERT JUMPDEST DUP2 DUP7 ADD SWAP2 POP DUP7 PUSH1 0x1F DUP4 ADD SLT PUSH2 0x887 JUMPI PUSH1 0x0 DUP1 REVERT JUMPDEST DUP2 CALLDATALOAD DUP2 DUP2 GT ISZERO PUSH2 0x899 JUMPI PUSH2 0x899 PUSH2 0x82A JUMP JUMPDEST DUP1 PUSH1 0x5 SHL PUSH1 0x40 MLOAD PUSH1 0x1F NOT PUSH1 0x3F DUP4 ADD AND DUP2 ADD DUP2 DUP2 LT DUP6 DUP3 GT OR ISZERO PUSH2 0x8BE JUMPI PUSH2 0x8BE PUSH2 0x82A JUMP JUMPDEST PUSH1 0x40 MSTORE SWAP2 DUP3 MSTORE DUP5 DUP3 ADD SWAP3 POP DUP4 DUP2 ADD DUP6 ADD SWAP2 DUP10 DUP4 GT ISZERO PUSH2 0x8DC JUMPI PUSH1 0x0 DUP1 REVERT JUMPDEST SWAP4 DUP6 ADD SWAP4 JUMPDEST DUP3 DUP6 LT ISZERO PUSH2 0x8FA JUMPI DUP5 CALLDATALOAD DUP5 MSTORE SWAP4 DUP6 ADD SWAP4 SWAP3 DUP6 ADD SWAP3 PUSH2 0x8E1 JUMP JUMPDEST DUP1 SWAP7 POP POP POP POP POP POP POP SWAP3 POP SWAP3 SWAP1 POP JUMP JUMPDEST PUSH1 0x0 PUSH1 0x20 DUP3 DUP5 SUB SLT ISZERO PUSH2 0x91C JUMPI PUSH1 0x0 DUP1 REVERT JUMPDEST POP CALLDATALOAD SWAP2 SWAP1 POP JUMP JUMPDEST PUSH4 0x4E487B71 PUSH1 0xE0 SHL PUSH1 0x0 MSTORE PUSH1 0x21 PUSH1 0x4 MSTORE PUSH1 0x24 PUSH1 0x0 REVERT JUMPDEST PUSH1 0x0 PUSH1 0x20 DUP3 DUP5 SUB SLT ISZERO PUSH2 0x94B JUMPI PUSH1 0x0 DUP1 REVERT JUMPDEST POP MLOAD SWAP2 SWAP1 POP JUMP JUMPDEST PUSH4 0x4E487B71 PUSH1 0xE0 SHL PUSH1 0x0 MSTORE PUSH1 0x32 PUSH1 0x4 MSTORE PUSH1 0x24 PUSH1 0x0 REVERT JUMPDEST PUSH1 0x0 DUP3 PUSH2 0x985 JUMPI PUSH4 0x4E487B71 PUSH1 0xE0 SHL PUSH1 0x0 MSTORE PUSH1 0x12 PUSH1 0x4 MSTORE PUSH1 0x24 PUSH1 0x0 REVERT JUMPDEST POP MOD SWAP1 JUMP JUMPDEST PUSH1 0x20 DUP1 DUP3 MSTORE DUP3 MLOAD DUP3 DUP3 ADD DUP2 SWAP1 MSTORE PUSH1 0x0 SWAP2 SWAP1 DUP5 DUP3 ADD SWAP1 PUSH1 0x40 DUP6 ADD SWAP1 DUP5 JUMPDEST DUP2 DUP2 LT ISZERO PUSH2 0x9C2 JUMPI DUP4 MLOAD DUP4 MSTORE SWAP3 DUP5 ADD SWAP3 SWAP2 DUP5 ADD SWAP2 PUSH1 0x1 ADD PUSH2 0x9A6 JUMP JUMPDEST POP SWAP1 SWAP7 SWAP6 POP POP POP POP POP POP JUMP JUMPDEST PUSH1 0x0 DUP3 DUP3 LT ISZERO PUSH2 0x9EE JUMPI PUSH4 0x4E487B71 PUSH1 0xE0 SHL PUSH1 0x0 MSTORE PUSH1 0x11 PUSH1 0x4 MSTORE PUSH1 0x24 PUSH1 0x0 REVERT JUMPDEST POP SUB SWAP1 JUMP INVALID LOG2 PUSH5 0x6970667358 0x22 SLT KECCAK256 0xCF 0xE2 LT 0xB9 AND 0x5E 0xEB 0x5F 0x2F PUSH25 0xFFA132B9389F1D76832F800B1799C331BBB2E7FA515E64736F PUSH13 0x634300080D0033000000000000 ","sha1":"188706ba6fd4fa048acfa9bebcaded93ba0cc3f7","source":"// SPDX-License-Identifier: MIT\n\npragma solidity ^0.8.7;\n\nimport \"@chainlink/contracts/src/v0.8/interfaces/LinkTokenInterface.sol\";\nimport \"@chainlink/contracts/src/v0.8/interfaces/VRFCoordinatorV2Interface.sol\";\nimport \"@chainlink/contracts/src/v0.8/VRFConsumerBaseV2.sol\";\n\nerror Game_SendMoreToEnterGame();\nerror Game_TransferFailed();\n\ncontract handGame is VRFConsumerBaseV2 {\n    //1. Player enters the game paying a fee\n    //2. Computer picks a random type out of 3 (Rock, paper or Scissor) using VRF\n    //3. Player picks a type\n    //4. Compare computer and player type and select winner based on Rock, paper, Scissor winning pairs\n\n    VRFCoordinatorV2Interface immutable COORDINATOR;\n    LinkTokenInterface immutable LINKTOKEN;\n\n    // Your subscription ID.\n    uint64 immutable s_subscriptionId;\n\n    // The gas lane to use, which specifies the maximum gas price to bump to.\n    // For a list of available gas lanes on each network,\n    // see https://docs.chain.link/docs/vrf-contracts/#configurations\n    bytes32 immutable s_keyHash;\n\n    // Depends on the number of requested values that you want sent to the\n    // fulfillRandomWords() function. Storing each word costs about 20,000 gas,\n    // so 100,000 is a safe default for this example contract. Test and adjust\n    // this limit based on the network that you select, the size of the request,\n    // and the processing of the callback request in the fulfillRandomWords()\n    // function.\n    uint32 immutable s_callbackGasLimit = 100000;\n\n    // The default is 3, but you can set this higher.\n    uint16 immutable s_requestConfirmations = 3;\n\n    // For this example, retrieve 2 random values in one request.\n    // Cannot exceed VRFCoordinatorV2.MAX_NUM_WORDS.\n    uint32 immutable s_numWords = 1;\n\n    uint256[] public s_randomWords;\n    uint256 public s_requestId;\n    address s_owner;\n\n    // Game variables\n\n    enum Hand {\n        ROCK,\n        PAPER,\n        SCISSORS\n    }\n    uint256 private i_entranceFee;\n    address payable[] private s_players;\n    address payable public winner;\n    mapping(address => Hand) private playerPick;\n    mapping(address => uint256) private addressToAmountFunded;\n    mapping(uint256 => address) private requestIdToPlayer;\n\n    // Events\n\n    event GameEntry(address indexed player);\n\n    event ReturnedRandomness(uint256[] randomWords);\n\n    constructor(\n        uint64 subscriptionId,\n        address vrfCoordinator,\n        address link,\n        bytes32 keyHash,\n        uint256 entranceFee\n    ) VRFConsumerBaseV2(vrfCoordinator) {\n        COORDINATOR = VRFCoordinatorV2Interface(vrfCoordinator);\n        LINKTOKEN = LinkTokenInterface(link);\n        s_keyHash = keyHash;\n        s_owner = msg.sender;\n        s_subscriptionId = subscriptionId;\n        i_entranceFee = entranceFee;\n    }\n\n    /**\n     * @notice Requests randomness\n     * Assumes the subscription is funded sufficiently; \"Words\" refers to unit of data in Computer Science\n     */\n\n    function enterGame() public payable {\n        if (msg.value < i_entranceFee) {\n            revert Game_SendMoreToEnterGame();\n        }\n        s_players.push(payable(msg.sender));\n        addressToAmountFunded[msg.sender] = msg.value;\n        emit GameEntry(msg.sender);\n    }\n\n    function pickType(uint256 _hand) external returns (uint256) {\n        require(addressToAmountFunded[msg.sender] == i_entranceFee);\n        Hand hand = Hand(_hand);\n        playerPick[msg.sender] = hand;\n        s_requestId = COORDINATOR.requestRandomWords(\n            s_keyHash,\n            s_subscriptionId,\n            s_requestConfirmations,\n            s_callbackGasLimit,\n            s_numWords\n        );\n        requestIdToPlayer[s_requestId] = msg.sender;\n    }\n\n    /**\n     * @notice Callback function used by VRF Coordinator\n     *\n     * @param requestId - id of the request\n     * @param randomWords - array of random results from VRF Coordinator\n     */\n    function fulfillRandomWords(uint256 requestId, uint256[] memory randomWords)\n        internal\n        override\n    {\n        s_randomWords = randomWords;\n        Hand computerHand = Hand(s_randomWords[0] % 3);\n\n        emit ReturnedRandomness(randomWords);\n\n        // Check who is the winner\n        // Rock wins scissors (1 wins 3)\n        // Paper wins rock (2 wins 1)\n        // Scissors wins paper (3 wins 2)\n\n        if (playerPick[requestIdToPlayer[requestId]] == Hand.ROCK) {\n            if (computerHand == Hand.SCISSORS) {\n                winner = payable(requestIdToPlayer[requestId]);\n                (bool success, ) = winner.call{\n                    value: address(this).balance - i_entranceFee\n                }(\"\");\n                // require(success, \"Transfer failed\");\n                if (!success) {\n                    revert Game_TransferFailed();\n                }\n            }\n        }\n        if (playerPick[requestIdToPlayer[requestId]] == Hand.PAPER) {\n            if (computerHand == Hand.ROCK) {\n                winner = payable(requestIdToPlayer[requestId]);\n                (bool success, ) = winner.call{\n                    value: address(this).balance - i_entranceFee\n                }(\"\");\n                // require(success, \"Transfer failed\");\n                if (!success) {\n                    revert Game_TransferFailed();\n                }\n            }\n        }\n        if (playerPick[requestIdToPlayer[requestId]] == Hand.SCISSORS) {\n            if (computerHand == Hand.PAPER) {\n                winner = payable(requestIdToPlayer[requestId]);\n                (bool success, ) = winner.call{\n                    value: address(this).balance - i_entranceFee\n                }(\"\");\n                // require(success, \"Transfer failed\");\n                if (!success) {\n                    revert Game_TransferFailed();\n                }\n            }\n        }\n    }\n\n    modifier onlyOwner() {\n        require(msg.sender == s_owner);\n        _;\n    }\n}\n","sourcePath":"contracts/handGame.sol","deployment":{"address":"0xBdB9a6088d9193b3216f08591e93Ba6777AfC153","chainid":"4","blockHeight":10742142}}