{"bytecode":"610180604052620186a06101205260036101405260016101605234801561002557600080fd5b50604051610c4d380380610c4d833981016040819052610044916100a9565b6001600160a01b03938416608081905260a0529190921660c05261010091909152600280546001600160a01b031916331790556001600160401b0390911660e05260035561010d565b80516001600160a01b03811681146100a457600080fd5b919050565b600080600080600060a086880312156100c157600080fd5b85516001600160401b03811681146100d857600080fd5b94506100e66020870161008d565b93506100f46040870161008d565b6060870151608090970151959894975095949392505050565b60805160a05160c05160e05161010051610120516101405161016051610ad761017660003960006103d601526000610382015260006103ae015260006103290152600061035801526000505060006103fd01526000818161017601526101b80152610ad76000f3fe6080604052600436106100705760003560e01c8063dfbf53ae1161004e578063dfbf53ae146100cf578063e89e106a14610107578063f6eaffc81461012b578063ffa3cf811461014b57600080fd5b80631fe543e314610075578063218bd57714610097578063c9d9cc691461009f575b600080fd5b34801561008157600080fd5b506100956100903660046108c6565b61016b565b005b6100956101f7565b3480156100ab57600080fd5b506009546100b99060ff1681565b6040516100c691906109a6565b60405180910390f35b3480156100db57600080fd5b506005546100ef906001600160a01b031681565b6040516001600160a01b0390911681526020016100c6565b34801561011357600080fd5b5061011d60015481565b6040519081526020016100c6565b34801561013757600080fd5b5061011d6101463660046109ce565b610293565b34801561015757600080fd5b5061011d6101663660046109ce565b6102b4565b336001600160a01b037f000000000000000000000000000000000000000000000000000000000000000016146101e95760405163073e64fd60e21b81523360048201526001600160a01b037f000000000000000000000000000000000000000000000000000000000000000016602482015260440160405180910390fd5b6101f3828261049b565b5050565b60035434101561021a5760405163fbbd461960e01b815260040160405180910390fd5b60048054600181019091557f8a35acfbc15ff81a39ae7d344fd709f28e8600b4aa8c65c6b64bfe7fe36bd19b0180546001600160a01b03191633908117909155600081815260076020526040808220349055517f4856b94bff5e849eded76094e0152efe4b93efd25a8d75e10a73557e9bf983aa9190a2565b600081815481106102a357600080fd5b600091825260209091200154905081565b600354336000908152600760205260408120549091146102d357600080fd5b60008260028111156102e7576102e7610990565b3360009081526006602052604090208054919250829160ff1916600183600281111561031557610315610990565b02179055506040516305d3b1d360e41b81527f0000000000000000000000000000000000000000000000000000000000000000600482015267ffffffffffffffff7f000000000000000000000000000000000000000000000000000000000000000016602482015261ffff7f000000000000000000000000000000000000000000000000000000000000000016604482015263ffffffff7f0000000000000000000000000000000000000000000000000000000000000000811660648301527f00000000000000000000000000000000000000000000000000000000000000001660848201527f00000000000000000000000000000000000000000000000000000000000000006001600160a01b031690635d3b1d309060a4016020604051808303816000875af115801561044e573d6000803e3d6000fd5b505050506040513d601f19601f8201168201806040525081019061047291906109e7565b6001819055600090815260086020526040902080546001600160a01b0319163317905550919050565b80516104ae906000906020840190610850565b506003600080815481106104c4576104c4610a00565b90600052602060002001546104d99190610a16565b60028111156104ea576104ea610990565b6009805460ff1916600183600281111561050657610506610990565b02179055507fefb16d61046900da527008568620fb9f8420e2f5ed4de3bfbded5035c9362b0e8160405161053a9190610a38565b60405180910390a16000828152600860209081526040808320546001600160a01b03168352600690915281205460ff16600281111561057b5761057b610990565b0361063d57600260095460ff16600281111561059957610599610990565b0361063d57600082815260086020526040812054600580546001600160a01b0319166001600160a01b0390921691821790556003546105d89047610a7c565b604051600081818185875af1925050503d8060008114610614576040519150601f19603f3d011682016040523d82523d6000602084013e610619565b606091505b505090508061063b5760405163211c310560e01b815260040160405180910390fd5b505b60016000838152600860209081526040808320546001600160a01b03168352600690915290205460ff16600281111561067857610678610990565b0361073a57600060095460ff16600281111561069657610696610990565b0361073a57600082815260086020526040812054600580546001600160a01b0319166001600160a01b0390921691821790556003546106d59047610a7c565b604051600081818185875af1925050503d8060008114610711576040519150601f19603f3d011682016040523d82523d6000602084013e610716565b606091505b50509050806107385760405163211c310560e01b815260040160405180910390fd5b505b60026000838152600860209081526040808320546001600160a01b03168352600690915290205460ff16600281111561077557610775610990565b0361083a57600160095460ff16600281111561079357610793610990565b036101f357600082815260086020526040812054600580546001600160a01b0319166001600160a01b0390921691821790556003546107d29047610a7c565b604051600081818185875af1925050503d806000811461080e576040519150601f19603f3d011682016040523d82523d6000602084013e610813565b606091505b50509050806108355760405163211c310560e01b815260040160405180910390fd5b505050565b600580546001600160a01b031916301790555050565b82805482825590600052602060002090810192821561088b579160200282015b8281111561088b578251825591602001919060010190610870565b5061089792915061089b565b5090565b5b80821115610897576000815560010161089c565b634e487b7160e01b600052604160045260246000fd5b600080604083850312156108d957600080fd5b8235915060208084013567ffffffffffffffff808211156108f957600080fd5b818601915086601f83011261090d57600080fd5b81358181111561091f5761091f6108b0565b8060051b604051601f19603f83011681018181108582111715610944576109446108b0565b60405291825284820192508381018501918983111561096257600080fd5b938501935b8285101561098057843584529385019392850192610967565b8096505050505050509250929050565b634e487b7160e01b600052602160045260246000fd5b60208101600383106109c857634e487b7160e01b600052602160045260246000fd5b91905290565b6000602082840312156109e057600080fd5b5035919050565b6000602082840312156109f957600080fd5b5051919050565b634e487b7160e01b600052603260045260246000fd5b600082610a3357634e487b7160e01b600052601260045260246000fd5b500690565b6020808252825182820181905260009190848201906040850190845b81811015610a7057835183529284019291840191600101610a54565b50909695505050505050565b600082821015610a9c57634e487b7160e01b600052601160045260246000fd5b50039056fea264697066735822122049eeddc6c063ce9add7618680a349a6d10e7b1c3b9a9e948667ed74b00cf497364736f6c634300080d0033","bytecodeSha1":"b3cac240397d95e1b89532235e05c445b3f29cd8","type":"contract","abi":[{"inputs":[{"internalType":"uint64","name":"subscriptionId","type":"uint64"},{"internalType":"address","name":"vrfCoordinator","type":"address"},{"internalType":"address","name":"link","type":"address"},{"internalType":"bytes32","name":"keyHash","type":"bytes32"},{"internalType":"uint256","name":"entranceFee","type":"uint256"}],"stateMutability":"nonpayable","type":"constructor","name":"constructor"},{"inputs":[],"name":"Game_SendMoreToEnterGame","type":"error"},{"inputs":[],"name":"Game_TransferFailed","type":"error"},{"inputs":[{"internalType":"address","name":"have","type":"address"},{"internalType":"address","name":"want","type":"address"}],"name":"OnlyCoordinatorCanFulfill","type":"error"},{"anonymous":false,"inputs":[{"indexed":true,"internalType":"address","name":"player","type":"address"}],"name":"GameEntry","type":"event"},{"anonymous":false,"inputs":[{"indexed":false,"internalType":"uint256[]","name":"randomWords","type":"uint256[]"}],"name":"ReturnedRandomness","type":"event"},{"inputs":[],"name":"computerHand","outputs":[{"internalType":"enum handGame.Hand","name":"","type":"uint8"}],"stateMutability":"view","type":"function"},{"inputs":[],"name":"enterGame","outputs":[],"stateMutability":"payable","type":"function"},{"inputs":[{"internalType":"uint256","name":"_hand","type":"uint256"}],"name":"pickType","outputs":[{"internalType":"uint256","name":"","type":"uint256"}],"stateMutability":"nonpayable","type":"function"},{"inputs":[{"internalType":"uint256","name":"requestId","type":"uint256"},{"internalType":"uint256[]","name":"randomWords","type":"uint256[]"}],"name":"rawFulfillRandomWords","outputs":[],"stateMutability":"nonpayable","type":"function"},{"inputs":[{"internalType":"uint256","name":"","type":"uint256"}],"name":"s_randomWords","outputs":[{"internalType":"uint256","name":"","type":"uint256"}],"stateMutability":"view","type":"function"},{"inputs":[],"name":"s_requestId","outputs":[{"internalType":"uint256","name":"","type":"uint256"}],"stateMutability":"view","type":"function"},{"inputs":[],"name":"winner","outputs":[{"internalType":"address payable","name":"","type":"address"}],"stateMutability":"view","type":"function"}],"compiler":{"version":"0.8.13+commit.abaa5c0e","evm_version":"istanbul","optimizer":{"enabled":true,"runs":200}},"contractName":"handGame","language":"Solidity","natspec":{"methods":{"enterGame()":{"notice":"Requests randomness Assumes the subscription is funded sufficiently; \"Words\" refers to unit of data in Computer Science"}},"kind":"dev","version":1},"opcodes":"PUSH1 0x80 PUSH1 0x40 MSTORE PUSH1 0x4 CALLDATASIZE LT PUSH2 0x70 JUMPI PUSH1 0x0 CALLDATALOAD PUSH1 0xE0 SHR DUP1 PUSH4 0xDFBF53AE GT PUSH2 0x4E JUMPI DUP1 PUSH4 0xDFBF53AE EQ PUSH2 0xCF JUMPI DUP1 PUSH4 0xE89E106A EQ PUSH2 0x107 JUMPI DUP1 PUSH4 0xF6EAFFC8 EQ PUSH2 0x12B JUMPI DUP1 PUSH4 0xFFA3CF81 EQ PUSH2 0x14B JUMPI PUSH1 0x0 DUP1 REVERT JUMPDEST DUP1 PUSH4 0x1FE543E3 EQ PUSH2 0x75 JUMPI DUP1 PUSH4 0x218BD577 EQ PUSH2 0x97 JUMPI DUP1 PUSH4 0xC9D9CC69 EQ PUSH2 0x9F JUMPI JUMPDEST PUSH1 0x0 DUP1 REVERT JUMPDEST CALLVALUE DUP1 ISZERO PUSH2 0x81 JUMPI PUSH1 0x0 DUP1 REVERT JUMPDEST POP PUSH2 0x95 PUSH2 0x90 CALLDATASIZE PUSH1 0x4 PUSH2 0x8C6 JUMP JUMPDEST PUSH2 0x16B JUMP JUMPDEST STOP JUMPDEST PUSH2 0x95 PUSH2 0x1F7 JUMP JUMPDEST CALLVALUE DUP1 ISZERO PUSH2 0xAB JUMPI PUSH1 0x0 DUP1 REVERT JUMPDEST POP PUSH1 0x9 SLOAD PUSH2 0xB9 SWAP1 PUSH1 0xFF AND DUP2 JUMP JUMPDEST PUSH1 0x40 MLOAD PUSH2 0xC6 SWAP2 SWAP1 PUSH2 0x9A6 JUMP JUMPDEST PUSH1 0x40 MLOAD DUP1 SWAP2 SUB SWAP1 RETURN JUMPDEST CALLVALUE DUP1 ISZERO PUSH2 0xDB JUMPI PUSH1 0x0 DUP1 REVERT JUMPDEST POP PUSH1 0x5 SLOAD PUSH2 0xEF SWAP1 PUSH1 0x1 PUSH1 0x1 PUSH1 0xA0 SHL SUB AND DUP2 JUMP JUMPDEST PUSH1 0x40 MLOAD PUSH1 0x1 PUSH1 0x1 PUSH1 0xA0 SHL SUB SWAP1 SWAP2 AND DUP2 MSTORE PUSH1 0x20 ADD PUSH2 0xC6 JUMP JUMPDEST CALLVALUE DUP1 ISZERO PUSH2 0x113 JUMPI PUSH1 0x0 DUP1 REVERT JUMPDEST POP PUSH2 0x11D PUSH1 0x1 SLOAD DUP2 JUMP JUMPDEST PUSH1 0x40 MLOAD SWAP1 DUP2 MSTORE PUSH1 0x20 ADD PUSH2 0xC6 JUMP JUMPDEST CALLVALUE DUP1 ISZERO PUSH2 0x137 JUMPI PUSH1 0x0 DUP1 REVERT JUMPDEST POP PUSH2 0x11D PUSH2 0x146 CALLDATASIZE PUSH1 0x4 PUSH2 0x9CE JUMP JUMPDEST PUSH2 0x293 JUMP JUMPDEST CALLVALUE DUP1 ISZERO PUSH2 0x157 JUMPI PUSH1 0x0 DUP1 REVERT JUMPDEST POP PUSH2 0x11D PUSH2 0x166 CALLDATASIZE PUSH1 0x4 PUSH2 0x9CE JUMP JUMPDEST PUSH2 0x2B4 JUMP JUMPDEST CALLER PUSH1 0x1 PUSH1 0x1 PUSH1 0xA0 SHL SUB PUSH32 0x0 AND EQ PUSH2 0x1E9 JUMPI PUSH1 0x40 MLOAD PUSH4 0x73E64FD PUSH1 0xE2 SHL DUP2 MSTORE CALLER PUSH1 0x4 DUP3 ADD MSTORE PUSH1 0x1 PUSH1 0x1 PUSH1 0xA0 SHL SUB PUSH32 0x0 AND PUSH1 0x24 DUP3 ADD MSTORE PUSH1 0x44 ADD PUSH1 0x40 MLOAD DUP1 SWAP2 SUB SWAP1 REVERT JUMPDEST PUSH2 0x1F3 DUP3 DUP3 PUSH2 0x49B JUMP JUMPDEST POP POP JUMP JUMPDEST PUSH1 0x3 SLOAD CALLVALUE LT ISZERO PUSH2 0x21A JUMPI PUSH1 0x40 MLOAD PUSH4 0xFBBD4619 PUSH1 0xE0 SHL DUP2 MSTORE PUSH1 0x4 ADD PUSH1 0x40 MLOAD DUP1 SWAP2 SUB SWAP1 REVERT JUMPDEST PUSH1 0x4 DUP1 SLOAD PUSH1 0x1 DUP2 ADD SWAP1 SWAP2 SSTORE PUSH32 0x8A35ACFBC15FF81A39AE7D344FD709F28E8600B4AA8C65C6B64BFE7FE36BD19B ADD DUP1 SLOAD PUSH1 0x1 PUSH1 0x1 PUSH1 0xA0 SHL SUB NOT AND CALLER SWAP1 DUP2 OR SWAP1 SWAP2 SSTORE PUSH1 0x0 DUP2 DUP2 MSTORE PUSH1 0x7 PUSH1 0x20 MSTORE PUSH1 0x40 DUP1 DUP3 KECCAK256 CALLVALUE SWAP1 SSTORE MLOAD PUSH32 0x4856B94BFF5E849EDED76094E0152EFE4B93EFD25A8D75E10A73557E9BF983AA SWAP2 SWAP1 LOG2 JUMP JUMPDEST PUSH1 0x0 DUP2 DUP2 SLOAD DUP2 LT PUSH2 0x2A3 JUMPI PUSH1 0x0 DUP1 REVERT JUMPDEST PUSH1 0x0 SWAP2 DUP3 MSTORE PUSH1 0x20 SWAP1 SWAP2 KECCAK256 ADD SLOAD SWAP1 POP DUP2 JUMP JUMPDEST PUSH1 0x3 SLOAD CALLER PUSH1 0x0 SWAP1 DUP2 MSTORE PUSH1 0x7 PUSH1 0x20 MSTORE PUSH1 0x40 DUP2 KECCAK256 SLOAD SWAP1 SWAP2 EQ PUSH2 0x2D3 JUMPI PUSH1 0x0 DUP1 REVERT JUMPDEST PUSH1 0x0 DUP3 PUSH1 0x2 DUP2 GT ISZERO PUSH2 0x2E7 JUMPI PUSH2 0x2E7 PUSH2 0x990 JUMP JUMPDEST CALLER PUSH1 0x0 SWAP1 DUP2 MSTORE PUSH1 0x6 PUSH1 0x20 MSTORE PUSH1 0x40 SWAP1 KECCAK256 DUP1 SLOAD SWAP2 SWAP3 POP DUP3 SWAP2 PUSH1 0xFF NOT AND PUSH1 0x1 DUP4 PUSH1 0x2 DUP2 GT ISZERO PUSH2 0x315 JUMPI PUSH2 0x315 PUSH2 0x990 JUMP JUMPDEST MUL OR SWAP1 SSTORE POP PUSH1 0x40 MLOAD PUSH4 0x5D3B1D3 PUSH1 0xE4 SHL DUP2 MSTORE PUSH32 0x0 PUSH1 0x4 DUP3 ADD MSTORE PUSH8 0xFFFFFFFFFFFFFFFF PUSH32 0x0 AND PUSH1 0x24 DUP3 ADD MSTORE PUSH2 0xFFFF PUSH32 0x0 AND PUSH1 0x44 DUP3 ADD MSTORE PUSH4 0xFFFFFFFF PUSH32 0x0 DUP2 AND PUSH1 0x64 DUP4 ADD MSTORE PUSH32 0x0 AND PUSH1 0x84 DUP3 ADD MSTORE PUSH32 0x0 PUSH1 0x1 PUSH1 0x1 PUSH1 0xA0 SHL SUB AND SWAP1 PUSH4 0x5D3B1D30 SWAP1 PUSH1 0xA4 ADD PUSH1 0x20 PUSH1 0x40 MLOAD DUP1 DUP4 SUB DUP2 PUSH1 0x0 DUP8 GAS CALL ISZERO DUP1 ISZERO PUSH2 0x44E JUMPI RETURNDATASIZE PUSH1 0x0 DUP1 RETURNDATACOPY RETURNDATASIZE PUSH1 0x0 REVERT JUMPDEST POP POP POP POP PUSH1 0x40 MLOAD RETURNDATASIZE PUSH1 0x1F NOT PUSH1 0x1F DUP3 ADD AND DUP3 ADD DUP1 PUSH1 0x40 MSTORE POP DUP2 ADD SWAP1 PUSH2 0x472 SWAP2 SWAP1 PUSH2 0x9E7 JUMP JUMPDEST PUSH1 0x1 DUP2 SWAP1 SSTORE PUSH1 0x0 SWAP1 DUP2 MSTORE PUSH1 0x8 PUSH1 0x20 MSTORE PUSH1 0x40 SWAP1 KECCAK256 DUP1 SLOAD PUSH1 0x1 PUSH1 0x1 PUSH1 0xA0 SHL SUB NOT AND CALLER OR SWAP1 SSTORE POP SWAP2 SWAP1 POP JUMP JUMPDEST DUP1 MLOAD PUSH2 0x4AE SWAP1 PUSH1 0x0 SWAP1 PUSH1 0x20 DUP5 ADD SWAP1 PUSH2 0x850 JUMP JUMPDEST POP PUSH1 0x3 PUSH1 0x0 DUP1 DUP2 SLOAD DUP2 LT PUSH2 0x4C4 JUMPI PUSH2 0x4C4 PUSH2 0xA00 JUMP JUMPDEST SWAP1 PUSH1 0x0 MSTORE PUSH1 0x20 PUSH1 0x0 KECCAK256 ADD SLOAD PUSH2 0x4D9 SWAP2 SWAP1 PUSH2 0xA16 JUMP JUMPDEST PUSH1 0x2 DUP2 GT ISZERO PUSH2 0x4EA JUMPI PUSH2 0x4EA PUSH2 0x990 JUMP JUMPDEST PUSH1 0x9 DUP1 SLOAD PUSH1 0xFF NOT AND PUSH1 0x1 DUP4 PUSH1 0x2 DUP2 GT ISZERO PUSH2 0x506 JUMPI PUSH2 0x506 PUSH2 0x990 JUMP JUMPDEST MUL OR SWAP1 SSTORE POP PUSH32 0xEFB16D61046900DA527008568620FB9F8420E2F5ED4DE3BFBDED5035C9362B0E DUP2 PUSH1 0x40 MLOAD PUSH2 0x53A SWAP2 SWAP1 PUSH2 0xA38 JUMP JUMPDEST PUSH1 0x40 MLOAD DUP1 SWAP2 SUB SWAP1 LOG1 PUSH1 0x0 DUP3 DUP2 MSTORE PUSH1 0x8 PUSH1 0x20 SWAP1 DUP2 MSTORE PUSH1 0x40 DUP1 DUP4 KECCAK256 SLOAD PUSH1 0x1 PUSH1 0x1 PUSH1 0xA0 SHL SUB AND DUP4 MSTORE PUSH1 0x6 SWAP1 SWAP2 MSTORE DUP2 KECCAK256 SLOAD PUSH1 0xFF AND PUSH1 0x2 DUP2 GT ISZERO PUSH2 0x57B JUMPI PUSH2 0x57B PUSH2 0x990 JUMP JUMPDEST SUB PUSH2 0x63D JUMPI PUSH1 0x2 PUSH1 0x9 SLOAD PUSH1 0xFF AND PUSH1 0x2 DUP2 GT ISZERO PUSH2 0x599 JUMPI PUSH2 0x599 PUSH2 0x990 JUMP JUMPDEST SUB PUSH2 0x63D JUMPI PUSH1 0x0 DUP3 DUP2 MSTORE PUSH1 0x8 PUSH1 0x20 MSTORE PUSH1 0x40 DUP2 KECCAK256 SLOAD PUSH1 0x5 DUP1 SLOAD PUSH1 0x1 PUSH1 0x1 PUSH1 0xA0 SHL SUB NOT AND PUSH1 0x1 PUSH1 0x1 PUSH1 0xA0 SHL SUB SWAP1 SWAP3 AND SWAP2 DUP3 OR SWAP1 SSTORE PUSH1 0x3 SLOAD PUSH2 0x5D8 SWAP1 SELFBALANCE PUSH2 0xA7C JUMP JUMPDEST PUSH1 0x40 MLOAD PUSH1 0x0 DUP2 DUP2 DUP2 DUP6 DUP8 GAS CALL SWAP3 POP POP POP RETURNDATASIZE DUP1 PUSH1 0x0 DUP2 EQ PUSH2 0x614 JUMPI PUSH1 0x40 MLOAD SWAP2 POP PUSH1 0x1F NOT PUSH1 0x3F RETURNDATASIZE ADD AND DUP3 ADD PUSH1 0x40 MSTORE RETURNDATASIZE DUP3 MSTORE RETURNDATASIZE PUSH1 0x0 PUSH1 0x20 DUP5 ADD RETURNDATACOPY PUSH2 0x619 JUMP JUMPDEST PUSH1 0x60 SWAP2 POP JUMPDEST POP POP SWAP1 POP DUP1 PUSH2 0x63B JUMPI PUSH1 0x40 MLOAD PUSH4 0x211C3105 PUSH1 0xE0 SHL DUP2 MSTORE PUSH1 0x4 ADD PUSH1 0x40 MLOAD DUP1 SWAP2 SUB SWAP1 REVERT JUMPDEST POP JUMPDEST PUSH1 0x1 PUSH1 0x0 DUP4 DUP2 MSTORE PUSH1 0x8 PUSH1 0x20 SWAP1 DUP2 MSTORE PUSH1 0x40 DUP1 DUP4 KECCAK256 SLOAD PUSH1 0x1 PUSH1 0x1 PUSH1 0xA0 SHL SUB AND DUP4 MSTORE PUSH1 0x6 SWAP1 SWAP2 MSTORE SWAP1 KECCAK256 SLOAD PUSH1 0xFF AND PUSH1 0x2 DUP2 GT ISZERO PUSH2 0x678 JUMPI PUSH2 0x678 PUSH2 0x990 JUMP JUMPDEST SUB PUSH2 0x73A JUMPI PUSH1 0x0 PUSH1 0x9 SLOAD PUSH1 0xFF AND PUSH1 0x2 DUP2 GT ISZERO PUSH2 0x696 JUMPI PUSH2 0x696 PUSH2 0x990 JUMP JUMPDEST SUB PUSH2 0x73A JUMPI PUSH1 0x0 DUP3 DUP2 MSTORE PUSH1 0x8 PUSH1 0x20 MSTORE PUSH1 0x40 DUP2 KECCAK256 SLOAD PUSH1 0x5 DUP1 SLOAD PUSH1 0x1 PUSH1 0x1 PUSH1 0xA0 SHL SUB NOT AND PUSH1 0x1 PUSH1 0x1 PUSH1 0xA0 SHL SUB SWAP1 SWAP3 AND SWAP2 DUP3 OR SWAP1 SSTORE PUSH1 0x3 SLOAD PUSH2 0x6D5 SWAP1 SELFBALANCE PUSH2 0xA7C JUMP JUMPDEST PUSH1 0x40 MLOAD PUSH1 0x0 DUP2 DUP2 DUP2 DUP6 DUP8 GAS CALL SWAP3 POP POP POP RETURNDATASIZE DUP1 PUSH1 0x0 DUP2 EQ PUSH2 0x711 JUMPI PUSH1 0x40 MLOAD SWAP2 POP PUSH1 0x1F NOT PUSH1 0x3F RETURNDATASIZE ADD AND DUP3 ADD PUSH1 0x40 MSTORE RETURNDATASIZE DUP3 MSTORE RETURNDATASIZE PUSH1 0x0 PUSH1 0x20 DUP5 ADD RETURNDATACOPY PUSH2 0x716 JUMP JUMPDEST PUSH1 0x60 SWAP2 POP JUMPDEST POP POP SWAP1 POP DUP1 PUSH2 0x738 JUMPI PUSH1 0x40 MLOAD PUSH4 0x211C3105 PUSH1 0xE0 SHL DUP2 MSTORE PUSH1 0x4 ADD PUSH1 0x40 MLOAD DUP1 SWAP2 SUB SWAP1 REVERT JUMPDEST POP JUMPDEST PUSH1 0x2 PUSH1 0x0 DUP4 DUP2 MSTORE PUSH1 0x8 PUSH1 0x20 SWAP1 DUP2 MSTORE PUSH1 0x40 DUP1 DUP4 KECCAK256 SLOAD PUSH1 0x1 PUSH1 0x1 PUSH1 0xA0 SHL SUB AND DUP4 MSTORE PUSH1 0x6 SWAP1 SWAP2 MSTORE SWAP1 KECCAK256 SLOAD PUSH1 0xFF AND PUSH1 0x2 DUP2 GT ISZERO PUSH2 0x775 JUMPI PUSH2 0x775 PUSH2 0x990 JUMP JUMPDEST SUB PUSH2 0x83A JUMPI PUSH1 0x1 PUSH1 0x9 SLOAD PUSH1 0xFF AND PUSH1 0x2 DUP2 GT ISZERO PUSH2 0x793 JUMPI PUSH2 0x793 PUSH2 0x990 JUMP JUMPDEST SUB PUSH2 0x1F3 JUMPI PUSH1 0x0 DUP3 DUP2 MSTORE PUSH1 0x8 PUSH1 0x20 MSTORE PUSH1 0x40 DUP2 KECCAK256 SLOAD PUSH1 0x5 DUP1 SLOAD PUSH1 0x1 PUSH1 0x1 PUSH1 0xA0 SHL SUB NOT AND PUSH1 0x1 PUSH1 0x1 PUSH1 0xA0 SHL SUB SWAP1 SWAP3 AND SWAP2 DUP3 OR SWAP1 SSTORE PUSH1 0x3 SLOAD PUSH2 0x7D2 SWAP1 SELFBALANCE PUSH2 0xA7C JUMP JUMPDEST PUSH1 0x40 MLOAD PUSH1 0x0 DUP2 DUP2 DUP2 DUP6 DUP8 GAS CALL SWAP3 POP POP POP RETURNDATASIZE DUP1 PUSH1 0x0 DUP2 EQ PUSH2 0x80E JUMPI PUSH1 0x40 MLOAD SWAP2 POP PUSH1 0x1F NOT PUSH1 0x3F RETURNDATASIZE ADD AND DUP3 ADD PUSH1 0x40 MSTORE RETURNDATASIZE DUP3 MSTORE RETURNDATASIZE PUSH1 0x0 PUSH1 0x20 DUP5 ADD RETURNDATACOPY PUSH2 0x813 JUMP JUMPDEST PUSH1 0x60 SWAP2 POP JUMPDEST POP POP SWAP1 POP DUP1 PUSH2 0x835 JUMPI PUSH1 0x40 MLOAD PUSH4 0x211C3105 PUSH1 0xE0 SHL DUP2 MSTORE PUSH1 0x4 ADD PUSH1 0x40 MLOAD DUP1 SWAP2 SUB SWAP1 REVERT JUMPDEST POP POP POP JUMP JUMPDEST PUSH1 0x5 DUP1 SLOAD PUSH1 0x1 PUSH1 0x1 PUSH1 0xA0 SHL SUB NOT AND ADDRESS OR SWAP1 SSTORE POP POP JUMP JUMPDEST DUP3 DUP1 SLOAD DUP3 DUP3 SSTORE SWAP1 PUSH1 0x0 MSTORE PUSH1 0x20 PUSH1 0x0 KECCAK256 SWAP1 DUP2 ADD SWAP3 DUP3 ISZERO PUSH2 0x88B JUMPI SWAP2 PUSH1 0x20 MUL DUP3 ADD JUMPDEST DUP3 DUP2 GT ISZERO PUSH2 0x88B JUMPI DUP3 MLOAD DUP3 SSTORE SWAP2 PUSH1 0x20 ADD SWAP2 SWAP1 PUSH1 0x1 ADD SWAP1 PUSH2 0x870 JUMP JUMPDEST POP PUSH2 0x897 SWAP3 SWAP2 POP PUSH2 0x89B JUMP JUMPDEST POP SWAP1 JUMP JUMPDEST JUMPDEST DUP1 DUP3 GT ISZERO PUSH2 0x897 JUMPI PUSH1 0x0 DUP2 SSTORE PUSH1 0x1 ADD PUSH2 0x89C JUMP JUMPDEST PUSH4 0x4E487B71 PUSH1 0xE0 SHL PUSH1 0x0 MSTORE PUSH1 0x41 PUSH1 0x4 MSTORE PUSH1 0x24 PUSH1 0x0 REVERT JUMPDEST PUSH1 0x0 DUP1 PUSH1 0x40 DUP4 DUP6 SUB SLT ISZERO PUSH2 0x8D9 JUMPI PUSH1 0x0 DUP1 REVERT JUMPDEST DUP3 CALLDATALOAD SWAP2 POP PUSH1 0x20 DUP1 DUP5 ADD CALLDATALOAD PUSH8 0xFFFFFFFFFFFFFFFF DUP1 DUP3 GT ISZERO PUSH2 0x8F9 JUMPI PUSH1 0x0 DUP1 REVERT JUMPDEST DUP2 DUP7 ADD SWAP2 POP DUP7 PUSH1 0x1F DUP4 ADD SLT PUSH2 0x90D JUMPI PUSH1 0x0 DUP1 REVERT JUMPDEST DUP2 CALLDATALOAD DUP2 DUP2 GT ISZERO PUSH2 0x91F JUMPI PUSH2 0x91F PUSH2 0x8B0 JUMP JUMPDEST DUP1 PUSH1 0x5 SHL PUSH1 0x40 MLOAD PUSH1 0x1F NOT PUSH1 0x3F DUP4 ADD AND DUP2 ADD DUP2 DUP2 LT DUP6 DUP3 GT OR ISZERO PUSH2 0x944 JUMPI PUSH2 0x944 PUSH2 0x8B0 JUMP JUMPDEST PUSH1 0x40 MSTORE SWAP2 DUP3 MSTORE DUP5 DUP3 ADD SWAP3 POP DUP4 DUP2 ADD DUP6 ADD SWAP2 DUP10 DUP4 GT ISZERO PUSH2 0x962 JUMPI PUSH1 0x0 DUP1 REVERT JUMPDEST SWAP4 DUP6 ADD SWAP4 JUMPDEST DUP3 DUP6 LT ISZERO PUSH2 0x980 JUMPI DUP5 CALLDATALOAD DUP5 MSTORE SWAP4 DUP6 ADD SWAP4 SWAP3 DUP6 ADD SWAP3 PUSH2 0x967 JUMP JUMPDEST DUP1 SWAP7 POP POP POP POP POP POP POP SWAP3 POP SWAP3 SWAP1 POP JUMP JUMPDEST PUSH4 0x4E487B71 PUSH1 0xE0 SHL PUSH1 0x0 MSTORE PUSH1 0x21 PUSH1 0x4 MSTORE PUSH1 0x24 PUSH1 0x0 REVERT JUMPDEST PUSH1 0x20 DUP2 ADD PUSH1 0x3 DUP4 LT PUSH2 0x9C8 JUMPI PUSH4 0x4E487B71 PUSH1 0xE0 SHL PUSH1 0x0 MSTORE PUSH1 0x21 PUSH1 0x4 MSTORE PUSH1 0x24 PUSH1 0x0 REVERT JUMPDEST SWAP2 SWAP1 MSTORE SWAP1 JUMP JUMPDEST PUSH1 0x0 PUSH1 0x20 DUP3 DUP5 SUB SLT ISZERO PUSH2 0x9E0 JUMPI PUSH1 0x0 DUP1 REVERT JUMPDEST POP CALLDATALOAD SWAP2 SWAP1 POP JUMP JUMPDEST PUSH1 0x0 PUSH1 0x20 DUP3 DUP5 SUB SLT ISZERO PUSH2 0x9F9 JUMPI PUSH1 0x0 DUP1 REVERT JUMPDEST POP MLOAD SWAP2 SWAP1 POP JUMP JUMPDEST PUSH4 0x4E487B71 PUSH1 0xE0 SHL PUSH1 0x0 MSTORE PUSH1 0x32 PUSH1 0x4 MSTORE PUSH1 0x24 PUSH1 0x0 REVERT JUMPDEST PUSH1 0x0 DUP3 PUSH2 0xA33 JUMPI PUSH4 0x4E487B71 PUSH1 0xE0 SHL PUSH1 0x0 MSTORE PUSH1 0x12 PUSH1 0x4 MSTORE PUSH1 0x24 PUSH1 0x0 REVERT JUMPDEST POP MOD SWAP1 JUMP JUMPDEST PUSH1 0x20 DUP1 DUP3 MSTORE DUP3 MLOAD DUP3 DUP3 ADD DUP2 SWAP1 MSTORE PUSH1 0x0 SWAP2 SWAP1 DUP5 DUP3 ADD SWAP1 PUSH1 0x40 DUP6 ADD SWAP1 DUP5 JUMPDEST DUP2 DUP2 LT ISZERO PUSH2 0xA70 JUMPI DUP4 MLOAD DUP4 MSTORE SWAP3 DUP5 ADD SWAP3 SWAP2 DUP5 ADD SWAP2 PUSH1 0x1 ADD PUSH2 0xA54 JUMP JUMPDEST POP SWAP1 SWAP7 SWAP6 POP POP POP POP POP POP JUMP JUMPDEST PUSH1 0x0 DUP3 DUP3 LT ISZERO PUSH2 0xA9C JUMPI PUSH4 0x4E487B71 PUSH1 0xE0 SHL PUSH1 0x0 MSTORE PUSH1 0x11 PUSH1 0x4 MSTORE PUSH1 0x24 PUSH1 0x0 REVERT JUMPDEST POP SUB SWAP1 JUMP INVALID LOG2 PUSH5 0x6970667358 0x22 SLT KECCAK256 0x49 0xEE 0xDD 0xC6 0xC0 PUSH4 0xCE9ADD76 XOR PUSH9 0xA349A6D10E7B1C3B9 0xA9 0xE9 BASEFEE PUSH7 0x7ED74B00CF4973 PUSH5 0x736F6C6343 STOP ADDMOD 0xD STOP CALLER ","sha1":"1c624d3f1c43b4e658c722aebc7561510a87ab56","source":"// SPDX-License-Identifier: MIT\n\npragma solidity ^0.8.7;\n\nimport \"@chainlink/contracts/src/v0.8/interfaces/LinkTokenInterface.sol\";\nimport \"@chainlink/contracts/src/v0.8/interfaces/VRFCoordinatorV2Interface.sol\";\nimport \"@chainlink/contracts/src/v0.8/VRFConsumerBaseV2.sol\";\n\nerror Game_SendMoreToEnterGame();\nerror Game_TransferFailed();\n\ncontract handGame is VRFConsumerBaseV2 {\n    //1. Player enters the game paying a fee\n    //2. Computer picks a random type out of 3 (Rock, paper or Scissor) using VRF\n    //3. Player picks a type\n    //4. Compare computer and player type and select winner based on Rock, paper, Scissor winning pairs\n\n    VRFCoordinatorV2Interface immutable COORDINATOR;\n    LinkTokenInterface immutable LINKTOKEN;\n\n    // Your subscription ID.\n    uint64 immutable s_subscriptionId;\n\n    // The gas lane to use, which specifies the maximum gas price to bump to.\n    // For a list of available gas lanes on each network,\n    // see https://docs.chain.link/docs/vrf-contracts/#configurations\n    bytes32 immutable s_keyHash;\n\n    // Depends on the number of requested values that you want sent to the\n    // fulfillRandomWords() function. Storing each word costs about 20,000 gas,\n    // so 100,000 is a safe default for this example contract. Test and adjust\n    // this limit based on the network that you select, the size of the request,\n    // and the processing of the callback request in the fulfillRandomWords()\n    // function.\n    uint32 immutable s_callbackGasLimit = 100000;\n\n    // The default is 3, but you can set this higher.\n    uint16 immutable s_requestConfirmations = 3;\n\n    // For this example, retrieve 2 random values in one request.\n    // Cannot exceed VRFCoordinatorV2.MAX_NUM_WORDS.\n    uint32 immutable s_numWords = 1;\n\n    uint256[] public s_randomWords;\n    uint256 public s_requestId;\n    address s_owner;\n\n    // Game variables\n\n    enum Hand {\n        ROCK,\n        PAPER,\n        SCISSORS\n    }\n    uint256 private i_entranceFee;\n    address payable[] private s_players;\n    address payable public winner;\n    mapping(address => Hand) private playerPick;\n    mapping(address => uint256) private addressToAmountFunded;\n    mapping(uint256 => address) private requestIdToPlayer;\n    Hand public computerHand;\n\n    // Events\n\n    event GameEntry(address indexed player);\n\n    event ReturnedRandomness(uint256[] randomWords);\n\n    constructor(\n        uint64 subscriptionId,\n        address vrfCoordinator,\n        address link,\n        bytes32 keyHash,\n        uint256 entranceFee\n    ) VRFConsumerBaseV2(vrfCoordinator) {\n        COORDINATOR = VRFCoordinatorV2Interface(vrfCoordinator);\n        LINKTOKEN = LinkTokenInterface(link);\n        s_keyHash = keyHash;\n        s_owner = msg.sender;\n        s_subscriptionId = subscriptionId;\n        i_entranceFee = entranceFee;\n    }\n\n    /**\n     * @notice Requests randomness\n     * Assumes the subscription is funded sufficiently; \"Words\" refers to unit of data in Computer Science\n     */\n\n    function enterGame() public payable {\n        if (msg.value < i_entranceFee) {\n            revert Game_SendMoreToEnterGame();\n        }\n        s_players.push(payable(msg.sender));\n        addressToAmountFunded[msg.sender] = msg.value;\n        emit GameEntry(msg.sender);\n    }\n\n    function pickType(uint256 _hand) external returns (uint256) {\n        require(addressToAmountFunded[msg.sender] == i_entranceFee);\n        Hand hand = Hand(_hand);\n        playerPick[msg.sender] = hand;\n        s_requestId = COORDINATOR.requestRandomWords(\n            s_keyHash,\n            s_subscriptionId,\n            s_requestConfirmations,\n            s_callbackGasLimit,\n            s_numWords\n        );\n        requestIdToPlayer[s_requestId] = msg.sender;\n    }\n\n    /**\n     * @notice Callback function used by VRF Coordinator\n     *\n     * @param requestId - id of the request\n     * @param randomWords - array of random results from VRF Coordinator\n     */\n    function fulfillRandomWords(uint256 requestId, uint256[] memory randomWords)\n        internal\n        override\n    {\n        s_randomWords = randomWords;\n        // Computer hand calculated\n        computerHand = Hand(s_randomWords[0] % 3);\n\n        emit ReturnedRandomness(randomWords);\n\n        // Check who is the winner\n        // Rock wins scissors (1 wins 3)\n        // Paper wins rock (2 wins 1)\n        // Scissors wins paper (3 wins 2)\n\n        if (playerPick[requestIdToPlayer[requestId]] == Hand.ROCK) {\n            if (computerHand == Hand.SCISSORS) {\n                winner = payable(requestIdToPlayer[requestId]);\n                (bool success, ) = winner.call{\n                    value: address(this).balance - i_entranceFee\n                }(\"\");\n                // require(success, \"Transfer failed\");\n                if (!success) {\n                    revert Game_TransferFailed();\n                }\n            }\n        }\n        if (playerPick[requestIdToPlayer[requestId]] == Hand.PAPER) {\n            if (computerHand == Hand.ROCK) {\n                winner = payable(requestIdToPlayer[requestId]);\n                (bool success, ) = winner.call{\n                    value: address(this).balance - i_entranceFee\n                }(\"\");\n                // require(success, \"Transfer failed\");\n                if (!success) {\n                    revert Game_TransferFailed();\n                }\n            }\n        }\n        if (playerPick[requestIdToPlayer[requestId]] == Hand.SCISSORS) {\n            if (computerHand == Hand.PAPER) {\n                winner = payable(requestIdToPlayer[requestId]);\n                (bool success, ) = winner.call{\n                    value: address(this).balance - i_entranceFee\n                }(\"\");\n                // require(success, \"Transfer failed\");\n                if (!success) {\n                    revert Game_TransferFailed();\n                }\n            }\n        } else {\n            winner = payable(address(this));\n        }\n    }\n\n    modifier onlyOwner() {\n        require(msg.sender == s_owner);\n        _;\n    }\n}\n","sourcePath":"contracts/handGame.sol","deployment":{"address":"0xd980Aac3A4c2aad6034e4C78fe1dF83FDb09E775","chainid":"4","blockHeight":10742360}}