{
  "address": "0xD19D523E588DDEc8a17b9076b1FD5faae98FAC40",
  "abi": [
    {
      "inputs": [
        {
          "internalType": "uint256",
          "name": "entryCostPrice",
          "type": "uint256"
        },
        {
          "internalType": "uint256",
          "name": "numberOfTickets",
          "type": "uint256"
        },
        {
          "internalType": "uint256",
          "name": "interval",
          "type": "uint256"
        },
        {
          "internalType": "address",
          "name": "vrfCoordinatorV2",
          "type": "address"
        },
        {
          "internalType": "bytes32",
          "name": "gasLane",
          "type": "bytes32"
        },
        {
          "internalType": "uint64",
          "name": "subscriptionId",
          "type": "uint64"
        },
        {
          "internalType": "uint32",
          "name": "callbackGasLimit",
          "type": "uint32"
        }
      ],
      "stateMutability": "nonpayable",
      "type": "constructor"
    },
    {
      "inputs": [
        {
          "internalType": "address",
          "name": "have",
          "type": "address"
        },
        {
          "internalType": "address",
          "name": "want",
          "type": "address"
        }
      ],
      "name": "OnlyCoordinatorCanFulfill",
      "type": "error"
    },
    {
      "inputs": [],
      "name": "Raffle_RaffleIsFull",
      "type": "error"
    },
    {
      "inputs": [],
      "name": "Raffle_RaffleNotOpen",
      "type": "error"
    },
    {
      "inputs": [],
      "name": "Raffle_SendMoreToEnterRaffle",
      "type": "error"
    },
    {
      "inputs": [],
      "name": "Raffle_TransferFailed",
      "type": "error"
    },
    {
      "inputs": [],
      "name": "Raffle_UpkeepNotNeeded",
      "type": "error"
    },
    {
      "anonymous": false,
      "inputs": [
        {
          "indexed": true,
          "internalType": "address",
          "name": "rafflePlayers",
          "type": "address"
        }
      ],
      "name": "RaffleEnter",
      "type": "event"
    },
    {
      "anonymous": false,
      "inputs": [
        {
          "indexed": true,
          "internalType": "uint256",
          "name": "requestId",
          "type": "uint256"
        }
      ],
      "name": "RequestedRaffleWinner",
      "type": "event"
    },
    {
      "anonymous": false,
      "inputs": [
        {
          "indexed": true,
          "internalType": "address",
          "name": "winner",
          "type": "address"
        }
      ],
      "name": "WinnerPicked",
      "type": "event"
    },
    {
      "inputs": [],
      "name": "NUM_WORDS",
      "outputs": [
        {
          "internalType": "uint32",
          "name": "",
          "type": "uint32"
        }
      ],
      "stateMutability": "view",
      "type": "function"
    },
    {
      "inputs": [],
      "name": "REQUEST_CONFIRMATIONS",
      "outputs": [
        {
          "internalType": "uint16",
          "name": "",
          "type": "uint16"
        }
      ],
      "stateMutability": "view",
      "type": "function"
    },
    {
      "inputs": [
        {
          "internalType": "bytes",
          "name": "",
          "type": "bytes"
        }
      ],
      "name": "checkUpKeep",
      "outputs": [
        {
          "internalType": "bool",
          "name": "upkeepNeeded",
          "type": "bool"
        },
        {
          "internalType": "bytes",
          "name": "",
          "type": "bytes"
        }
      ],
      "stateMutability": "view",
      "type": "function"
    },
    {
      "inputs": [],
      "name": "enterRaffle",
      "outputs": [],
      "stateMutability": "payable",
      "type": "function"
    },
    {
      "inputs": [],
      "name": "i_entryCostPrice",
      "outputs": [
        {
          "internalType": "uint256",
          "name": "",
          "type": "uint256"
        }
      ],
      "stateMutability": "view",
      "type": "function"
    },
    {
      "inputs": [],
      "name": "i_gasLane",
      "outputs": [
        {
          "internalType": "bytes32",
          "name": "",
          "type": "bytes32"
        }
      ],
      "stateMutability": "view",
      "type": "function"
    },
    {
      "inputs": [],
      "name": "i_interval",
      "outputs": [
        {
          "internalType": "uint256",
          "name": "",
          "type": "uint256"
        }
      ],
      "stateMutability": "view",
      "type": "function"
    },
    {
      "inputs": [],
      "name": "i_numberOfTickets",
      "outputs": [
        {
          "internalType": "uint256",
          "name": "",
          "type": "uint256"
        }
      ],
      "stateMutability": "view",
      "type": "function"
    },
    {
      "inputs": [],
      "name": "i_vrfCoordinator",
      "outputs": [
        {
          "internalType": "contract VRFCoordinatorV2Interface",
          "name": "",
          "type": "address"
        }
      ],
      "stateMutability": "view",
      "type": "function"
    },
    {
      "inputs": [
        {
          "internalType": "bytes",
          "name": "",
          "type": "bytes"
        }
      ],
      "name": "performUpkeep",
      "outputs": [],
      "stateMutability": "nonpayable",
      "type": "function"
    },
    {
      "inputs": [
        {
          "internalType": "uint256",
          "name": "requestId",
          "type": "uint256"
        },
        {
          "internalType": "uint256[]",
          "name": "randomWords",
          "type": "uint256[]"
        }
      ],
      "name": "rawFulfillRandomWords",
      "outputs": [],
      "stateMutability": "nonpayable",
      "type": "function"
    },
    {
      "inputs": [],
      "name": "s_lastTimeStamp",
      "outputs": [
        {
          "internalType": "uint256",
          "name": "",
          "type": "uint256"
        }
      ],
      "stateMutability": "view",
      "type": "function"
    },
    {
      "inputs": [
        {
          "internalType": "uint256",
          "name": "",
          "type": "uint256"
        }
      ],
      "name": "s_rafflePlayers",
      "outputs": [
        {
          "internalType": "address payable",
          "name": "",
          "type": "address"
        }
      ],
      "stateMutability": "view",
      "type": "function"
    },
    {
      "inputs": [],
      "name": "s_raffleState",
      "outputs": [
        {
          "internalType": "enum Raffle.RaffleState",
          "name": "",
          "type": "uint8"
        }
      ],
      "stateMutability": "view",
      "type": "function"
    },
    {
      "inputs": [],
      "name": "s_recentWinner",
      "outputs": [
        {
          "internalType": "address",
          "name": "",
          "type": "address"
        }
      ],
      "stateMutability": "view",
      "type": "function"
    }
  ],
  "transactionHash": "0x40f9a3cff50da7005a6bea93350d7b4f1cbe4921041e3fd89e9024b8f4cf78d8",
  "args": [
    "100000000000000000",
    "300",
    "300",
    "0x6168499c0cFfCaCD319c818142124B7A15E857ab",
    "0xd89b2bf150e3b9e13446986e571fb9cab24b13cea0a43ea20a6049a85cc807cc",
    "5114",
    "500000"
  ],
  "numDeployments": 1,
  "solcInputHash": "f17fcd46111f2d80bd4b6a7c4fc03123",
  "bytecode": "0x610120604052620186a0600360086101000a81548163ffffffff021916908363ffffffff1602179055503480156200003657600080fd5b5060405162001ae938038062001ae983398181016040528101906200005c9190620001bd565b838073ffffffffffffffffffffffffffffffffffffffff1660808173ffffffffffffffffffffffffffffffffffffffff1660601b81525050508660a081815250508560c08181525050426002819055508460e081815250508373ffffffffffffffffffffffffffffffffffffffff166101008173ffffffffffffffffffffffffffffffffffffffff1660601b815250508260048190555081600360006101000a81548167ffffffffffffffff021916908367ffffffffffffffff16021790555080600360086101000a81548163ffffffff021916908363ffffffff1602179055505050505050505062000363565b6000815190506200015b81620002e1565b92915050565b6000815190506200017281620002fb565b92915050565b600081519050620001898162000315565b92915050565b600081519050620001a0816200032f565b92915050565b600081519050620001b78162000349565b92915050565b600080600080600080600060e0888a031215620001df57620001de620002dc565b5b6000620001ef8a828b0162000178565b9750506020620002028a828b0162000178565b9650506040620002158a828b0162000178565b9550506060620002288a828b016200014a565b94505060806200023b8a828b0162000161565b93505060a06200024e8a828b01620001a6565b92505060c0620002618a828b016200018f565b91505092959891949750929550565b60006200027d826200028e565b9050919050565b6000819050919050565b600073ffffffffffffffffffffffffffffffffffffffff82169050919050565b6000819050919050565b600063ffffffff82169050919050565b600067ffffffffffffffff82169050919050565b600080fd5b620002ec8162000270565b8114620002f857600080fd5b50565b620003068162000284565b81146200031257600080fd5b50565b6200032081620002ae565b81146200032c57600080fd5b50565b6200033a81620002b8565b81146200034657600080fd5b50565b6200035481620002c8565b81146200036057600080fd5b50565b60805160601c60a05160c05160e0516101005160601c611711620003d8600039600081816107570152610a0f0152600081816108e401526109ba0152600081816106b3015261091f015260008181610434015281816104f90152610a4401526000818161037401526103c801526117116000f3fe6080604052600436106100e85760003560e01c806367f082b01161008a5780638e879c8a116100595780638e879c8a146102c6578063aebc4550146102f1578063cc45483f1461031c578063dc809b0d14610347576100e8565b806367f082b01461021a5780636919207d1461024557806372cf6e34146102705780638638b0c61461029b576100e8565b806339d26190116100c657806339d261901461014b5780633adde048146101885780634585e33b146101b35780635e6c102e146101dc576100e8565b80631fe543e3146100ed5780632cfcc539146101165780633485404314610120575b600080fd5b3480156100f957600080fd5b50610114600480360381019061010f9190610fbd565b610372565b005b61011e610432565b005b34801561012c57600080fd5b5061013561066c565b60405161014291906112b1565b60405180910390f35b34801561015757600080fd5b50610172600480360381019061016d9190610f63565b610672565b60405161017f919061115e565b60405180910390f35b34801561019457600080fd5b5061019d6106b1565b6040516101aa91906112b1565b60405180910390f35b3480156101bf57600080fd5b506101da60048036038101906101d59190610ecd565b6106d5565b005b3480156101e857600080fd5b5061020360048036038101906101fe9190610f1a565b610868565b6040516102119291906111a2565b60405180910390f35b34801561022657600080fd5b5061022f6109b3565b60405161023c9190611296565b60405180910390f35b34801561025157600080fd5b5061025a6109b8565b60405161026791906112b1565b60405180910390f35b34801561027c57600080fd5b506102856109dc565b60405161029291906112cc565b60405180910390f35b3480156102a757600080fd5b506102b06109e1565b6040516102bd9190611143565b60405180910390f35b3480156102d257600080fd5b506102db610a07565b6040516102e891906111d2565b60405180910390f35b3480156102fd57600080fd5b50610306610a0d565b6040516103139190611240565b60405180910390f35b34801561032857600080fd5b50610331610a31565b60405161033e919061125b565b60405180910390f35b34801561035357600080fd5b5061035c610a42565b60405161036991906112b1565b60405180910390f35b7f000000000000000000000000000000000000000000000000000000000000000073ffffffffffffffffffffffffffffffffffffffff163373ffffffffffffffffffffffffffffffffffffffff161461042457337f00000000000000000000000000000000000000000000000000000000000000006040517f1cf993f400000000000000000000000000000000000000000000000000000000815260040161041b929190611179565b60405180910390fd5b61042e8282610a66565b5050565b7f000000000000000000000000000000000000000000000000000000000000000034101561048c576040517f3e48252900000000000000000000000000000000000000000000000000000000815260040160405180910390fd5b600060028111156104a05761049f6115c8565b5b60008054906101000a900460ff1660028111156104c0576104bf6115c8565b5b146104f7576040517f6eac21ed00000000000000000000000000000000000000000000000000000000815260040160405180910390fd5b7f00000000000000000000000000000000000000000000000000000000000000003414610559576040517f08c379a000000000000000000000000000000000000000000000000000000000815260040161055090611276565b60405180910390fd5b6001600281111561056d5761056c6115c8565b5b60008054906101000a900460ff16600281111561058d5761058c6115c8565b5b146105c4576040517f75c37eb100000000000000000000000000000000000000000000000000000000815260040160405180910390fd5b6001339080600181540180825580915050600190039060005260206000200160009091909190916101000a81548173ffffffffffffffffffffffffffffffffffffffff021916908373ffffffffffffffffffffffffffffffffffffffff1602179055503373ffffffffffffffffffffffffffffffffffffffff167f0805e1d667bddb8a95f0f09880cf94f403fb596ce79928d9f29b74203ba284d460405160405180910390a2565b60025481565b6001818154811061068257600080fd5b906000526020600020016000915054906101000a900473ffffffffffffffffffffffffffffffffffffffff1681565b7f000000000000000000000000000000000000000000000000000000000000000081565b60006106ef60405180602001604052806000815250610868565b50905080610729576040517f4f6ddb1900000000000000000000000000000000000000000000000000000000815260040160405180910390fd5b60026000806101000a81548160ff0219169083600281111561074e5761074d6115c8565b5b021790555060007f000000000000000000000000000000000000000000000000000000000000000073ffffffffffffffffffffffffffffffffffffffff16635d3b1d30600454600360009054906101000a900467ffffffffffffffff1660038060089054906101000a900463ffffffff1660016040518663ffffffff1660e01b81526004016107e19594939291906111ed565b602060405180830381600087803b1580156107fb57600080fd5b505af115801561080f573d6000803e3d6000fd5b505050506040513d601f19601f820116820180604052508101906108339190610f90565b9050807fcd6e45c8998311cab7e9d4385596cac867e20a0587194b954fa3a731c93ce78b60405160405180910390a250505050565b6000606060008060009054906101000a900460ff16600281111561088f5761088e6115c8565b5b600060028111156108a3576108a26115c8565b5b14905060008060009054906101000a900460ff1660028111156108c9576108c86115c8565b5b600160028111156108dd576108dc6115c8565b5b14905060007f00000000000000000000000000000000000000000000000000000000000000006002544261091191906113a1565b1190506000804711905060007f00000000000000000000000000000000000000000000000000000000000000006001805490501490508280156109515750835b801561095a5750845b80156109635750815b801561096c5750805b9650866040518060400160405280600381526020017f3058300000000000000000000000000000000000000000000000000000000000815250965096505050505050915091565b600381565b7f000000000000000000000000000000000000000000000000000000000000000081565b600181565b6003600c9054906101000a900473ffffffffffffffffffffffffffffffffffffffff1681565b60045481565b7f000000000000000000000000000000000000000000000000000000000000000081565b60008054906101000a900460ff1681565b7f000000000000000000000000000000000000000000000000000000000000000081565b600060018054905082600081518110610a8257610a816115f7565b5b6020026020010151610a949190611539565b9050600060018281548110610aac57610aab6115f7565b5b9060005260206000200160009054906101000a900473ffffffffffffffffffffffffffffffffffffffff169050806003600c6101000a81548173ffffffffffffffffffffffffffffffffffffffff021916908373ffffffffffffffffffffffffffffffffffffffff160217905550600067ffffffffffffffff811115610b3557610b34611626565b5b604051908082528060200260200182016040528015610b635781602001602082028036833780820191505090505b5060019080519060200190610b79929190610c98565b5060008060006101000a81548160ff02191690836002811115610b9f57610b9e6115c8565b5b02179055504260028190555060008173ffffffffffffffffffffffffffffffffffffffff1647604051610bd19061112e565b60006040518083038185875af1925050503d8060008114610c0e576040519150601f19603f3d011682016040523d82523d6000602084013e610c13565b606091505b5050905080610c4e576040517fba31c4f300000000000000000000000000000000000000000000000000000000815260040160405180910390fd5b8173ffffffffffffffffffffffffffffffffffffffff167f5b690ec4a06fe979403046eaeea5b3ce38524683c3001f662c8b5a829632f7df60405160405180910390a25050505050565b828054828255906000526020600020908101928215610d11579160200282015b82811115610d105782518260006101000a81548173ffffffffffffffffffffffffffffffffffffffff021916908373ffffffffffffffffffffffffffffffffffffffff16021790555091602001919060010190610cb8565b5b509050610d1e9190610d22565b5090565b5b80821115610d3b576000816000905550600101610d23565b5090565b6000610d52610d4d8461130c565b6112e7565b90508083825260208201905082856020860282011115610d7557610d7461165f565b5b60005b85811015610da55781610d8b8882610ea3565b845260208401935060208301925050600181019050610d78565b5050509392505050565b6000610dc2610dbd84611338565b6112e7565b905082815260208101848484011115610dde57610ddd611664565b5b610de98482856114c6565b509392505050565b600082601f830112610e0657610e0561165a565b5b8135610e16848260208601610d3f565b91505092915050565b60008083601f840112610e3557610e3461165a565b5b8235905067ffffffffffffffff811115610e5257610e51611655565b5b602083019150836001820283011115610e6e57610e6d61165f565b5b9250929050565b600082601f830112610e8a57610e8961165a565b5b8135610e9a848260208601610daf565b91505092915050565b600081359050610eb2816116c4565b92915050565b600081519050610ec7816116c4565b92915050565b60008060208385031215610ee457610ee361166e565b5b600083013567ffffffffffffffff811115610f0257610f01611669565b5b610f0e85828601610e1f565b92509250509250929050565b600060208284031215610f3057610f2f61166e565b5b600082013567ffffffffffffffff811115610f4e57610f4d611669565b5b610f5a84828501610e75565b91505092915050565b600060208284031215610f7957610f7861166e565b5b6000610f8784828501610ea3565b91505092915050565b600060208284031215610fa657610fa561166e565b5b6000610fb484828501610eb8565b91505092915050565b60008060408385031215610fd457610fd361166e565b5b6000610fe285828601610ea3565b925050602083013567ffffffffffffffff81111561100357611002611669565b5b61100f85828601610df1565b9150509250929050565b611022816113e7565b82525050565b611031816113d5565b82525050565b611040816113f9565b82525050565b61104f81611405565b82525050565b600061106082611369565b61106a8185611374565b935061107a8185602086016114d5565b61108381611673565b840191505092915050565b6110978161147e565b82525050565b6110a681611490565b82525050565b60006110b9601683611390565b91506110c482611684565b602082019050919050565b60006110dc600083611385565b91506110e7826116ad565b600082019050919050565b6110fb81611422565b82525050565b61110a81611450565b82525050565b6111198161145a565b82525050565b6111288161146a565b82525050565b6000611139826110cf565b9150819050919050565b60006020820190506111586000830184611028565b92915050565b60006020820190506111736000830184611019565b92915050565b600060408201905061118e6000830185611028565b61119b6020830184611028565b9392505050565b60006040820190506111b76000830185611037565b81810360208301526111c98184611055565b90509392505050565b60006020820190506111e76000830184611046565b92915050565b600060a0820190506112026000830188611046565b61120f602083018761111f565b61121c60408301866110f2565b6112296060830185611110565b6112366080830184611110565b9695505050505050565b6000602082019050611255600083018461108e565b92915050565b6000602082019050611270600083018461109d565b92915050565b6000602082019050818103600083015261128f816110ac565b9050919050565b60006020820190506112ab60008301846110f2565b92915050565b60006020820190506112c66000830184611101565b92915050565b60006020820190506112e16000830184611110565b92915050565b60006112f1611302565b90506112fd8282611508565b919050565b6000604051905090565b600067ffffffffffffffff82111561132757611326611626565b5b602082029050602081019050919050565b600067ffffffffffffffff82111561135357611352611626565b5b61135c82611673565b9050602081019050919050565b600081519050919050565b600082825260208201905092915050565b600081905092915050565b600082825260208201905092915050565b60006113ac82611450565b91506113b783611450565b9250828210156113ca576113c961156a565b5b828203905092915050565b60006113e082611430565b9050919050565b60006113f282611430565b9050919050565b60008115159050919050565b6000819050919050565b600081905061141d826116b0565b919050565b600061ffff82169050919050565b600073ffffffffffffffffffffffffffffffffffffffff82169050919050565b6000819050919050565b600063ffffffff82169050919050565b600067ffffffffffffffff82169050919050565b6000611489826114a2565b9050919050565b600061149b8261140f565b9050919050565b60006114ad826114b4565b9050919050565b60006114bf82611430565b9050919050565b82818337600083830152505050565b60005b838110156114f35780820151818401526020810190506114d8565b83811115611502576000848401525b50505050565b61151182611673565b810181811067ffffffffffffffff821117156115305761152f611626565b5b80604052505050565b600061154482611450565b915061154f83611450565b92508261155f5761155e611599565b5b828206905092915050565b7f4e487b7100000000000000000000000000000000000000000000000000000000600052601160045260246000fd5b7f4e487b7100000000000000000000000000000000000000000000000000000000600052601260045260246000fd5b7f4e487b7100000000000000000000000000000000000000000000000000000000600052602160045260246000fd5b7f4e487b7100000000000000000000000000000000000000000000000000000000600052603260045260246000fd5b7f4e487b7100000000000000000000000000000000000000000000000000000000600052604160045260246000fd5b600080fd5b600080fd5b600080fd5b600080fd5b600080fd5b600080fd5b6000601f19601f8301169050919050565b7f6e6f7420656e6f756768206d6f6e65792073656e742100000000000000000000600082015250565b50565b600381106116c1576116c06115c8565b5b50565b6116cd81611450565b81146116d857600080fd5b5056fea264697066735822122080312903ab410beb62bb845a4bfb37ca03e9b149e043995f10c42205d75ef64e64736f6c63430008070033",
  "devdoc": {
    "kind": "dev",
    "methods": {},
    "version": 1
  },
  "userdoc": {
    "kind": "user",
    "methods": {},
    "version": 1
  },
  "storageLayout": {
    "storage": [
      {
        "astId": 159,
        "contract": "contracts/Raffle.sol:Raffle",
        "label": "s_raffleState",
        "offset": 0,
        "slot": "0",
        "type": "t_enum(RaffleState)156"
      },
      {
        "astId": 176,
        "contract": "contracts/Raffle.sol:Raffle",
        "label": "s_rafflePlayers",
        "offset": 0,
        "slot": "1",
        "type": "t_array(t_address_payable)dyn_storage"
      },
      {
        "astId": 178,
        "contract": "contracts/Raffle.sol:Raffle",
        "label": "s_lastTimeStamp",
        "offset": 0,
        "slot": "2",
        "type": "t_uint256"
      },
      {
        "astId": 185,
        "contract": "contracts/Raffle.sol:Raffle",
        "label": "s_subscriptionId",
        "offset": 0,
        "slot": "3",
        "type": "t_uint64"
      },
      {
        "astId": 191,
        "contract": "contracts/Raffle.sol:Raffle",
        "label": "i_callbackGasLimit",
        "offset": 8,
        "slot": "3",
        "type": "t_uint32"
      },
      {
        "astId": 193,
        "contract": "contracts/Raffle.sol:Raffle",
        "label": "s_recentWinner",
        "offset": 12,
        "slot": "3",
        "type": "t_address"
      },
      {
        "astId": 195,
        "contract": "contracts/Raffle.sol:Raffle",
        "label": "i_gasLane",
        "offset": 0,
        "slot": "4",
        "type": "t_bytes32"
      }
    ],
    "types": {
      "t_address": {
        "encoding": "inplace",
        "label": "address",
        "numberOfBytes": "20"
      },
      "t_address_payable": {
        "encoding": "inplace",
        "label": "address payable",
        "numberOfBytes": "20"
      },
      "t_array(t_address_payable)dyn_storage": {
        "base": "t_address_payable",
        "encoding": "dynamic_array",
        "label": "address payable[]",
        "numberOfBytes": "32"
      },
      "t_bytes32": {
        "encoding": "inplace",
        "label": "bytes32",
        "numberOfBytes": "32"
      },
      "t_enum(RaffleState)156": {
        "encoding": "inplace",
        "label": "enum Raffle.RaffleState",
        "numberOfBytes": "1"
      },
      "t_uint256": {
        "encoding": "inplace",
        "label": "uint256",
        "numberOfBytes": "32"
      },
      "t_uint32": {
        "encoding": "inplace",
        "label": "uint32",
        "numberOfBytes": "4"
      },
      "t_uint64": {
        "encoding": "inplace",
        "label": "uint64",
        "numberOfBytes": "8"
      }
    }
  }
}