{
  "abi": [
    {
      "inputs": [
        {
          "internalType": "uint96",
          "name": "_baseFee",
          "type": "uint96"
        },
        {
          "internalType": "uint96",
          "name": "_gasPriceLink",
          "type": "uint96"
        }
      ],
      "stateMutability": "nonpayable",
      "type": "constructor"
    },
    {
      "inputs": [],
      "name": "InsufficientBalance",
      "type": "error"
    },
    {
      "inputs": [],
      "name": "InvalidSubscription",
      "type": "error"
    },
    {
      "inputs": [
        {
          "internalType": "address",
          "name": "owner",
          "type": "address"
        }
      ],
      "name": "MustBeSubOwner",
      "type": "error"
    },
    {
      "anonymous": false,
      "inputs": [
        {
          "indexed": true,
          "internalType": "uint256",
          "name": "requestId",
          "type": "uint256"
        },
        {
          "indexed": false,
          "internalType": "uint256",
          "name": "outputSeed",
          "type": "uint256"
        },
        {
          "indexed": false,
          "internalType": "uint96",
          "name": "payment",
          "type": "uint96"
        },
        {
          "indexed": false,
          "internalType": "bool",
          "name": "success",
          "type": "bool"
        }
      ],
      "name": "RandomWordsFulfilled",
      "type": "event"
    },
    {
      "anonymous": false,
      "inputs": [
        {
          "indexed": true,
          "internalType": "bytes32",
          "name": "keyHash",
          "type": "bytes32"
        },
        {
          "indexed": false,
          "internalType": "uint256",
          "name": "requestId",
          "type": "uint256"
        },
        {
          "indexed": false,
          "internalType": "uint256",
          "name": "preSeed",
          "type": "uint256"
        },
        {
          "indexed": true,
          "internalType": "uint64",
          "name": "subId",
          "type": "uint64"
        },
        {
          "indexed": false,
          "internalType": "uint16",
          "name": "minimumRequestConfirmations",
          "type": "uint16"
        },
        {
          "indexed": false,
          "internalType": "uint32",
          "name": "callbackGasLimit",
          "type": "uint32"
        },
        {
          "indexed": false,
          "internalType": "uint32",
          "name": "numWords",
          "type": "uint32"
        },
        {
          "indexed": true,
          "internalType": "address",
          "name": "sender",
          "type": "address"
        }
      ],
      "name": "RandomWordsRequested",
      "type": "event"
    },
    {
      "anonymous": false,
      "inputs": [
        {
          "indexed": true,
          "internalType": "uint64",
          "name": "subId",
          "type": "uint64"
        },
        {
          "indexed": false,
          "internalType": "address",
          "name": "to",
          "type": "address"
        },
        {
          "indexed": false,
          "internalType": "uint256",
          "name": "amount",
          "type": "uint256"
        }
      ],
      "name": "SubscriptionCanceled",
      "type": "event"
    },
    {
      "anonymous": false,
      "inputs": [
        {
          "indexed": true,
          "internalType": "uint64",
          "name": "subId",
          "type": "uint64"
        },
        {
          "indexed": false,
          "internalType": "address",
          "name": "owner",
          "type": "address"
        }
      ],
      "name": "SubscriptionCreated",
      "type": "event"
    },
    {
      "anonymous": false,
      "inputs": [
        {
          "indexed": true,
          "internalType": "uint64",
          "name": "subId",
          "type": "uint64"
        },
        {
          "indexed": false,
          "internalType": "uint256",
          "name": "oldBalance",
          "type": "uint256"
        },
        {
          "indexed": false,
          "internalType": "uint256",
          "name": "newBalance",
          "type": "uint256"
        }
      ],
      "name": "SubscriptionFunded",
      "type": "event"
    },
    {
      "inputs": [],
      "name": "BASE_FEE",
      "outputs": [
        {
          "internalType": "uint96",
          "name": "",
          "type": "uint96"
        }
      ],
      "stateMutability": "view",
      "type": "function"
    },
    {
      "inputs": [],
      "name": "GAS_PRICE_LINK",
      "outputs": [
        {
          "internalType": "uint96",
          "name": "",
          "type": "uint96"
        }
      ],
      "stateMutability": "view",
      "type": "function"
    },
    {
      "inputs": [
        {
          "internalType": "uint64",
          "name": "_subId",
          "type": "uint64"
        }
      ],
      "name": "acceptSubscriptionOwnerTransfer",
      "outputs": [],
      "stateMutability": "pure",
      "type": "function"
    },
    {
      "inputs": [
        {
          "internalType": "uint64",
          "name": "_subId",
          "type": "uint64"
        },
        {
          "internalType": "address",
          "name": "_consumer",
          "type": "address"
        }
      ],
      "name": "addConsumer",
      "outputs": [],
      "stateMutability": "pure",
      "type": "function"
    },
    {
      "inputs": [
        {
          "internalType": "uint64",
          "name": "_subId",
          "type": "uint64"
        },
        {
          "internalType": "address",
          "name": "_to",
          "type": "address"
        }
      ],
      "name": "cancelSubscription",
      "outputs": [],
      "stateMutability": "nonpayable",
      "type": "function"
    },
    {
      "inputs": [],
      "name": "createSubscription",
      "outputs": [
        {
          "internalType": "uint64",
          "name": "_subId",
          "type": "uint64"
        }
      ],
      "stateMutability": "nonpayable",
      "type": "function"
    },
    {
      "inputs": [
        {
          "internalType": "uint256",
          "name": "_requestId",
          "type": "uint256"
        },
        {
          "internalType": "address",
          "name": "_consumer",
          "type": "address"
        }
      ],
      "name": "fulfillRandomWords",
      "outputs": [],
      "stateMutability": "nonpayable",
      "type": "function"
    },
    {
      "inputs": [
        {
          "internalType": "uint64",
          "name": "_subId",
          "type": "uint64"
        },
        {
          "internalType": "uint96",
          "name": "_amount",
          "type": "uint96"
        }
      ],
      "name": "fundSubscription",
      "outputs": [],
      "stateMutability": "nonpayable",
      "type": "function"
    },
    {
      "inputs": [],
      "name": "getRequestConfig",
      "outputs": [
        {
          "internalType": "uint16",
          "name": "",
          "type": "uint16"
        },
        {
          "internalType": "uint32",
          "name": "",
          "type": "uint32"
        },
        {
          "internalType": "bytes32[]",
          "name": "",
          "type": "bytes32[]"
        }
      ],
      "stateMutability": "pure",
      "type": "function"
    },
    {
      "inputs": [
        {
          "internalType": "uint64",
          "name": "_subId",
          "type": "uint64"
        }
      ],
      "name": "getSubscription",
      "outputs": [
        {
          "internalType": "uint96",
          "name": "balance",
          "type": "uint96"
        },
        {
          "internalType": "uint64",
          "name": "reqCount",
          "type": "uint64"
        },
        {
          "internalType": "address",
          "name": "owner",
          "type": "address"
        },
        {
          "internalType": "address[]",
          "name": "consumers",
          "type": "address[]"
        }
      ],
      "stateMutability": "view",
      "type": "function"
    },
    {
      "inputs": [
        {
          "internalType": "uint64",
          "name": "subId",
          "type": "uint64"
        }
      ],
      "name": "pendingRequestExists",
      "outputs": [
        {
          "internalType": "bool",
          "name": "",
          "type": "bool"
        }
      ],
      "stateMutability": "pure",
      "type": "function"
    },
    {
      "inputs": [
        {
          "internalType": "uint64",
          "name": "_subId",
          "type": "uint64"
        },
        {
          "internalType": "address",
          "name": "_consumer",
          "type": "address"
        }
      ],
      "name": "removeConsumer",
      "outputs": [],
      "stateMutability": "pure",
      "type": "function"
    },
    {
      "inputs": [
        {
          "internalType": "bytes32",
          "name": "_keyHash",
          "type": "bytes32"
        },
        {
          "internalType": "uint64",
          "name": "_subId",
          "type": "uint64"
        },
        {
          "internalType": "uint16",
          "name": "_minimumRequestConfirmations",
          "type": "uint16"
        },
        {
          "internalType": "uint32",
          "name": "_callbackGasLimit",
          "type": "uint32"
        },
        {
          "internalType": "uint32",
          "name": "_numWords",
          "type": "uint32"
        }
      ],
      "name": "requestRandomWords",
      "outputs": [
        {
          "internalType": "uint256",
          "name": "",
          "type": "uint256"
        }
      ],
      "stateMutability": "nonpayable",
      "type": "function"
    },
    {
      "inputs": [
        {
          "internalType": "uint64",
          "name": "_subId",
          "type": "uint64"
        },
        {
          "internalType": "address",
          "name": "_newOwner",
          "type": "address"
        }
      ],
      "name": "requestSubscriptionOwnerTransfer",
      "outputs": [],
      "stateMutability": "pure",
      "type": "function"
    }
  ],
  "bytecode": "60c060405260018055606460025534801561001957600080fd5b506040516110563803806110568339810160408190526100389161006b565b6001600160601b039182166080521660a05261009e565b80516001600160601b038116811461006657600080fd5b919050565b6000806040838503121561007e57600080fd5b6100878361004f565b91506100956020840161004f565b90509250929050565b60805160a051610f856100d1600039600081816101d3015261061901526000818161013201526106640152610f856000f3fe608060405234801561001057600080fd5b50600436106100e95760003560e01c80639f87fad71161008c578063a47c769611610066578063a47c7696146101f5578063afc69b5314610218578063d7ae1d301461022b578063e82ad7d41461023e57600080fd5b80639f87fad714610118578063a21a23e4146101ae578063a410347f146101ce57600080fd5b80635d3b1d30116100c85780635d3b1d301461016c5780637341c10c14610118578063808974ff1461018d57806382359740146101a057600080fd5b8062012291146100ee57806304c357cb146101185780633d18651e1461012d575b600080fd5b6040805160008152602081019182905261010f91600391621e848091610b62565b60405180910390f35b61012b610126366004610bf4565b610261565b005b6101547f000000000000000000000000000000000000000000000000000000000000000081565b6040516001600160601b03909116815260200161010f565b61017f61017a366004610c3b565b6102a0565b60405190815260200161010f565b61012b61019b366004610ca2565b6103f5565b61012b610126366004610cc5565b6101b66107ac565b6040516001600160401b03909116815260200161010f565b6101547f000000000000000000000000000000000000000000000000000000000000000081565b610208610203366004610cc5565b610874565b60405161010f9493929190610ce7565b61012b610226366004610d61565b610928565b61012b610239366004610bf4565b610a24565b61025161024c366004610cc5565b610b25565b604051901515815260200161010f565b60405162461bcd60e51b815260206004820152600f60248201526e1b9bdd081a5b5c1b195b595b9d1959608a1b60448201526064015b60405180910390fd5b6001600160401b0384166000908152600360205260408120546001600160a01b03166102df57604051630fb532db60e11b815260040160405180910390fd5b60018054600091826102f083610dd0565b9091555060028054919250600091908261030983610dd0565b9091555060408051606080820183526001600160401b038b811680845263ffffffff8b811660208087018281528d8416888a0181815260008e8152600485528b902099518a54935191518716600160601b0263ffffffff60601b1992909716600160401b026bffffffffffffffffffffffff19909416981697909717919091179590951692909217909555855189815290810187905261ffff8d16818701529283019390935260808201529151929350339290918b917f63373d1c4696214b898952999c9aaec57dac1ee2723cec59bea6888f489a97729160a0908290030190a4509695505050505050565b60005a6000848152600460205260408120549192506001600160401b0390911690036104595760405162461bcd60e51b81526020600482015260136024820152721b9bdb995e1a5cdd195b9d081c995c5d595cdd606a1b6044820152606401610297565b6000838152600460209081526040808320815160608101835290546001600160401b03808216835263ffffffff600160401b8304811695840195909552600160601b90910490931691810182905292918111156104b8576104b8610da4565b6040519080825280602002602001820160405280156104e1578160200160208202803683370190505b50905060005b826040015163ffffffff168110156105555760408051602081018890529081018290526060016040516020818303038152906040528051906020012060001c82828151811061053857610538610de9565b60209081029190910101528061054d81610dd0565b9150506104e7565b50600080631fe543e360e01b8784604051602401610574929190610dff565b604051602081830303815290604052906001600160e01b0319166020820180516001600160e01b03838183161783525050505090506000866001600160a01b0316856020015163ffffffff16836040516105ce9190610e4d565b60006040518083038160008787f1925050503d806000811461060c576040519150601f19603f3d011682016040523d82523d6000602084013e610611565b606091505b5050905060007f00000000000000000000000000000000000000000000000000000000000000006001600160601b03165a61064c9089610e88565b6106569190610e9f565b610689906001600160601b037f000000000000000000000000000000000000000000000000000000000000000016610ebe565b86516001600160401b03166000908152600360205260409020549091506001600160601b03808316600160a01b9092041610156106d957604051631e9acf1760e31b815260040160405180910390fd5b85516001600160401b031660009081526003602052604090208054829190601490610715908490600160a01b90046001600160601b0316610ed6565b82546101009290920a6001600160601b0381810219909316918316021790915560008b81526004602090815260409182902080546fffffffffffffffffffffffffffffffff1916905581518d815292851690830152841515908201528a91507f7dffc5ae5ee4e2e4df1651cf6ad329a73cebdb728f37ea0187b9b17e036756e49060600160405180910390a2505050505050505050565b600080546001600160401b031681806107c483610efe565b82546001600160401b039182166101009390930a928302928202191691909117909155604080518082018252338082526000602080840182815282548716835260038252858320945190516001600160601b0316600160a01b026001600160a01b03909116179093555492519081529190921692507f464722b4166576d3dcbba877b999bc35cf911f4eaf434b7eba68fa113951d0bf910160405180910390a2506000546001600160401b031690565b6001600160401b038116600090815260036020526040812054819081906060906001600160a01b03166108ba57604051630fb532db60e11b815260040160405180910390fd5b6001600160401b0385166000908152600360205260408120546001600160601b03600160a01b82041691906001600160a01b031681604051908082528060200260200182016040528015610918578160200160208202803683370190505b5093509350935093509193509193565b6001600160401b0382166000908152600360205260409020546001600160a01b031661096757604051630fb532db60e11b815260040160405180910390fd5b6001600160401b03821660009081526003602052604090208054600160a01b90046001600160601b031690829060146109a08385610f24565b92506101000a8154816001600160601b0302191690836001600160601b03160217905550826001600160401b03167fd39ec07f4e209f627a4c427971473820dc129761ba28de8906bd56f57101d4f88284846109fc9190610f24565b604080516001600160601b0393841681529290911660208301520160405180910390a2505050565b6001600160401b03821660009081526003602052604090205482906001600160a01b031680610a6657604051630fb532db60e11b815260040160405180910390fd5b336001600160a01b03821614610a9a57604051636c51fda960e11b81526001600160a01b0382166004820152602401610297565b6001600160401b0384166000818152600360209081526040918290205482516001600160a01b0388168152600160a01b9091046001600160601b0316918101919091527fe8ed5b475a5b5987aa9165e8731bb78043f39eee32ec5a1169a89e27fcd49815910160405180910390a25050506001600160401b0316600090815260036020526040812055565b60405162461bcd60e51b815260206004820152600f60248201526e1b9bdd081a5b5c1b195b595b9d1959608a1b6044820152600090606401610297565b60006060820161ffff86168352602063ffffffff86168185015260606040850152818551808452608086019150828701935060005b81811015610bb357845183529383019391830191600101610b97565b509098975050505050505050565b80356001600160401b0381168114610bd857600080fd5b919050565b80356001600160a01b0381168114610bd857600080fd5b60008060408385031215610c0757600080fd5b610c1083610bc1565b9150610c1e60208401610bdd565b90509250929050565b803563ffffffff81168114610bd857600080fd5b600080600080600060a08688031215610c5357600080fd5b85359450610c6360208701610bc1565b9350604086013561ffff81168114610c7a57600080fd5b9250610c8860608701610c27565b9150610c9660808701610c27565b90509295509295909350565b60008060408385031215610cb557600080fd5b82359150610c1e60208401610bdd565b600060208284031215610cd757600080fd5b610ce082610bc1565b9392505050565b6000608082016001600160601b038716835260206001600160401b0387168185015260018060a01b0380871660408601526080606086015282865180855260a087019150838801945060005b81811015610d51578551841683529484019491840191600101610d33565b50909a9950505050505050505050565b60008060408385031215610d7457600080fd5b610d7d83610bc1565b915060208301356001600160601b0381168114610d9957600080fd5b809150509250929050565b634e487b7160e01b600052604160045260246000fd5b634e487b7160e01b600052601160045260246000fd5b600060018201610de257610de2610dba565b5060010190565b634e487b7160e01b600052603260045260246000fd5b6000604082018483526020604081850152818551808452606086019150828701935060005b81811015610e4057845183529383019391830191600101610e24565b5090979650505050505050565b6000825160005b81811015610e6e5760208186018101518583015201610e54565b81811115610e7d576000828501525b509190910192915050565b600082821015610e9a57610e9a610dba565b500390565b6000816000190483118215151615610eb957610eb9610dba565b500290565b60008219821115610ed157610ed1610dba565b500190565b60006001600160601b0383811690831681811015610ef657610ef6610dba565b039392505050565b60006001600160401b03808316818103610f1a57610f1a610dba565b6001019392505050565b60006001600160601b03808316818516808303821115610f4657610f46610dba565b0194935050505056fea2646970667358221220ed4dc8468c14dfead03b6aa2dcbd462e1020433ef1c4e4f62e4ee251eaf2cc1f64736f6c634300080d0033",
  "bytecodeSha1": "93156ab203418fa0b1da29e5d5ce8589b2d18103",
  "compiler": {
    "evm_version": "istanbul",
    "optimizer": {
      "enabled": true,
      "runs": 200
    },
    "version": "0.8.13+commit.abaa5c0e"
  },
  "contractName": "VRFCoordinatorV2Mock",
  "language": "Solidity",
  "natspec": {
    "kind": "dev",
    "methods": {
      "createSubscription()": {
        "details": "You can manage the consumer set dynamically with addConsumer/removeConsumer.Note to fund the subscription, use transferAndCall. For exampleLINKTOKEN.transferAndCall(address(COORDINATOR),amount,abi.encode(subId));",
        "notice": "Create a VRF subscription.",
        "returns": {
          "_subId": "- A unique subscription id."
        }
      },
      "fulfillRandomWords(uint256,address)": {
        "details": "This mock uses a simplified formula for calculating payment amount and gas usage, and doesnot account for all edge cases handled in the real VRF coordinator. When making requestsagainst the real coordinator a small amount of additional LINK is required.",
        "notice": "fulfillRandomWords fulfills the given request, sending the random words to the suppliedconsumer.",
        "params": {
          "_consumer": "the VRF randomness consumer to send the result to",
          "_requestId": "the request to fulfill"
        }
      },
      "fundSubscription(uint64,uint96)": {
        "notice": "fundSubscription allows funding a subscription with an arbitrary amount for testing.",
        "params": {
          "_amount": "the amount to fund",
          "_subId": "the subscription to fund"
        }
      },
      "getRequestConfig()": {
        "notice": "Get configuration relevant for making requests",
        "returns": {
          "_0": "minimumRequestConfirmations global min for request confirmations",
          "_1": "maxGasLimit global max for request gas limit",
          "_2": "s_provingKeyHashes list of registered key hashes"
        }
      }
    },
    "version": 1
  },
  "opcodes": "PUSH1 0x80 PUSH1 0x40 MSTORE CALLVALUE DUP1 ISZERO PUSH2 0x10 JUMPI PUSH1 0x0 DUP1 REVERT JUMPDEST POP PUSH1 0x4 CALLDATASIZE LT PUSH2 0xE9 JUMPI PUSH1 0x0 CALLDATALOAD PUSH1 0xE0 SHR DUP1 PUSH4 0x9F87FAD7 GT PUSH2 0x8C JUMPI DUP1 PUSH4 0xA47C7696 GT PUSH2 0x66 JUMPI DUP1 PUSH4 0xA47C7696 EQ PUSH2 0x1F5 JUMPI DUP1 PUSH4 0xAFC69B53 EQ PUSH2 0x218 JUMPI DUP1 PUSH4 0xD7AE1D30 EQ PUSH2 0x22B JUMPI DUP1 PUSH4 0xE82AD7D4 EQ PUSH2 0x23E JUMPI PUSH1 0x0 DUP1 REVERT JUMPDEST DUP1 PUSH4 0x9F87FAD7 EQ PUSH2 0x118 JUMPI DUP1 PUSH4 0xA21A23E4 EQ PUSH2 0x1AE JUMPI DUP1 PUSH4 0xA410347F EQ PUSH2 0x1CE JUMPI PUSH1 0x0 DUP1 REVERT JUMPDEST DUP1 PUSH4 0x5D3B1D30 GT PUSH2 0xC8 JUMPI DUP1 PUSH4 0x5D3B1D30 EQ PUSH2 0x16C JUMPI DUP1 PUSH4 0x7341C10C EQ PUSH2 0x118 JUMPI DUP1 PUSH4 0x808974FF EQ PUSH2 0x18D JUMPI DUP1 PUSH4 0x82359740 EQ PUSH2 0x1A0 JUMPI PUSH1 0x0 DUP1 REVERT JUMPDEST DUP1 PUSH3 0x12291 EQ PUSH2 0xEE JUMPI DUP1 PUSH4 0x4C357CB EQ PUSH2 0x118 JUMPI DUP1 PUSH4 0x3D18651E EQ PUSH2 0x12D JUMPI JUMPDEST PUSH1 0x0 DUP1 REVERT JUMPDEST PUSH1 0x40 DUP1 MLOAD PUSH1 0x0 DUP2 MSTORE PUSH1 0x20 DUP2 ADD SWAP2 DUP3 SWAP1 MSTORE PUSH2 0x10F SWAP2 PUSH1 0x3 SWAP2 PUSH3 0x1E8480 SWAP2 PUSH2 0xB62 JUMP JUMPDEST PUSH1 0x40 MLOAD DUP1 SWAP2 SUB SWAP1 RETURN JUMPDEST PUSH2 0x12B PUSH2 0x126 CALLDATASIZE PUSH1 0x4 PUSH2 0xBF4 JUMP JUMPDEST PUSH2 0x261 JUMP JUMPDEST STOP JUMPDEST PUSH2 0x154 PUSH32 0x0 DUP2 JUMP JUMPDEST PUSH1 0x40 MLOAD PUSH1 0x1 PUSH1 0x1 PUSH1 0x60 SHL SUB SWAP1 SWAP2 AND DUP2 MSTORE PUSH1 0x20 ADD PUSH2 0x10F JUMP JUMPDEST PUSH2 0x17F PUSH2 0x17A CALLDATASIZE PUSH1 0x4 PUSH2 0xC3B JUMP JUMPDEST PUSH2 0x2A0 JUMP JUMPDEST PUSH1 0x40 MLOAD SWAP1 DUP2 MSTORE PUSH1 0x20 ADD PUSH2 0x10F JUMP JUMPDEST PUSH2 0x12B PUSH2 0x19B CALLDATASIZE PUSH1 0x4 PUSH2 0xCA2 JUMP JUMPDEST PUSH2 0x3F5 JUMP JUMPDEST PUSH2 0x12B PUSH2 0x126 CALLDATASIZE PUSH1 0x4 PUSH2 0xCC5 JUMP JUMPDEST PUSH2 0x1B6 PUSH2 0x7AC JUMP JUMPDEST PUSH1 0x40 MLOAD PUSH1 0x1 PUSH1 0x1 PUSH1 0x40 SHL SUB SWAP1 SWAP2 AND DUP2 MSTORE PUSH1 0x20 ADD PUSH2 0x10F JUMP JUMPDEST PUSH2 0x154 PUSH32 0x0 DUP2 JUMP JUMPDEST PUSH2 0x208 PUSH2 0x203 CALLDATASIZE PUSH1 0x4 PUSH2 0xCC5 JUMP JUMPDEST PUSH2 0x874 JUMP JUMPDEST PUSH1 0x40 MLOAD PUSH2 0x10F SWAP5 SWAP4 SWAP3 SWAP2 SWAP1 PUSH2 0xCE7 JUMP JUMPDEST PUSH2 0x12B PUSH2 0x226 CALLDATASIZE PUSH1 0x4 PUSH2 0xD61 JUMP JUMPDEST PUSH2 0x928 JUMP JUMPDEST PUSH2 0x12B PUSH2 0x239 CALLDATASIZE PUSH1 0x4 PUSH2 0xBF4 JUMP JUMPDEST PUSH2 0xA24 JUMP JUMPDEST PUSH2 0x251 PUSH2 0x24C CALLDATASIZE PUSH1 0x4 PUSH2 0xCC5 JUMP JUMPDEST PUSH2 0xB25 JUMP JUMPDEST PUSH1 0x40 MLOAD SWAP1 ISZERO ISZERO DUP2 MSTORE PUSH1 0x20 ADD PUSH2 0x10F JUMP JUMPDEST PUSH1 0x40 MLOAD PUSH3 0x461BCD PUSH1 0xE5 SHL DUP2 MSTORE PUSH1 0x20 PUSH1 0x4 DUP3 ADD MSTORE PUSH1 0xF PUSH1 0x24 DUP3 ADD MSTORE PUSH15 0x1B9BDD081A5B5C1B195B595B9D1959 PUSH1 0x8A SHL PUSH1 0x44 DUP3 ADD MSTORE PUSH1 0x64 ADD JUMPDEST PUSH1 0x40 MLOAD DUP1 SWAP2 SUB SWAP1 REVERT JUMPDEST PUSH1 0x1 PUSH1 0x1 PUSH1 0x40 SHL SUB DUP5 AND PUSH1 0x0 SWAP1 DUP2 MSTORE PUSH1 0x3 PUSH1 0x20 MSTORE PUSH1 0x40 DUP2 KECCAK256 SLOAD PUSH1 0x1 PUSH1 0x1 PUSH1 0xA0 SHL SUB AND PUSH2 0x2DF JUMPI PUSH1 0x40 MLOAD PUSH4 0xFB532DB PUSH1 0xE1 SHL DUP2 MSTORE PUSH1 0x4 ADD PUSH1 0x40 MLOAD DUP1 SWAP2 SUB SWAP1 REVERT JUMPDEST PUSH1 0x1 DUP1 SLOAD PUSH1 0x0 SWAP2 DUP3 PUSH2 0x2F0 DUP4 PUSH2 0xDD0 JUMP JUMPDEST SWAP1 SWAP2 SSTORE POP PUSH1 0x2 DUP1 SLOAD SWAP2 SWAP3 POP PUSH1 0x0 SWAP2 SWAP1 DUP3 PUSH2 0x309 DUP4 PUSH2 0xDD0 JUMP JUMPDEST SWAP1 SWAP2 SSTORE POP PUSH1 0x40 DUP1 MLOAD PUSH1 0x60 DUP1 DUP3 ADD DUP4 MSTORE PUSH1 0x1 PUSH1 0x1 PUSH1 0x40 SHL SUB DUP12 DUP2 AND DUP1 DUP5 MSTORE PUSH4 0xFFFFFFFF DUP12 DUP2 AND PUSH1 0x20 DUP1 DUP8 ADD DUP3 DUP2 MSTORE DUP14 DUP5 AND DUP9 DUP11 ADD DUP2 DUP2 MSTORE PUSH1 0x0 DUP15 DUP2 MSTORE PUSH1 0x4 DUP6 MSTORE DUP12 SWAP1 KECCAK256 SWAP10 MLOAD DUP11 SLOAD SWAP4 MLOAD SWAP2 MLOAD DUP8 AND PUSH1 0x1 PUSH1 0x60 SHL MUL PUSH4 0xFFFFFFFF PUSH1 0x60 SHL NOT SWAP3 SWAP1 SWAP8 AND PUSH1 0x1 PUSH1 0x40 SHL MUL PUSH12 0xFFFFFFFFFFFFFFFFFFFFFFFF NOT SWAP1 SWAP5 AND SWAP9 AND SWAP8 SWAP1 SWAP8 OR SWAP2 SWAP1 SWAP2 OR SWAP6 SWAP1 SWAP6 AND SWAP3 SWAP1 SWAP3 OR SWAP1 SWAP6 SSTORE DUP6 MLOAD DUP10 DUP2 MSTORE SWAP1 DUP2 ADD DUP8 SWAP1 MSTORE PUSH2 0xFFFF DUP14 AND DUP2 DUP8 ADD MSTORE SWAP3 DUP4 ADD SWAP4 SWAP1 SWAP4 MSTORE PUSH1 0x80 DUP3 ADD MSTORE SWAP2 MLOAD SWAP3 SWAP4 POP CALLER SWAP3 SWAP1 SWAP2 DUP12 SWAP2 PUSH32 0x63373D1C4696214B898952999C9AAEC57DAC1EE2723CEC59BEA6888F489A9772 SWAP2 PUSH1 0xA0 SWAP1 DUP3 SWAP1 SUB ADD SWAP1 LOG4 POP SWAP7 SWAP6 POP POP POP POP POP POP JUMP JUMPDEST PUSH1 0x0 GAS PUSH1 0x0 DUP5 DUP2 MSTORE PUSH1 0x4 PUSH1 0x20 MSTORE PUSH1 0x40 DUP2 KECCAK256 SLOAD SWAP2 SWAP3 POP PUSH1 0x1 PUSH1 0x1 PUSH1 0x40 SHL SUB SWAP1 SWAP2 AND SWAP1 SUB PUSH2 0x459 JUMPI PUSH1 0x40 MLOAD PUSH3 0x461BCD PUSH1 0xE5 SHL DUP2 MSTORE PUSH1 0x20 PUSH1 0x4 DUP3 ADD MSTORE PUSH1 0x13 PUSH1 0x24 DUP3 ADD MSTORE PUSH19 0x1B9BDB995E1A5CDD195B9D081C995C5D595CDD PUSH1 0x6A SHL PUSH1 0x44 DUP3 ADD MSTORE PUSH1 0x64 ADD PUSH2 0x297 JUMP JUMPDEST PUSH1 0x0 DUP4 DUP2 MSTORE PUSH1 0x4 PUSH1 0x20 SWAP1 DUP2 MSTORE PUSH1 0x40 DUP1 DUP4 KECCAK256 DUP2 MLOAD PUSH1 0x60 DUP2 ADD DUP4 MSTORE SWAP1 SLOAD PUSH1 0x1 PUSH1 0x1 PUSH1 0x40 SHL SUB DUP1 DUP3 AND DUP4 MSTORE PUSH4 0xFFFFFFFF PUSH1 0x1 PUSH1 0x40 SHL DUP4 DIV DUP2 AND SWAP6 DUP5 ADD SWAP6 SWAP1 SWAP6 MSTORE PUSH1 0x1 PUSH1 0x60 SHL SWAP1 SWAP2 DIV SWAP1 SWAP4 AND SWAP2 DUP2 ADD DUP3 SWAP1 MSTORE SWAP3 SWAP2 DUP2 GT ISZERO PUSH2 0x4B8 JUMPI PUSH2 0x4B8 PUSH2 0xDA4 JUMP JUMPDEST PUSH1 0x40 MLOAD SWAP1 DUP1 DUP3 MSTORE DUP1 PUSH1 0x20 MUL PUSH1 0x20 ADD DUP3 ADD PUSH1 0x40 MSTORE DUP1 ISZERO PUSH2 0x4E1 JUMPI DUP2 PUSH1 0x20 ADD PUSH1 0x20 DUP3 MUL DUP1 CALLDATASIZE DUP4 CALLDATACOPY ADD SWAP1 POP JUMPDEST POP SWAP1 POP PUSH1 0x0 JUMPDEST DUP3 PUSH1 0x40 ADD MLOAD PUSH4 0xFFFFFFFF AND DUP2 LT ISZERO PUSH2 0x555 JUMPI PUSH1 0x40 DUP1 MLOAD PUSH1 0x20 DUP2 ADD DUP9 SWAP1 MSTORE SWAP1 DUP2 ADD DUP3 SWAP1 MSTORE PUSH1 0x60 ADD PUSH1 0x40 MLOAD PUSH1 0x20 DUP2 DUP4 SUB SUB DUP2 MSTORE SWAP1 PUSH1 0x40 MSTORE DUP1 MLOAD SWAP1 PUSH1 0x20 ADD KECCAK256 PUSH1 0x0 SHR DUP3 DUP3 DUP2 MLOAD DUP2 LT PUSH2 0x538 JUMPI PUSH2 0x538 PUSH2 0xDE9 JUMP JUMPDEST PUSH1 0x20 SWAP1 DUP2 MUL SWAP2 SWAP1 SWAP2 ADD ADD MSTORE DUP1 PUSH2 0x54D DUP2 PUSH2 0xDD0 JUMP JUMPDEST SWAP2 POP POP PUSH2 0x4E7 JUMP JUMPDEST POP PUSH1 0x0 DUP1 PUSH4 0x1FE543E3 PUSH1 0xE0 SHL DUP8 DUP5 PUSH1 0x40 MLOAD PUSH1 0x24 ADD PUSH2 0x574 SWAP3 SWAP2 SWAP1 PUSH2 0xDFF JUMP JUMPDEST PUSH1 0x40 MLOAD PUSH1 0x20 DUP2 DUP4 SUB SUB DUP2 MSTORE SWAP1 PUSH1 0x40 MSTORE SWAP1 PUSH1 0x1 PUSH1 0x1 PUSH1 0xE0 SHL SUB NOT AND PUSH1 0x20 DUP3 ADD DUP1 MLOAD PUSH1 0x1 PUSH1 0x1 PUSH1 0xE0 SHL SUB DUP4 DUP2 DUP4 AND OR DUP4 MSTORE POP POP POP POP SWAP1 POP PUSH1 0x0 DUP7 PUSH1 0x1 PUSH1 0x1 PUSH1 0xA0 SHL SUB AND DUP6 PUSH1 0x20 ADD MLOAD PUSH4 0xFFFFFFFF AND DUP4 PUSH1 0x40 MLOAD PUSH2 0x5CE SWAP2 SWAP1 PUSH2 0xE4D JUMP JUMPDEST PUSH1 0x0 PUSH1 0x40 MLOAD DUP1 DUP4 SUB DUP2 PUSH1 0x0 DUP8 DUP8 CALL SWAP3 POP POP POP RETURNDATASIZE DUP1 PUSH1 0x0 DUP2 EQ PUSH2 0x60C JUMPI PUSH1 0x40 MLOAD SWAP2 POP PUSH1 0x1F NOT PUSH1 0x3F RETURNDATASIZE ADD AND DUP3 ADD PUSH1 0x40 MSTORE RETURNDATASIZE DUP3 MSTORE RETURNDATASIZE PUSH1 0x0 PUSH1 0x20 DUP5 ADD RETURNDATACOPY PUSH2 0x611 JUMP JUMPDEST PUSH1 0x60 SWAP2 POP JUMPDEST POP POP SWAP1 POP PUSH1 0x0 PUSH32 0x0 PUSH1 0x1 PUSH1 0x1 PUSH1 0x60 SHL SUB AND GAS PUSH2 0x64C SWAP1 DUP10 PUSH2 0xE88 JUMP JUMPDEST PUSH2 0x656 SWAP2 SWAP1 PUSH2 0xE9F JUMP JUMPDEST PUSH2 0x689 SWAP1 PUSH1 0x1 PUSH1 0x1 PUSH1 0x60 SHL SUB PUSH32 0x0 AND PUSH2 0xEBE JUMP JUMPDEST DUP7 MLOAD PUSH1 0x1 PUSH1 0x1 PUSH1 0x40 SHL SUB AND PUSH1 0x0 SWAP1 DUP2 MSTORE PUSH1 0x3 PUSH1 0x20 MSTORE PUSH1 0x40 SWAP1 KECCAK256 SLOAD SWAP1 SWAP2 POP PUSH1 0x1 PUSH1 0x1 PUSH1 0x60 SHL SUB DUP1 DUP4 AND PUSH1 0x1 PUSH1 0xA0 SHL SWAP1 SWAP3 DIV AND LT ISZERO PUSH2 0x6D9 JUMPI PUSH1 0x40 MLOAD PUSH4 0x1E9ACF17 PUSH1 0xE3 SHL DUP2 MSTORE PUSH1 0x4 ADD PUSH1 0x40 MLOAD DUP1 SWAP2 SUB SWAP1 REVERT JUMPDEST DUP6 MLOAD PUSH1 0x1 PUSH1 0x1 PUSH1 0x40 SHL SUB AND PUSH1 0x0 SWAP1 DUP2 MSTORE PUSH1 0x3 PUSH1 0x20 MSTORE PUSH1 0x40 SWAP1 KECCAK256 DUP1 SLOAD DUP3 SWAP2 SWAP1 PUSH1 0x14 SWAP1 PUSH2 0x715 SWAP1 DUP5 SWAP1 PUSH1 0x1 PUSH1 0xA0 SHL SWAP1 DIV PUSH1 0x1 PUSH1 0x1 PUSH1 0x60 SHL SUB AND PUSH2 0xED6 JUMP JUMPDEST DUP3 SLOAD PUSH2 0x100 SWAP3 SWAP1 SWAP3 EXP PUSH1 0x1 PUSH1 0x1 PUSH1 0x60 SHL SUB DUP2 DUP2 MUL NOT SWAP1 SWAP4 AND SWAP2 DUP4 AND MUL OR SWAP1 SWAP2 SSTORE PUSH1 0x0 DUP12 DUP2 MSTORE PUSH1 0x4 PUSH1 0x20 SWAP1 DUP2 MSTORE PUSH1 0x40 SWAP2 DUP3 SWAP1 KECCAK256 DUP1 SLOAD PUSH16 0xFFFFFFFFFFFFFFFFFFFFFFFFFFFFFFFF NOT AND SWAP1 SSTORE DUP2 MLOAD DUP14 DUP2 MSTORE SWAP3 DUP6 AND SWAP1 DUP4 ADD MSTORE DUP5 ISZERO ISZERO SWAP1 DUP3 ADD MSTORE DUP11 SWAP2 POP PUSH32 0x7DFFC5AE5EE4E2E4DF1651CF6AD329A73CEBDB728F37EA0187B9B17E036756E4 SWAP1 PUSH1 0x60 ADD PUSH1 0x40 MLOAD DUP1 SWAP2 SUB SWAP1 LOG2 POP POP POP POP POP POP POP POP POP JUMP JUMPDEST PUSH1 0x0 DUP1 SLOAD PUSH1 0x1 PUSH1 0x1 PUSH1 0x40 SHL SUB AND DUP2 DUP1 PUSH2 0x7C4 DUP4 PUSH2 0xEFE JUMP JUMPDEST DUP3 SLOAD PUSH1 0x1 PUSH1 0x1 PUSH1 0x40 SHL SUB SWAP2 DUP3 AND PUSH2 0x100 SWAP4 SWAP1 SWAP4 EXP SWAP3 DUP4 MUL SWAP3 DUP3 MUL NOT AND SWAP2 SWAP1 SWAP2 OR SWAP1 SWAP2 SSTORE PUSH1 0x40 DUP1 MLOAD DUP1 DUP3 ADD DUP3 MSTORE CALLER DUP1 DUP3 MSTORE PUSH1 0x0 PUSH1 0x20 DUP1 DUP5 ADD DUP3 DUP2 MSTORE DUP3 SLOAD DUP8 AND DUP4 MSTORE PUSH1 0x3 DUP3 MSTORE DUP6 DUP4 KECCAK256 SWAP5 MLOAD SWAP1 MLOAD PUSH1 0x1 PUSH1 0x1 PUSH1 0x60 SHL SUB AND PUSH1 0x1 PUSH1 0xA0 SHL MUL PUSH1 0x1 PUSH1 0x1 PUSH1 0xA0 SHL SUB SWAP1 SWAP2 AND OR SWAP1 SWAP4 SSTORE SLOAD SWAP3 MLOAD SWAP1 DUP2 MSTORE SWAP2 SWAP1 SWAP3 AND SWAP3 POP PUSH32 0x464722B4166576D3DCBBA877B999BC35CF911F4EAF434B7EBA68FA113951D0BF SWAP2 ADD PUSH1 0x40 MLOAD DUP1 SWAP2 SUB SWAP1 LOG2 POP PUSH1 0x0 SLOAD PUSH1 0x1 PUSH1 0x1 PUSH1 0x40 SHL SUB AND SWAP1 JUMP JUMPDEST PUSH1 0x1 PUSH1 0x1 PUSH1 0x40 SHL SUB DUP2 AND PUSH1 0x0 SWAP1 DUP2 MSTORE PUSH1 0x3 PUSH1 0x20 MSTORE PUSH1 0x40 DUP2 KECCAK256 SLOAD DUP2 SWAP1 DUP2 SWAP1 PUSH1 0x60 SWAP1 PUSH1 0x1 PUSH1 0x1 PUSH1 0xA0 SHL SUB AND PUSH2 0x8BA JUMPI PUSH1 0x40 MLOAD PUSH4 0xFB532DB PUSH1 0xE1 SHL DUP2 MSTORE PUSH1 0x4 ADD PUSH1 0x40 MLOAD DUP1 SWAP2 SUB SWAP1 REVERT JUMPDEST PUSH1 0x1 PUSH1 0x1 PUSH1 0x40 SHL SUB DUP6 AND PUSH1 0x0 SWAP1 DUP2 MSTORE PUSH1 0x3 PUSH1 0x20 MSTORE PUSH1 0x40 DUP2 KECCAK256 SLOAD PUSH1 0x1 PUSH1 0x1 PUSH1 0x60 SHL SUB PUSH1 0x1 PUSH1 0xA0 SHL DUP3 DIV AND SWAP2 SWAP1 PUSH1 0x1 PUSH1 0x1 PUSH1 0xA0 SHL SUB AND DUP2 PUSH1 0x40 MLOAD SWAP1 DUP1 DUP3 MSTORE DUP1 PUSH1 0x20 MUL PUSH1 0x20 ADD DUP3 ADD PUSH1 0x40 MSTORE DUP1 ISZERO PUSH2 0x918 JUMPI DUP2 PUSH1 0x20 ADD PUSH1 0x20 DUP3 MUL DUP1 CALLDATASIZE DUP4 CALLDATACOPY ADD SWAP1 POP JUMPDEST POP SWAP4 POP SWAP4 POP SWAP4 POP SWAP4 POP SWAP2 SWAP4 POP SWAP2 SWAP4 JUMP JUMPDEST PUSH1 0x1 PUSH1 0x1 PUSH1 0x40 SHL SUB DUP3 AND PUSH1 0x0 SWAP1 DUP2 MSTORE PUSH1 0x3 PUSH1 0x20 MSTORE PUSH1 0x40 SWAP1 KECCAK256 SLOAD PUSH1 0x1 PUSH1 0x1 PUSH1 0xA0 SHL SUB AND PUSH2 0x967 JUMPI PUSH1 0x40 MLOAD PUSH4 0xFB532DB PUSH1 0xE1 SHL DUP2 MSTORE PUSH1 0x4 ADD PUSH1 0x40 MLOAD DUP1 SWAP2 SUB SWAP1 REVERT JUMPDEST PUSH1 0x1 PUSH1 0x1 PUSH1 0x40 SHL SUB DUP3 AND PUSH1 0x0 SWAP1 DUP2 MSTORE PUSH1 0x3 PUSH1 0x20 MSTORE PUSH1 0x40 SWAP1 KECCAK256 DUP1 SLOAD PUSH1 0x1 PUSH1 0xA0 SHL SWAP1 DIV PUSH1 0x1 PUSH1 0x1 PUSH1 0x60 SHL SUB AND SWAP1 DUP3 SWAP1 PUSH1 0x14 PUSH2 0x9A0 DUP4 DUP6 PUSH2 0xF24 JUMP JUMPDEST SWAP3 POP PUSH2 0x100 EXP DUP2 SLOAD DUP2 PUSH1 0x1 PUSH1 0x1 PUSH1 0x60 SHL SUB MUL NOT AND SWAP1 DUP4 PUSH1 0x1 PUSH1 0x1 PUSH1 0x60 SHL SUB AND MUL OR SWAP1 SSTORE POP DUP3 PUSH1 0x1 PUSH1 0x1 PUSH1 0x40 SHL SUB AND PUSH32 0xD39EC07F4E209F627A4C427971473820DC129761BA28DE8906BD56F57101D4F8 DUP3 DUP5 DUP5 PUSH2 0x9FC SWAP2 SWAP1 PUSH2 0xF24 JUMP JUMPDEST PUSH1 0x40 DUP1 MLOAD PUSH1 0x1 PUSH1 0x1 PUSH1 0x60 SHL SUB SWAP4 DUP5 AND DUP2 MSTORE SWAP3 SWAP1 SWAP2 AND PUSH1 0x20 DUP4 ADD MSTORE ADD PUSH1 0x40 MLOAD DUP1 SWAP2 SUB SWAP1 LOG2 POP POP POP JUMP JUMPDEST PUSH1 0x1 PUSH1 0x1 PUSH1 0x40 SHL SUB DUP3 AND PUSH1 0x0 SWAP1 DUP2 MSTORE PUSH1 0x3 PUSH1 0x20 MSTORE PUSH1 0x40 SWAP1 KECCAK256 SLOAD DUP3 SWAP1 PUSH1 0x1 PUSH1 0x1 PUSH1 0xA0 SHL SUB AND DUP1 PUSH2 0xA66 JUMPI PUSH1 0x40 MLOAD PUSH4 0xFB532DB PUSH1 0xE1 SHL DUP2 MSTORE PUSH1 0x4 ADD PUSH1 0x40 MLOAD DUP1 SWAP2 SUB SWAP1 REVERT JUMPDEST CALLER PUSH1 0x1 PUSH1 0x1 PUSH1 0xA0 SHL SUB DUP3 AND EQ PUSH2 0xA9A JUMPI PUSH1 0x40 MLOAD PUSH4 0x6C51FDA9 PUSH1 0xE1 SHL DUP2 MSTORE PUSH1 0x1 PUSH1 0x1 PUSH1 0xA0 SHL SUB DUP3 AND PUSH1 0x4 DUP3 ADD MSTORE PUSH1 0x24 ADD PUSH2 0x297 JUMP JUMPDEST PUSH1 0x1 PUSH1 0x1 PUSH1 0x40 SHL SUB DUP5 AND PUSH1 0x0 DUP2 DUP2 MSTORE PUSH1 0x3 PUSH1 0x20 SWAP1 DUP2 MSTORE PUSH1 0x40 SWAP2 DUP3 SWAP1 KECCAK256 SLOAD DUP3 MLOAD PUSH1 0x1 PUSH1 0x1 PUSH1 0xA0 SHL SUB DUP9 AND DUP2 MSTORE PUSH1 0x1 PUSH1 0xA0 SHL SWAP1 SWAP2 DIV PUSH1 0x1 PUSH1 0x1 PUSH1 0x60 SHL SUB AND SWAP2 DUP2 ADD SWAP2 SWAP1 SWAP2 MSTORE PUSH32 0xE8ED5B475A5B5987AA9165E8731BB78043F39EEE32EC5A1169A89E27FCD49815 SWAP2 ADD PUSH1 0x40 MLOAD DUP1 SWAP2 SUB SWAP1 LOG2 POP POP POP PUSH1 0x1 PUSH1 0x1 PUSH1 0x40 SHL SUB AND PUSH1 0x0 SWAP1 DUP2 MSTORE PUSH1 0x3 PUSH1 0x20 MSTORE PUSH1 0x40 DUP2 KECCAK256 SSTORE JUMP JUMPDEST PUSH1 0x40 MLOAD PUSH3 0x461BCD PUSH1 0xE5 SHL DUP2 MSTORE PUSH1 0x20 PUSH1 0x4 DUP3 ADD MSTORE PUSH1 0xF PUSH1 0x24 DUP3 ADD MSTORE PUSH15 0x1B9BDD081A5B5C1B195B595B9D1959 PUSH1 0x8A SHL PUSH1 0x44 DUP3 ADD MSTORE PUSH1 0x0 SWAP1 PUSH1 0x64 ADD PUSH2 0x297 JUMP JUMPDEST PUSH1 0x0 PUSH1 0x60 DUP3 ADD PUSH2 0xFFFF DUP7 AND DUP4 MSTORE PUSH1 0x20 PUSH4 0xFFFFFFFF DUP7 AND DUP2 DUP6 ADD MSTORE PUSH1 0x60 PUSH1 0x40 DUP6 ADD MSTORE DUP2 DUP6 MLOAD DUP1 DUP5 MSTORE PUSH1 0x80 DUP7 ADD SWAP2 POP DUP3 DUP8 ADD SWAP4 POP PUSH1 0x0 JUMPDEST DUP2 DUP2 LT ISZERO PUSH2 0xBB3 JUMPI DUP5 MLOAD DUP4 MSTORE SWAP4 DUP4 ADD SWAP4 SWAP2 DUP4 ADD SWAP2 PUSH1 0x1 ADD PUSH2 0xB97 JUMP JUMPDEST POP SWAP1 SWAP9 SWAP8 POP POP POP POP POP POP POP POP JUMP JUMPDEST DUP1 CALLDATALOAD PUSH1 0x1 PUSH1 0x1 PUSH1 0x40 SHL SUB DUP2 AND DUP2 EQ PUSH2 0xBD8 JUMPI PUSH1 0x0 DUP1 REVERT JUMPDEST SWAP2 SWAP1 POP JUMP JUMPDEST DUP1 CALLDATALOAD PUSH1 0x1 PUSH1 0x1 PUSH1 0xA0 SHL SUB DUP2 AND DUP2 EQ PUSH2 0xBD8 JUMPI PUSH1 0x0 DUP1 REVERT JUMPDEST PUSH1 0x0 DUP1 PUSH1 0x40 DUP4 DUP6 SUB SLT ISZERO PUSH2 0xC07 JUMPI PUSH1 0x0 DUP1 REVERT JUMPDEST PUSH2 0xC10 DUP4 PUSH2 0xBC1 JUMP JUMPDEST SWAP2 POP PUSH2 0xC1E PUSH1 0x20 DUP5 ADD PUSH2 0xBDD JUMP JUMPDEST SWAP1 POP SWAP3 POP SWAP3 SWAP1 POP JUMP JUMPDEST DUP1 CALLDATALOAD PUSH4 0xFFFFFFFF DUP2 AND DUP2 EQ PUSH2 0xBD8 JUMPI PUSH1 0x0 DUP1 REVERT JUMPDEST PUSH1 0x0 DUP1 PUSH1 0x0 DUP1 PUSH1 0x0 PUSH1 0xA0 DUP7 DUP9 SUB SLT ISZERO PUSH2 0xC53 JUMPI PUSH1 0x0 DUP1 REVERT JUMPDEST DUP6 CALLDATALOAD SWAP5 POP PUSH2 0xC63 PUSH1 0x20 DUP8 ADD PUSH2 0xBC1 JUMP JUMPDEST SWAP4 POP PUSH1 0x40 DUP7 ADD CALLDATALOAD PUSH2 0xFFFF DUP2 AND DUP2 EQ PUSH2 0xC7A JUMPI PUSH1 0x0 DUP1 REVERT JUMPDEST SWAP3 POP PUSH2 0xC88 PUSH1 0x60 DUP8 ADD PUSH2 0xC27 JUMP JUMPDEST SWAP2 POP PUSH2 0xC96 PUSH1 0x80 DUP8 ADD PUSH2 0xC27 JUMP JUMPDEST SWAP1 POP SWAP3 SWAP6 POP SWAP3 SWAP6 SWAP1 SWAP4 POP JUMP JUMPDEST PUSH1 0x0 DUP1 PUSH1 0x40 DUP4 DUP6 SUB SLT ISZERO PUSH2 0xCB5 JUMPI PUSH1 0x0 DUP1 REVERT JUMPDEST DUP3 CALLDATALOAD SWAP2 POP PUSH2 0xC1E PUSH1 0x20 DUP5 ADD PUSH2 0xBDD JUMP JUMPDEST PUSH1 0x0 PUSH1 0x20 DUP3 DUP5 SUB SLT ISZERO PUSH2 0xCD7 JUMPI PUSH1 0x0 DUP1 REVERT JUMPDEST PUSH2 0xCE0 DUP3 PUSH2 0xBC1 JUMP JUMPDEST SWAP4 SWAP3 POP POP POP JUMP JUMPDEST PUSH1 0x0 PUSH1 0x80 DUP3 ADD PUSH1 0x1 PUSH1 0x1 PUSH1 0x60 SHL SUB DUP8 AND DUP4 MSTORE PUSH1 0x20 PUSH1 0x1 PUSH1 0x1 PUSH1 0x40 SHL SUB DUP8 AND DUP2 DUP6 ADD MSTORE PUSH1 0x1 DUP1 PUSH1 0xA0 SHL SUB DUP1 DUP8 AND PUSH1 0x40 DUP7 ADD MSTORE PUSH1 0x80 PUSH1 0x60 DUP7 ADD MSTORE DUP3 DUP7 MLOAD DUP1 DUP6 MSTORE PUSH1 0xA0 DUP8 ADD SWAP2 POP DUP4 DUP9 ADD SWAP5 POP PUSH1 0x0 JUMPDEST DUP2 DUP2 LT ISZERO PUSH2 0xD51 JUMPI DUP6 MLOAD DUP5 AND DUP4 MSTORE SWAP5 DUP5 ADD SWAP5 SWAP2 DUP5 ADD SWAP2 PUSH1 0x1 ADD PUSH2 0xD33 JUMP JUMPDEST POP SWAP1 SWAP11 SWAP10 POP POP POP POP POP POP POP POP POP POP JUMP JUMPDEST PUSH1 0x0 DUP1 PUSH1 0x40 DUP4 DUP6 SUB SLT ISZERO PUSH2 0xD74 JUMPI PUSH1 0x0 DUP1 REVERT JUMPDEST PUSH2 0xD7D DUP4 PUSH2 0xBC1 JUMP JUMPDEST SWAP2 POP PUSH1 0x20 DUP4 ADD CALLDATALOAD PUSH1 0x1 PUSH1 0x1 PUSH1 0x60 SHL SUB DUP2 AND DUP2 EQ PUSH2 0xD99 JUMPI PUSH1 0x0 DUP1 REVERT JUMPDEST DUP1 SWAP2 POP POP SWAP3 POP SWAP3 SWAP1 POP JUMP JUMPDEST PUSH4 0x4E487B71 PUSH1 0xE0 SHL PUSH1 0x0 MSTORE PUSH1 0x41 PUSH1 0x4 MSTORE PUSH1 0x24 PUSH1 0x0 REVERT JUMPDEST PUSH4 0x4E487B71 PUSH1 0xE0 SHL PUSH1 0x0 MSTORE PUSH1 0x11 PUSH1 0x4 MSTORE PUSH1 0x24 PUSH1 0x0 REVERT JUMPDEST PUSH1 0x0 PUSH1 0x1 DUP3 ADD PUSH2 0xDE2 JUMPI PUSH2 0xDE2 PUSH2 0xDBA JUMP JUMPDEST POP PUSH1 0x1 ADD SWAP1 JUMP JUMPDEST PUSH4 0x4E487B71 PUSH1 0xE0 SHL PUSH1 0x0 MSTORE PUSH1 0x32 PUSH1 0x4 MSTORE PUSH1 0x24 PUSH1 0x0 REVERT JUMPDEST PUSH1 0x0 PUSH1 0x40 DUP3 ADD DUP5 DUP4 MSTORE PUSH1 0x20 PUSH1 0x40 DUP2 DUP6 ADD MSTORE DUP2 DUP6 MLOAD DUP1 DUP5 MSTORE PUSH1 0x60 DUP7 ADD SWAP2 POP DUP3 DUP8 ADD SWAP4 POP PUSH1 0x0 JUMPDEST DUP2 DUP2 LT ISZERO PUSH2 0xE40 JUMPI DUP5 MLOAD DUP4 MSTORE SWAP4 DUP4 ADD SWAP4 SWAP2 DUP4 ADD SWAP2 PUSH1 0x1 ADD PUSH2 0xE24 JUMP JUMPDEST POP SWAP1 SWAP8 SWAP7 POP POP POP POP POP POP POP JUMP JUMPDEST PUSH1 0x0 DUP3 MLOAD PUSH1 0x0 JUMPDEST DUP2 DUP2 LT ISZERO PUSH2 0xE6E JUMPI PUSH1 0x20 DUP2 DUP7 ADD DUP2 ADD MLOAD DUP6 DUP4 ADD MSTORE ADD PUSH2 0xE54 JUMP JUMPDEST DUP2 DUP2 GT ISZERO PUSH2 0xE7D JUMPI PUSH1 0x0 DUP3 DUP6 ADD MSTORE JUMPDEST POP SWAP2 SWAP1 SWAP2 ADD SWAP3 SWAP2 POP POP JUMP JUMPDEST PUSH1 0x0 DUP3 DUP3 LT ISZERO PUSH2 0xE9A JUMPI PUSH2 0xE9A PUSH2 0xDBA JUMP JUMPDEST POP SUB SWAP1 JUMP JUMPDEST PUSH1 0x0 DUP2 PUSH1 0x0 NOT DIV DUP4 GT DUP3 ISZERO ISZERO AND ISZERO PUSH2 0xEB9 JUMPI PUSH2 0xEB9 PUSH2 0xDBA JUMP JUMPDEST POP MUL SWAP1 JUMP JUMPDEST PUSH1 0x0 DUP3 NOT DUP3 GT ISZERO PUSH2 0xED1 JUMPI PUSH2 0xED1 PUSH2 0xDBA JUMP JUMPDEST POP ADD SWAP1 JUMP JUMPDEST PUSH1 0x0 PUSH1 0x1 PUSH1 0x1 PUSH1 0x60 SHL SUB DUP4 DUP2 AND SWAP1 DUP4 AND DUP2 DUP2 LT ISZERO PUSH2 0xEF6 JUMPI PUSH2 0xEF6 PUSH2 0xDBA JUMP JUMPDEST SUB SWAP4 SWAP3 POP POP POP JUMP JUMPDEST PUSH1 0x0 PUSH1 0x1 PUSH1 0x1 PUSH1 0x40 SHL SUB DUP1 DUP4 AND DUP2 DUP2 SUB PUSH2 0xF1A JUMPI PUSH2 0xF1A PUSH2 0xDBA JUMP JUMPDEST PUSH1 0x1 ADD SWAP4 SWAP3 POP POP POP JUMP JUMPDEST PUSH1 0x0 PUSH1 0x1 PUSH1 0x1 PUSH1 0x60 SHL SUB DUP1 DUP4 AND DUP2 DUP6 AND DUP1 DUP4 SUB DUP3 GT ISZERO PUSH2 0xF46 JUMPI PUSH2 0xF46 PUSH2 0xDBA JUMP JUMPDEST ADD SWAP5 SWAP4 POP POP POP POP JUMP INVALID LOG2 PUSH5 0x6970667358 0x22 SLT KECCAK256 0xED 0x4D 0xC8 CHAINID DUP13 EQ 0xDF 0xEA 0xD0 EXTCODESIZE PUSH11 0xA2DCBD462E1020433EF1C4 0xE4 0xF6 0x2E 0x4E 0xE2 MLOAD 0xEA CALLCODE 0xCC 0x1F PUSH5 0x736F6C6343 STOP ADDMOD 0xD STOP CALLER ",
  "sha1": "3c9fb710dce32f503a5e50637d51320cf30b6f4b",
  "source": "// SPDX-License-Identifier: MIT\n// A mock for testing code that relies on VRFCoordinatorV2.\npragma solidity ^0.8.0;\n\nimport \"@chainlink/contracts/src/v0.8/interfaces/LinkTokenInterface.sol\";\nimport \"@chainlink/contracts/src/v0.8/interfaces/VRFCoordinatorV2Interface.sol\";\nimport \"@chainlink/contracts/src/v0.8/VRFConsumerBaseV2.sol\";\n\ncontract VRFCoordinatorV2Mock is VRFCoordinatorV2Interface {\n    uint96 public immutable BASE_FEE;\n    uint96 public immutable GAS_PRICE_LINK;\n\n    error InvalidSubscription();\n    error InsufficientBalance();\n    error MustBeSubOwner(address owner);\n\n    event RandomWordsRequested(\n        bytes32 indexed keyHash,\n        uint256 requestId,\n        uint256 preSeed,\n        uint64 indexed subId,\n        uint16 minimumRequestConfirmations,\n        uint32 callbackGasLimit,\n        uint32 numWords,\n        address indexed sender\n    );\n    event RandomWordsFulfilled(\n        uint256 indexed requestId,\n        uint256 outputSeed,\n        uint96 payment,\n        bool success\n    );\n    event SubscriptionCreated(uint64 indexed subId, address owner);\n    event SubscriptionFunded(\n        uint64 indexed subId,\n        uint256 oldBalance,\n        uint256 newBalance\n    );\n    event SubscriptionCanceled(\n        uint64 indexed subId,\n        address to,\n        uint256 amount\n    );\n\n    uint64 s_currentSubId;\n    uint256 s_nextRequestId = 1;\n    uint256 s_nextPreSeed = 100;\n    struct Subscription {\n        address owner;\n        uint96 balance;\n    }\n    mapping(uint64 => Subscription) s_subscriptions; /* subId */ /* subscription */\n\n    struct Request {\n        uint64 subId;\n        uint32 callbackGasLimit;\n        uint32 numWords;\n    }\n    mapping(uint256 => Request) s_requests; /* requestId */ /* request */\n\n    constructor(uint96 _baseFee, uint96 _gasPriceLink) {\n        BASE_FEE = _baseFee;\n        GAS_PRICE_LINK = _gasPriceLink;\n    }\n\n    /**\n     * @notice fulfillRandomWords fulfills the given request, sending the random words to the supplied\n     * @notice consumer.\n     *\n     * @dev This mock uses a simplified formula for calculating payment amount and gas usage, and does\n     * @dev not account for all edge cases handled in the real VRF coordinator. When making requests\n     * @dev against the real coordinator a small amount of additional LINK is required.\n     *\n     * @param _requestId the request to fulfill\n     * @param _consumer the VRF randomness consumer to send the result to\n     */\n    function fulfillRandomWords(uint256 _requestId, address _consumer)\n        external\n    {\n        uint256 startGas = gasleft();\n        if (s_requests[_requestId].subId == 0) {\n            revert(\"nonexistent request\");\n        }\n        Request memory req = s_requests[_requestId];\n\n        uint256[] memory words = new uint256[](req.numWords);\n        for (uint256 i = 0; i < req.numWords; i++) {\n            words[i] = uint256(keccak256(abi.encode(_requestId, i)));\n        }\n\n        VRFConsumerBaseV2 v;\n        bytes memory callReq = abi.encodeWithSelector(\n            v.rawFulfillRandomWords.selector,\n            _requestId,\n            words\n        );\n        (bool success, ) = _consumer.call{gas: req.callbackGasLimit}(callReq);\n\n        uint96 payment = uint96(\n            BASE_FEE + ((startGas - gasleft()) * GAS_PRICE_LINK)\n        );\n        if (s_subscriptions[req.subId].balance < payment) {\n            revert InsufficientBalance();\n        }\n        s_subscriptions[req.subId].balance -= payment;\n        delete (s_requests[_requestId]);\n        emit RandomWordsFulfilled(_requestId, _requestId, payment, success);\n    }\n\n    /**\n     * @notice fundSubscription allows funding a subscription with an arbitrary amount for testing.\n     *\n     * @param _subId the subscription to fund\n     * @param _amount the amount to fund\n     */\n    function fundSubscription(uint64 _subId, uint96 _amount) public {\n        if (s_subscriptions[_subId].owner == address(0)) {\n            revert InvalidSubscription();\n        }\n        uint96 oldBalance = s_subscriptions[_subId].balance;\n        s_subscriptions[_subId].balance += _amount;\n        emit SubscriptionFunded(_subId, oldBalance, oldBalance + _amount);\n    }\n\n    function requestRandomWords(\n        bytes32 _keyHash,\n        uint64 _subId,\n        uint16 _minimumRequestConfirmations,\n        uint32 _callbackGasLimit,\n        uint32 _numWords\n    ) external override returns (uint256) {\n        if (s_subscriptions[_subId].owner == address(0)) {\n            revert InvalidSubscription();\n        }\n\n        uint256 requestId = s_nextRequestId++;\n        uint256 preSeed = s_nextPreSeed++;\n\n        s_requests[requestId] = Request({\n            subId: _subId,\n            callbackGasLimit: _callbackGasLimit,\n            numWords: _numWords\n        });\n\n        emit RandomWordsRequested(\n            _keyHash,\n            requestId,\n            preSeed,\n            _subId,\n            _minimumRequestConfirmations,\n            _callbackGasLimit,\n            _numWords,\n            msg.sender\n        );\n        return requestId;\n    }\n\n    function createSubscription() external override returns (uint64 _subId) {\n        s_currentSubId++;\n        s_subscriptions[s_currentSubId] = Subscription({\n            owner: msg.sender,\n            balance: 0\n        });\n        emit SubscriptionCreated(s_currentSubId, msg.sender);\n        return s_currentSubId;\n    }\n\n    function getSubscription(uint64 _subId)\n        external\n        view\n        override\n        returns (\n            uint96 balance,\n            uint64 reqCount,\n            address owner,\n            address[] memory consumers\n        )\n    {\n        if (s_subscriptions[_subId].owner == address(0)) {\n            revert InvalidSubscription();\n        }\n        return (\n            s_subscriptions[_subId].balance,\n            0,\n            s_subscriptions[_subId].owner,\n            new address[](0)\n        );\n    }\n\n    function cancelSubscription(uint64 _subId, address _to)\n        external\n        override\n        onlySubOwner(_subId)\n    {\n        emit SubscriptionCanceled(_subId, _to, s_subscriptions[_subId].balance);\n        delete (s_subscriptions[_subId]);\n    }\n\n    modifier onlySubOwner(uint64 _subId) {\n        address owner = s_subscriptions[_subId].owner;\n        if (owner == address(0)) {\n            revert InvalidSubscription();\n        }\n        if (msg.sender != owner) {\n            revert MustBeSubOwner(owner);\n        }\n        _;\n    }\n\n    function getRequestConfig()\n        external\n        pure\n        override\n        returns (\n            uint16,\n            uint32,\n            bytes32[] memory\n        )\n    {\n        return (3, 2000000, new bytes32[](0));\n    }\n\n    function addConsumer(uint64 _subId, address _consumer)\n        external\n        pure\n        override\n    {\n        revert(\"not implemented\");\n    }\n\n    function removeConsumer(uint64 _subId, address _consumer)\n        external\n        pure\n        override\n    {\n        revert(\"not implemented\");\n    }\n\n    function requestSubscriptionOwnerTransfer(uint64 _subId, address _newOwner)\n        external\n        pure\n        override\n    {\n        revert(\"not implemented\");\n    }\n\n    function acceptSubscriptionOwnerTransfer(uint64 _subId)\n        external\n        pure\n        override\n    {\n        revert(\"not implemented\");\n    }\n\n    function pendingRequestExists(uint64 subId)\n        external\n        pure\n        override\n        returns (bool)\n    {\n        revert(\"not implemented\");\n    }\n}\n",
  "sourcePath": "contracts/test/VRFCoordinatorV2Mock.sol",
  "type": "contract"
}